{"abi":[{"type":"constructor","inputs":[{"name":"_architect","type":"address","internalType":"address"},{"name":"_treasury","type":"address","internalType":"address"}],"stateMutability":"nonpayable"},{"type":"function","name":"BASE_PRICE","inputs":[],"outputs":[{"name":"","type":"uint256","internalType":"uint256"}],"stateMutability":"view"},{"type":"function","name":"CLIFF_DURATION","inputs":[],"outputs":[{"name":"","type":"uint256","internalType":"uint256"}],"stateMutability":"view"},{"type":"function","name":"DECAY_CONSTANT","inputs":[],"outputs":[{"name":"","type":"int256","internalType":"int256"}],"stateMutability":"view"},{"type":"function","name":"MAX_SUPPLY","inputs":[],"outputs":[{"name":"","type":"uint256","internalType":"uint256"}],"stateMutability":"view"},{"type":"function","name":"TARGET_PER_DAY","inputs":[],"outputs":[{"name":"","type":"uint256","internalType":"uint256"}],"stateMutability":"view"},{"type":"function","name":"VESTING_DURATION","inputs":[],"outputs":[{"name":"","type":"uint256","internalType":"uint256"}],"stateMutability":"view"},{"type":"function","name":"allowance","inputs":[{"name":"","type":"address","internalType":"address"},{"name":"","type":"address","internalType":"address"}],"outputs":[{"name":"","type":"uint256","internalType":"uint256"}],"stateMutability":"view"},{"type":"function","name":"approve","inputs":[{"name":"spender","type":"address","internalType":"address"},{"name":"amount","type":"uint256","internalType":"uint256"}],"outputs":[{"name":"","type":"bool","internalType":"bool"}],"stateMutability":"nonpayable"},{"type":"function","name":"architect","inputs":[],"outputs":[{"name":"","type":"address","internalType":"address"}],"stateMutability":"view"},{"type":"function","name":"architectAllocation","inputs":[],"outputs":[{"name":"","type":"uint256","internalType":"uint256"}],"stateMutability":"view"},{"type":"function","name":"architectClaimed","inputs":[],"outputs":[{"name":"","type":"uint256","internalType":"uint256"}],"stateMutability":"view"},{"type":"function","name":"balanceOf","inputs":[{"name":"","type":"address","internalType":"address"}],"outputs":[{"name":"","type":"uint256","internalType":"uint256"}],"stateMutability":"view"},{"type":"function","name":"canDelegate","inputs":[{"name":"wallet","type":"address","internalType":"address"}],"outputs":[{"name":"","type":"bool","internalType":"bool"}],"stateMutability":"view"},{"type":"function","name":"claimVested","inputs":[],"outputs":[],"stateMutability":"nonpayable"},{"type":"function","name":"decimals","inputs":[],"outputs":[{"name":"","type":"uint8","internalType":"uint8"}],"stateMutability":"view"},{"type":"function","name":"escrowCore","inputs":[],"outputs":[{"name":"","type":"address","internalType":"address"}],"stateMutability":"view"},{"type":"function","name":"getVRGDAPrice","inputs":[],"outputs":[{"name":"","type":"uint256","internalType":"uint256"}],"stateMutability":"view"},{"type":"function","name":"haltVRGDA","inputs":[],"outputs":[],"stateMutability":"nonpayable"},{"type":"function","name":"isLaborWallet","inputs":[{"name":"","type":"address","internalType":"address"}],"outputs":[{"name":"","type":"bool","internalType":"bool"}],"stateMutability":"view"},{"type":"function","name":"name","inputs":[],"outputs":[{"name":"","type":"string","internalType":"string"}],"stateMutability":"view"},{"type":"function","name":"owner","inputs":[],"outputs":[{"name":"","type":"address","internalType":"address"}],"stateMutability":"view"},{"type":"function","name":"purchaseVRGDA","inputs":[{"name":"amount","type":"uint256","internalType":"uint256"},{"name":"maxPrice","type":"uint256","internalType":"uint256"},{"name":"usdc","type":"address","internalType":"address"}],"outputs":[],"stateMutability":"nonpayable"},{"type":"function","name":"registerLaborWallet","inputs":[{"name":"wallet","type":"address","internalType":"address"}],"outputs":[],"stateMutability":"nonpayable"},{"type":"function","name":"resumeVRGDA","inputs":[],"outputs":[],"stateMutability":"nonpayable"},{"type":"function","name":"setEscrowCore","inputs":[{"name":"_escrowCore","type":"address","internalType":"address"}],"outputs":[],"stateMutability":"nonpayable"},{"type":"function","name":"symbol","inputs":[],"outputs":[{"name":"","type":"string","internalType":"string"}],"stateMutability":"view"},{"type":"function","name":"totalSupply","inputs":[],"outputs":[{"name":"","type":"uint256","internalType":"uint256"}],"stateMutability":"view"},{"type":"function","name":"transfer","inputs":[{"name":"to","type":"address","internalType":"address"},{"name":"amount","type":"uint256","internalType":"uint256"}],"outputs":[{"name":"","type":"bool","internalType":"bool"}],"stateMutability":"nonpayable"},{"type":"function","name":"transferFrom","inputs":[{"name":"from","type":"address","internalType":"address"},{"name":"to","type":"address","internalType":"address"},{"name":"amount","type":"uint256","internalType":"uint256"}],"outputs":[{"name":"","type":"bool","internalType":"bool"}],"stateMutability":"nonpayable"},{"type":"function","name":"transferOwnership","inputs":[{"name":"newOwner","type":"address","internalType":"address"}],"outputs":[],"stateMutability":"nonpayable"},{"type":"function","name":"vestedAmount","inputs":[],"outputs":[{"name":"","type":"uint256","internalType":"uint256"}],"stateMutability":"view"},{"type":"function","name":"vestingStart","inputs":[],"outputs":[{"name":"","type":"uint256","internalType":"uint256"}],"stateMutability":"view"},{"type":"function","name":"vrgdaHalted","inputs":[],"outputs":[{"name":"","type":"bool","internalType":"bool"}],"stateMutability":"view"},{"type":"function","name":"vrgdaSold","inputs":[],"outputs":[{"name":"","type":"uint256","internalType":"uint256"}],"stateMutability":"view"},{"type":"function","name":"vrgdaStartTime","inputs":[],"outputs":[{"name":"","type":"uint256","internalType":"uint256"}],"stateMutability":"view"},{"type":"event","name":"Approval","inputs":[{"name":"owner","type":"address","indexed":true,"internalType":"address"},{"name":"spender","type":"address","indexed":true,"internalType":"address"},{"name":"value","type":"uint256","indexed":false,"internalType":"uint256"}],"anonymous":false},{"type":"event","name":"ArchitectClaim","inputs":[{"name":"amount","type":"uint256","indexed":false,"internalType":"uint256"},{"name":"totalClaimed","type":"uint256","indexed":false,"internalType":"uint256"}],"anonymous":false},{"type":"event","name":"LaborWalletRegistered","inputs":[{"name":"wallet","type":"address","indexed":true,"internalType":"address"}],"anonymous":false},{"type":"event","name":"Transfer","inputs":[{"name":"from","type":"address","indexed":true,"internalType":"address"},{"name":"to","type":"address","indexed":true,"internalType":"address"},{"name":"value","type":"uint256","indexed":false,"internalType":"uint256"}],"anonymous":false},{"type":"event","name":"VRGDAHalted","inputs":[],"anonymous":false},{"type":"event","name":"VRGDAPurchase","inputs":[{"name":"buyer","type":"address","indexed":true,"internalType":"address"},{"name":"amount","type":"uint256","indexed":false,"internalType":"uint256"},{"name":"price","type":"uint256","indexed":false,"internalType":"uint256"}],"anonymous":false},{"type":"event","name":"VRGDAResumed","inputs":[],"anonymous":false}],"bytecode":{"object":"0x60e0346101795761138c90601f38839003908101601f19168201906001600160401b0382118383101761017d578083916040958694855283398101031261017957610055602061004e83610191565b9201610191565b903360018060a01b0319600854161760085560a0524260c052426004556a084595161401484a00000090816080525f54828101809111610165575f55305f526001602052825f20805490838201809211610165575582519182527fddf252ad1be2c89b69c2b068fc378daa952ba7f163c4a11628f55a4df523b3ef915f8360203093a35f54906a0422ca8b0a00a42500000091828101809111610165575f5560018060a01b031691825f526001602052835f20805492808401809411610165575f93602092558551908152a3516111e690816101a6823960805181818161030d01528181610eb30152610edf015260a0518181816103430152610661015260c0518181816108300152610e620152f35b634e487b7160e01b5f52601160045260245ffd5b5f80fd5b634e487b7160e01b5f52604160045260245ffd5b51906001600160a01b03821682036101795756fe60806040818152600480361015610014575f80fd5b5f3560e01c92836305f349f514610d1f5750826306fdde0314610cd4578263095ea7b314610c6657826310907ab214610c1657826318160ddd14610bf957826319eb6524146109395782631e8267d71461091757826323b872dd14610853578263254800d4146108195782632bba60f1146107dd578263307823c3146107c1578263313ce567146107a657826332cb6b0c1461078157826344b1231f146107655782634cfc4d301461074757826370a082311461071057826370bab956146106b85782638da5cb5b14610690578263936a9ec21461064d57826395d89b4114610610578263a130ffc1146105f2578263a9059cbb146105c2578263aba6786a146104fe578263b3daa652146104e0578263bec6fed2146104bd578263c666907b14610482578263c94f9f7114610460578263d01c44cd1461033057508163d999e7e9146102f7578163dd62ed3e146102af578163dd75c69f1461028d578163e4fab72014610266578163f2fde38b14610216578163f86325ed146101fa575063fc0c87b2146101a1575f80fd5b346101f6575f3660031901126101f6576101c660018060a01b03600854163314610ddc565b60ff19600654166006557f812f722ec9d14e908d1b7a5eb31371583637a3f57ad6e1a536465d344df226965f80a1005b5f80fd5b346101f6575f3660031901126101f65760209051620f42408152f35b346101f65760203660031901126101f65761022f610db0565b600854906001600160a01b03906102493383851614610ddc565b1690610256821515611083565b6001600160a01b03191617600855005b346101f6575f3660031901126101f65760095490516001600160a01b039091168152602090f35b346101f6575f3660031901126101f65760209060ff6006541690519015158152f35b346101f657806003193601126101f6576020906102ca610db0565b6102d2610dc6565b9060018060a01b038091165f5260028452825f2091165f528252805f20549051908152f35b346101f6575f3660031901126101f657602090517f00000000000000000000000000000000000000000000000000000000000000008152f35b90346101f6575f3660031901126101f6577f00000000000000000000000000000000000000000000000000000000000000006001600160a01b038116330361041d5761037a610e60565b906103886003548093610e53565b9182156103da577f9d420a24adefb1ed3bb775d4d509de8335c5cdd15dbcbade567d32ec37c985f494506103ca916103c1848093610e1f565b600355306110cf565b60035482519182526020820152a1005b835162461bcd60e51b8152602081870152601b60248201527f4175746f546f6b656e3a206e6f7468696e6720746f20636c61696d00000000006044820152606490fd5b815162461bcd60e51b8152602081850152601860248201527f4175746f546f6b656e3a206e6f742061726368697465637400000000000000006044820152606490fd5b50346101f6575f3660031901126101f65760209051678ac7230489e800008152f35b50346101f65760203660031901126101f6576020906001600160a01b036104a7610db0565b165f526007825260ff815f205416159051908152f35b50346101f6575f3660031901126101f6576020906104d9610f06565b9051908152f35b50346101f6575f3660031901126101f657602090516301e133808152f35b346101f65760203660031901126101f657610517610db0565b6009546001600160a01b0392908316331480156105b5575b1561057257501690815f5260076020525f20600160ff198254161790557f1b29ac0ed4778a728bdfda10b2a20c3a56778dfc0d5cb6976a16d55f4de8f74f5f80a2005b606490602085519162461bcd60e51b8352820152601960248201527f4175746f546f6b656e3a206e6f7420617574686f72697a6564000000000000006044820152fd5b508260085416331461052f565b50346101f657806003193601126101f6576020906105eb6105e1610db0565b60243590336110cf565b5160018152f35b50346101f6575f3660031901126101f6576020906005549051908152f35b346101f6575f3660031901126101f6578161064992519161063083610d39565b8252634155544f60e01b60208301525191829182610d69565b0390f35b50346101f6575f3660031901126101f657517f00000000000000000000000000000000000000000000000000000000000000006001600160a01b03168152602090f35b50346101f6575f3660031901126101f65760085490516001600160a01b039091168152602090f35b346101f6575f3660031901126101f6576106dd60018060a01b03600854163314610ddc565b600160ff1960065416176006557fbd640f98d44ba14b99c13e650bdac9f238adb6b8441819a474d8aad120405dbc5f80a1005b50346101f65760203660031901126101f6576020906001600160a01b03610735610db0565b165f5260018252805f20549051908152f35b50346101f6575f3660031901126101f65760209051630784ce008152f35b50346101f6575f3660031901126101f6576020906104d9610e60565b50346101f6575f3660031901126101f657602090516a52b7d2dcc80cd2e40000008152f35b50346101f6575f3660031901126101f6576020905160128152f35b90346101f6575f3660031901126101f657602091549051908152f35b50346101f65760203660031901126101f6576020906001600160a01b03610802610db0565b165f526007825260ff815f20541690519015158152f35b50346101f6575f3660031901126101f657602090517f00000000000000000000000000000000000000000000000000000000000000008152f35b90346101f65760603660031901126101f65761086d610db0565b90610876610dc6565b6044359060018060a01b03841693845f5260209460028652845f20335f52865283855f2054106108ca576105eb949596505f5260028652845f20335f528652845f206108c3848254610e53565b90556110cf565b845162461bcd60e51b8152808801879052602160248201527f4175746f546f6b656e3a20696e73756666696369656e7420616c6c6f77616e636044820152606560f81b6064820152608490fd5b50346101f6575f3660031901126101f6576020905167044d575b885f00008152f35b90346101f65760603660031901126101f6576001600160a01b03918035919060448035858116926024918490036101f65760ff60065416610ba7576a52b7d2dcc80cd2e400000061098b875f54610e1f565b11610b6757610998610f06565b9382358511610b2657670de0b6b3a76400006109b48689610e40565b048015610aee575f979860085416948751956323b872dd60e01b8752338588015285870152850152836064816020998a945af18015610ae457610a82575b5050507f740d25c75e3f358eb2bd48c7a8643122a46ec57da5fe75a3e881a280ee9433af92610a22855f54610e1f565b5f55335f5260018152825f20610a39868254610e1f565b905582518581525f7fddf252ad1be2c89b69c2b068fc378daa952ba7f163c4a11628f55a4df523b3ef833393a3610a7285600554610e1f565b60055582519485528401523392a2005b85913d8711610adc575b601f8301601f191684019167ffffffffffffffff831185841017610acb575050859183918652810103126101f65751801515036101f6578480806109f2565b604190634e487b7160e01b5f52525ffd5b3d9250610a8c565b85513d5f823e3d90fd5b865162461bcd60e51b815260208185015260148186015273105d5d1bd51bdad95b8e881e995c9bc818dbdcdd60621b81870152606490fd5b507f4175746f546f6b656e3a2070726963652065786365656473206d61780000000083601c606494602089519562461bcd60e51b8752860152840152820152fd5b7f4175746f546f6b656e3a206d617820737570706c79207265616368656400000083601d606494602089519562461bcd60e51b8752860152840152820152fd5b7f4175746f546f6b656e3a2056524744412068616c746564202863697263756974836029608494602089519562461bcd60e51b87528601528401528201526820627265616b65722960b81b6064820152fd5b50346101f6575f3660031901126101f6576020905f549051908152f35b346101f65760203660031901126101f657610c2f610db0565b6008546001600160a01b039190610c499083163314610ddc565b166bffffffffffffffffffffffff60a01b60095416176009555f80f35b50346101f657806003193601126101f657602090610c82610db0565b602435335f5260028452825f209160018060a01b031691825f52845280835f205582519081527f8c5be1e5ebec7d5bd14f71427d1e84f3dd0314c0f7b2291e5b200ac8c7c3b925843392a35160018152f35b50346101f6575f3660031901126101f657805161064991610cf482610d39565b6014825273105d5d1bdc1bda595d1a58c8141c9bdd1bd8dbdb60621b60208301525191829182610d69565b346101f6575f3660031901126101f6576020906003548152f35b6040810190811067ffffffffffffffff821117610d5557604052565b634e487b7160e01b5f52604160045260245ffd5b602080825282518183018190529093925f5b828110610d9c57505060409293505f838284010152601f8019910116010190565b818101860151848201604001528501610d7b565b600435906001600160a01b03821682036101f657565b602435906001600160a01b03821682036101f657565b15610de357565b60405162461bcd60e51b815260206004820152601460248201527320baba37aa37b5b2b71d103737ba1037bbb732b960611b6044820152606490fd5b91908201809211610e2c57565b634e487b7160e01b5f52601160045260245ffd5b81810292918115918404141715610e2c57565b91908203918211610e2c57565b7f00000000000000000000000000000000000000000000000000000000000000006301e133808101808211610e2c574210610f0157610e9f9042610e53565b630784ce009081811015610edb57610ed7907f0000000000000000000000000000000000000000000000000000000000000000610e40565b0490565b50507f000000000000000000000000000000000000000000000000000000000000000090565b505f90565b600462015180610f17825442610e53565b0490811561107a575b678ac7230489e80000828102908082048403610fdf57600554908282116110185750610f4c9082610e53565b620f42409384820291808304861481151715611005576302faf080029180830460321490151715610ff257683635c9adc5dea00000029180830460641490151715610fdf578115610fcc57046207a12080821015610fc557508203918211610fb2575090565b601190634e487b7160e01b5f525260245ffd5b9250505090565b601283634e487b7160e01b5f525260245ffd5b601183634e487b7160e01b5f525260245ffd5b601184634e487b7160e01b5f525260245ffd5b601185634e487b7160e01b5f525260245ffd5b93509061102491610e53565b91670de0b6b3a76400009283810290808204851490151715610fdf5704676f05b59d3b200000808211611072575b50820190818311610fb257620f42409180830292830403610fb257500490565b90505f611052565b60019150610f20565b1561108a57565b60405162461bcd60e51b815260206004820152601760248201527f4175746f546f6b656e3a207a65726f20616464726573730000000000000000006044820152606490fd5b6001600160a01b0390811691821515806111a5575b6110ed90611083565b825f5260016020528360405f205410611160577fddf252ad1be2c89b69c2b068fc378daa952ba7f163c4a11628f55a4df523b3ef91602091845f526001835260405f2061113b878254610e53565b90551693845f526001825260405f20611155828254610e1f565b9055604051908152a3565b60405162461bcd60e51b815260206004820152601f60248201527f4175746f546f6b656e3a20696e73756666696369656e742062616c616e6365006044820152606490fd5b5080821615156110e456fea2646970667358221220966f172997eb9e3fdd59cd80f82b0d522c605a8ac2a0abca061f986600ee237164736f6c63430008180033","linkReferences":{}},"methodIdentifiers":{"BASE_PRICE()":"f86325ed","CLIFF_DURATION()":"b3daa652","DECAY_CONSTANT()":"1e8267d7","MAX_SUPPLY()":"32cb6b0c","TARGET_PER_DAY()":"c94f9f71","VESTING_DURATION()":"4cfc4d30","allowance(address,address)":"dd62ed3e","approve(address,uint256)":"095ea7b3","architect()":"936a9ec2","architectAllocation()":"d999e7e9","architectClaimed()":"05f349f5","balanceOf(address)":"70a08231","canDelegate(address)":"c666907b","claimVested()":"d01c44cd","decimals()":"313ce567","escrowCore()":"e4fab720","getVRGDAPrice()":"bec6fed2","haltVRGDA()":"70bab956","isLaborWallet(address)":"2bba60f1","name()":"06fdde03","owner()":"8da5cb5b","purchaseVRGDA(uint256,uint256,address)":"19eb6524","registerLaborWallet(address)":"aba6786a","resumeVRGDA()":"fc0c87b2","setEscrowCore(address)":"10907ab2","symbol()":"95d89b41","totalSupply()":"18160ddd","transfer(address,uint256)":"a9059cbb","transferFrom(address,address,uint256)":"23b872dd","transferOwnership(address)":"f2fde38b","vestedAmount()":"44b1231f","vestingStart()":"254800d4","vrgdaHalted()":"dd75c69f","vrgdaSold()":"a130ffc1","vrgdaStartTime()":"307823c3"},"id":19}