{"abi":[{"type":"constructor","inputs":[{"name":"_architect","type":"address","internalType":"address"},{"name":"_treasury","type":"address","internalType":"address"}],"stateMutability":"nonpayable"},{"type":"function","name":"BASE_PRICE","inputs":[],"outputs":[{"name":"","type":"uint256","internalType":"uint256"}],"stateMutability":"view"},{"type":"function","name":"CLIFF_DURATION","inputs":[],"outputs":[{"name":"","type":"uint256","internalType":"uint256"}],"stateMutability":"view"},{"type":"function","name":"COOLING_RATE","inputs":[],"outputs":[{"name":"","type":"uint256","internalType":"uint256"}],"stateMutability":"view"},{"type":"function","name":"DISCOVERY_RATE","inputs":[],"outputs":[{"name":"","type":"uint256","internalType":"uint256"}],"stateMutability":"view"},{"type":"function","name":"GENESIS_RECOVERY_BPS","inputs":[],"outputs":[{"name":"","type":"uint16","internalType":"uint16"}],"stateMutability":"view"},{"type":"function","name":"GENESIS_RECOVERY_DURATION","inputs":[],"outputs":[{"name":"","type":"uint256","internalType":"uint256"}],"stateMutability":"view"},{"type":"function","name":"MAX_SUPPLY","inputs":[],"outputs":[{"name":"","type":"uint256","internalType":"uint256"}],"stateMutability":"view"},{"type":"function","name":"MILESTONE_BURN_BPS","inputs":[],"outputs":[{"name":"","type":"uint16","internalType":"uint16"}],"stateMutability":"view"},{"type":"function","name":"MINT_BURN_BPS","inputs":[],"outputs":[{"name":"","type":"uint16","internalType":"uint16"}],"stateMutability":"view"},{"type":"function","name":"PHASE_SHIFT_DAYS","inputs":[],"outputs":[{"name":"","type":"uint256","internalType":"uint256"}],"stateMutability":"view"},{"type":"function","name":"VESTING_DURATION","inputs":[],"outputs":[{"name":"","type":"uint256","internalType":"uint256"}],"stateMutability":"view"},{"type":"function","name":"allowance","inputs":[{"name":"","type":"address","internalType":"address"},{"name":"","type":"address","internalType":"address"}],"outputs":[{"name":"","type":"uint256","internalType":"uint256"}],"stateMutability":"view"},{"type":"function","name":"approve","inputs":[{"name":"spender","type":"address","internalType":"address"},{"name":"amount","type":"uint256","internalType":"uint256"}],"outputs":[{"name":"","type":"bool","internalType":"bool"}],"stateMutability":"nonpayable"},{"type":"function","name":"architect","inputs":[],"outputs":[{"name":"","type":"address","internalType":"address"}],"stateMutability":"view"},{"type":"function","name":"architectAllocation","inputs":[],"outputs":[{"name":"","type":"uint256","internalType":"uint256"}],"stateMutability":"view"},{"type":"function","name":"architectClaimed","inputs":[],"outputs":[{"name":"","type":"uint256","internalType":"uint256"}],"stateMutability":"view"},{"type":"function","name":"balanceOf","inputs":[{"name":"","type":"address","internalType":"address"}],"outputs":[{"name":"","type":"uint256","internalType":"uint256"}],"stateMutability":"view"},{"type":"function","name":"canDelegate","inputs":[{"name":"wallet","type":"address","internalType":"address"}],"outputs":[{"name":"","type":"bool","internalType":"bool"}],"stateMutability":"view"},{"type":"function","name":"circulatingSupply","inputs":[],"outputs":[{"name":"","type":"uint256","internalType":"uint256"}],"stateMutability":"view"},{"type":"function","name":"claimVested","inputs":[],"outputs":[],"stateMutability":"nonpayable"},{"type":"function","name":"decimals","inputs":[],"outputs":[{"name":"","type":"uint8","internalType":"uint8"}],"stateMutability":"view"},{"type":"function","name":"developerWallet","inputs":[],"outputs":[{"name":"","type":"address","internalType":"address"}],"stateMutability":"view"},{"type":"function","name":"effectiveMaxSupply","inputs":[],"outputs":[{"name":"","type":"uint256","internalType":"uint256"}],"stateMutability":"view"},{"type":"function","name":"escrowCore","inputs":[],"outputs":[{"name":"","type":"address","internalType":"address"}],"stateMutability":"view"},{"type":"function","name":"executeMilestoneBurn","inputs":[],"outputs":[],"stateMutability":"nonpayable"},{"type":"function","name":"genesisRecoveryPaid","inputs":[],"outputs":[{"name":"","type":"uint256","internalType":"uint256"}],"stateMutability":"view"},{"type":"function","name":"getVRGDACost","inputs":[{"name":"amount","type":"uint256","internalType":"uint256"}],"outputs":[{"name":"","type":"uint256","internalType":"uint256"}],"stateMutability":"view"},{"type":"function","name":"getVRGDAPrice","inputs":[],"outputs":[{"name":"","type":"uint256","internalType":"uint256"}],"stateMutability":"view"},{"type":"function","name":"haltVRGDA","inputs":[],"outputs":[],"stateMutability":"nonpayable"},{"type":"function","name":"isLaborWallet","inputs":[{"name":"","type":"address","internalType":"address"}],"outputs":[{"name":"","type":"bool","internalType":"bool"}],"stateMutability":"view"},{"type":"function","name":"milestoneBurnAmount","inputs":[],"outputs":[{"name":"","type":"uint256","internalType":"uint256"}],"stateMutability":"view"},{"type":"function","name":"milestoneBurnExecuted","inputs":[],"outputs":[{"name":"","type":"bool","internalType":"bool"}],"stateMutability":"view"},{"type":"function","name":"name","inputs":[],"outputs":[{"name":"","type":"string","internalType":"string"}],"stateMutability":"view"},{"type":"function","name":"owner","inputs":[],"outputs":[{"name":"","type":"address","internalType":"address"}],"stateMutability":"view"},{"type":"function","name":"purchaseVRGDA","inputs":[{"name":"amount","type":"uint256","internalType":"uint256"},{"name":"maxPrice","type":"uint256","internalType":"uint256"},{"name":"usdc","type":"address","internalType":"address"}],"outputs":[],"stateMutability":"nonpayable"},{"type":"function","name":"registerLaborWallet","inputs":[{"name":"wallet","type":"address","internalType":"address"}],"outputs":[],"stateMutability":"nonpayable"},{"type":"function","name":"resumeVRGDA","inputs":[],"outputs":[],"stateMutability":"nonpayable"},{"type":"function","name":"setEscrowCore","inputs":[{"name":"_escrowCore","type":"address","internalType":"address"}],"outputs":[],"stateMutability":"nonpayable"},{"type":"function","name":"setTreasury","inputs":[{"name":"_treasury","type":"address","internalType":"address"}],"outputs":[],"stateMutability":"nonpayable"},{"type":"function","name":"symbol","inputs":[],"outputs":[{"name":"","type":"string","internalType":"string"}],"stateMutability":"view"},{"type":"function","name":"totalBurned","inputs":[],"outputs":[{"name":"","type":"uint256","internalType":"uint256"}],"stateMutability":"view"},{"type":"function","name":"totalSupply","inputs":[],"outputs":[{"name":"","type":"uint256","internalType":"uint256"}],"stateMutability":"view"},{"type":"function","name":"transfer","inputs":[{"name":"to","type":"address","internalType":"address"},{"name":"amount","type":"uint256","internalType":"uint256"}],"outputs":[{"name":"","type":"bool","internalType":"bool"}],"stateMutability":"nonpayable"},{"type":"function","name":"transferFrom","inputs":[{"name":"from","type":"address","internalType":"address"},{"name":"to","type":"address","internalType":"address"},{"name":"amount","type":"uint256","internalType":"uint256"}],"outputs":[{"name":"","type":"bool","internalType":"bool"}],"stateMutability":"nonpayable"},{"type":"function","name":"transferOwnership","inputs":[{"name":"newOwner","type":"address","internalType":"address"}],"outputs":[],"stateMutability":"nonpayable"},{"type":"function","name":"treasury","inputs":[],"outputs":[{"name":"","type":"address","internalType":"address"}],"stateMutability":"view"},{"type":"function","name":"vestedAmount","inputs":[],"outputs":[{"name":"","type":"uint256","internalType":"uint256"}],"stateMutability":"view"},{"type":"function","name":"vestingStart","inputs":[],"outputs":[{"name":"","type":"uint256","internalType":"uint256"}],"stateMutability":"view"},{"type":"function","name":"vrgdaHalted","inputs":[],"outputs":[{"name":"","type":"bool","internalType":"bool"}],"stateMutability":"view"},{"type":"function","name":"vrgdaSold","inputs":[],"outputs":[{"name":"","type":"uint256","internalType":"uint256"}],"stateMutability":"view"},{"type":"function","name":"vrgdaStartTime","inputs":[],"outputs":[{"name":"","type":"uint256","internalType":"uint256"}],"stateMutability":"view"},{"type":"function","name":"vrgdaTreasuryTotal","inputs":[],"outputs":[{"name":"","type":"uint256","internalType":"uint256"}],"stateMutability":"view"},{"type":"event","name":"Approval","inputs":[{"name":"owner","type":"address","indexed":true,"internalType":"address"},{"name":"spender","type":"address","indexed":true,"internalType":"address"},{"name":"value","type":"uint256","indexed":false,"internalType":"uint256"}],"anonymous":false},{"type":"event","name":"ArchitectClaim","inputs":[{"name":"amount","type":"uint256","indexed":false,"internalType":"uint256"},{"name":"totalClaimed","type":"uint256","indexed":false,"internalType":"uint256"}],"anonymous":false},{"type":"event","name":"GenesisRecoverySplit","inputs":[{"name":"developerShare","type":"uint256","indexed":false,"internalType":"uint256"},{"name":"treasuryShare","type":"uint256","indexed":false,"internalType":"uint256"}],"anonymous":false},{"type":"event","name":"LaborWalletRegistered","inputs":[{"name":"wallet","type":"address","indexed":true,"internalType":"address"}],"anonymous":false},{"type":"event","name":"MilestoneBurn","inputs":[{"name":"amount","type":"uint256","indexed":false,"internalType":"uint256"},{"name":"remainingArchitectAllocation","type":"uint256","indexed":false,"internalType":"uint256"}],"anonymous":false},{"type":"event","name":"MintBurn","inputs":[{"name":"amount","type":"uint256","indexed":false,"internalType":"uint256"}],"anonymous":false},{"type":"event","name":"TokensBurned","inputs":[{"name":"from","type":"address","indexed":true,"internalType":"address"},{"name":"amount","type":"uint256","indexed":false,"internalType":"uint256"}],"anonymous":false},{"type":"event","name":"Transfer","inputs":[{"name":"from","type":"address","indexed":true,"internalType":"address"},{"name":"to","type":"address","indexed":true,"internalType":"address"},{"name":"value","type":"uint256","indexed":false,"internalType":"uint256"}],"anonymous":false},{"type":"event","name":"VRGDAHalted","inputs":[],"anonymous":false},{"type":"event","name":"VRGDAPurchase","inputs":[{"name":"buyer","type":"address","indexed":true,"internalType":"address"},{"name":"amountMinted","type":"uint256","indexed":false,"internalType":"uint256"},{"name":"amountBurned","type":"uint256","indexed":false,"internalType":"uint256"},{"name":"price","type":"uint256","indexed":false,"internalType":"uint256"}],"anonymous":false},{"type":"event","name":"VRGDAResumed","inputs":[],"anonymous":false}],"bytecode":{"object":"0x610100346200020b5762001e2c90601f38839003908101601f19168201906001600160401b038211838310176200020f57808391604095869485528339810103126200020b57620000508162000223565b9062000060602080920162000223565b6001600160a01b0390838216151580620001ff575b15620001bb5760018060a01b0319933385600e541617600e558060a05260e052168092600c541617600c554260c052426007556a52b7d2dcc80cd2e4000000806080525f54818101809111620001a7575f55305f5260018252835f20805490828201809211620001a7575583519081527fddf252ad1be2c89b69c2b068fc378daa952ba7f163c4a11628f55a4df523b3ef905f82843093a35f54916a7c13bc4b2c133c5600000092838101809111620001a7575f55835f5260018152845f20928354818101809111620001a7575f94558551908152a351611bf3908162000239823960805181818161044901528181610911015281816112980152611794015260a0518181816104bf01526108c2015260c051818181610b700152611756015260e051818181610d4b015261115e0152f35b634e487b7160e01b5f52601160045260245ffd5b845162461bcd60e51b815260048101849052601760248201527f4175746f546f6b656e3a207a65726f20616464726573730000000000000000006044820152606490fd5b50818116151562000075565b5f80fd5b634e487b7160e01b5f52604160045260245ffd5b51906001600160a01b03821682036200020b5756fe60806040818152600480361015610014575f80fd5b5f3560e01c92836305f349f5146114805750826306fdde03146114355782630779b29214611268578263095ea7b3146111fa57826310907ab2146111aa57826318160ddd1461118d578263185870f91461114a57826319eb652414610c5757826323b872dd14610b93578263254800d414610b5957826327ec02e614610b355782632bba60f114610af9578263307823c314610adb578263313ce56714610ac057826331f7249714610aa257826332cb6b0c14610a7c57826344b1231f14610a605782634cfc4d3014610a4257826353c92d5514610a2457826361d027b3146109fc57826370a08231146109c557826370bab9561461096d5782638da5cb5b146109455782639358928b146108f1578263936a9ec2146108ae57826395d1b0621461089057826395d89b4114610853578263995d167f1461080a5782639c476683146107ef578263a130ffc1146107d1578263a226ba4e146107b3578263a59b643714610798578263a9059cbb14610768578263aba6786a146106a4578263af1aab0f14610688578263b3daa6521461039d578263b8d10fb31461066c578263bec6fed214610612578263c666907b146105d7578263d01c44cd146104ac57508163d717626d14610489578163d89135cd1461046c578163d999e7e914610433578163dd62ed3e146103eb578163dd75c69f146103c9578163e4fab720146103a2578163e86371361461039d578163f0f4426014610342578163f274be4514610320578163f2fde38b146102d0578163f86325ed146102b5575063fc0c87b21461025c575f80fd5b346102b1575f3660031901126102b15761028160018060a01b03600e541633146115cd565b60ff19600954166009557f812f722ec9d14e908d1b7a5eb31371583637a3f57ad6e1a536465d344df226965f80a1005b5f80fd5b346102b1575f3660031901126102b157602090516107d08152f35b346102b15760203660031901126102b1576102e9611531565b600e54906001600160a01b039061030333838516146115cd565b16906103108215156117dc565b6001600160a01b03191617600e55005b346102b1575f3660031901126102b15760209060ff6005541690519015158152f35b346102b15760203660031901126102b15761035b611531565b600e546001600160a01b03919061037590831633146115cd565b166103818115156117dc565b6bffffffffffffffffffffffff60a01b600c541617600c555f80f35b61155d565b346102b1575f3660031901126102b157600f5490516001600160a01b039091168152602090f35b346102b1575f3660031901126102b15760209060ff6009541690519015158152f35b346102b157806003193601126102b157602090610406611531565b61040e611547565b9060018060a01b038091165f5260028452825f2091165f528252805f20549051908152f35b346102b1575f3660031901126102b157602090517f00000000000000000000000000000000000000000000000000000000000000008152f35b346102b1575f3660031901126102b1576020906003549051908152f35b346102b1575f3660031901126102b1576020905169d3c21bcecceda10000008152f35b90346102b1575f3660031901126102b1577f00000000000000000000000000000000000000000000000000000000000000006001600160a01b0381163303610594576104f6611754565b906105038454809361157b565b91821561055157827f9d420a24adefb1ed3bb775d4d509de8335c5cdd15dbcbade567d32ec37c985f4959261053b8261054394611610565b845530611971565b5482519182526020820152a1005b835162461bcd60e51b8152602081870152601b60248201527f4175746f546f6b656e3a206e6f7468696e6720746f20636c61696d00000000006044820152606490fd5b815162461bcd60e51b8152602081850152601860248201527f4175746f546f6b656e3a206e6f742061726368697465637400000000000000006044820152606490fd5b50346102b15760203660031901126102b1576020906001600160a01b036105fc611531565b165f52600d825260ff815f205416159051908152f35b50346102b1575f3660031901126102b157602090620151806106366007544261157b565b048015610664575b8061065461064e61065d93611a47565b91611abe565b90600854611ae2565b9051908152f35b50600161063e565b50346102b1575f3660031901126102b157602090516107d08152f35b50346102b1575f3660031901126102b157602090516113888152f35b346102b15760203660031901126102b1576106bd611531565b600f546001600160a01b03929083163314801561075b575b1561071857501690815f52600d6020525f20600160ff198254161790557f1b29ac0ed4778a728bdfda10b2a20c3a56778dfc0d5cb6976a16d55f4de8f74f5f80a2005b606490602085519162461bcd60e51b8352820152601960248201527f4175746f546f6b656e3a206e6f7420617574686f72697a6564000000000000006044820152fd5b5082600e541633146106d5565b50346102b157806003193601126102b157602090610791610787611531565b6024359033611971565b5160018152f35b50346102b1575f3660031901126102b15760209051605a8152f35b50346102b1575f3660031901126102b157602090600b549051908152f35b50346102b1575f3660031901126102b1576020906008549051908152f35b50346102b1575f3660031901126102b1576020905160648152f35b90346102b1575f3660031901126102b157600354906b033b2e3c9fd0803ce8000000918203918211610840576020925051908152f35b601183634e487b7160e01b5f525260245ffd5b346102b1575f3660031901126102b1578161088c92519161087383611498565b8252634155544f60e01b602083015251918291826114ea565b0390f35b50346102b1575f3660031901126102b1576020906006549051908152f35b50346102b1575f3660031901126102b157517f00000000000000000000000000000000000000000000000000000000000000006001600160a01b03168152602090f35b90346102b1575f3660031901126102b15761065d61093e610935602094547f000000000000000000000000000000000000000000000000000000000000000061157b565b6006549061157b565b5f5461157b565b50346102b1575f3660031901126102b157600e5490516001600160a01b039091168152602090f35b346102b1575f3660031901126102b15761099260018060a01b03600e541633146115cd565b600160ff1960095416176009557fbd640f98d44ba14b99c13e650bdac9f238adb6b8441819a474d8aad120405dbc5f80a1005b50346102b15760203660031901126102b1576020906001600160a01b036109ea611531565b165f5260018252805f20549051908152f35b50346102b1575f3660031901126102b157600c5490516001600160a01b039091168152602090f35b50346102b1575f3660031901126102b157602090600a549051908152f35b50346102b1575f3660031901126102b15760209051630784ce008152f35b50346102b1575f3660031901126102b15760209061065d611754565b50346102b1575f3660031901126102b157602090516b033b2e3c9fd0803ce80000008152f35b90346102b15760203660031901126102b15761065d60209235611635565b50346102b1575f3660031901126102b1576020905160128152f35b50346102b1575f3660031901126102b1576020906007549051908152f35b50346102b15760203660031901126102b1576020906001600160a01b03610b1e611531565b165f52600d825260ff815f20541690519015158152f35b50346102b1575f3660031901126102b1576020905169152d02c7e14af68000008152f35b50346102b1575f3660031901126102b157602090517f00000000000000000000000000000000000000000000000000000000000000008152f35b90346102b15760603660031901126102b157610bad611531565b90610bb6611547565b6044359060018060a01b03841693845f5260209460028652845f20335f52865283855f205410610c0a57610791949596505f5260028652845f20335f528652845f20610c0384825461157b565b9055611971565b845162461bcd60e51b8152808801879052602160248201527f4175746f546f6b656e3a20696e73756666696369656e7420616c6c6f77616e636044820152606560f81b6064820152608490fd5b346102b15760603660031901126102b157803591604491602483356001600160a01b03818116918290036102b15760ff600954166111095786156110cf576b033b2e3c9fd0803ce8000000610cad885f54611610565b1161108e57610cbb87611635565b91821561105657670de0b6b3a76400008302670de0b6b3a763ffff1984820401610f5e5788610ce9916115af565b968435881161100357506007546301e133808101809111610f5e5783904211610f7057506107d083026107cf1984820401610f5e57612710610d2d9104809461157b565b86516323b872dd60e01b808252338883019081526001600160a01b037f0000000000000000000000000000000000000000000000000000000000000000166020828101919091526040820188905293959394919391929085908290819060600103815f875af18015610f54575f8795938795938c93610f37575b50600c548d5195865233938601938452166001600160a01b03166020830152604082019590955291938492839190829060600103925af18015610f2d57918793917f390794a26c90c6cdfffeac201a53cd1df570eb748060ffed2babe5895115920f9593610f00575b50610e1d83600a54611610565b600a55610e2c82600b54611610565b600b558351928352820152a15b6064850291858304606403610eef5750506127109004610e75610e5c828661157b565b94610e678633611915565b82610ead575b600854611610565b600855815193845260208401528201527f6795985e1db62f435a767eff3c6255ce68108243ae52665968b4352b6115bd1c60603392a2005b610eb78330611915565b610ec18330611828565b7fa472663f50a5c6a412a87a1037600d2cbaa336dc24664072d485cfa07d2c36e560208551858152a1610e6d565b601190634e487b7160e01b5f52525ffd5b610f1f90823d8411610f26575b610f1781836114c8565b81019061161d565b508a610e10565b503d610f0d565b87513d5f823e3d90fd5b610f4d90873d8911610f2657610f1781836114c8565b508f610da7565b8a513d5f823e3d90fd5b84601187634e487b7160e01b5f52525ffd5b602091610fb493600c54165f89518096819582946323b872dd60e01b8452338d850160409194939294606082019560018060a01b0380921683521660208201520152565b03925af18015610ff95790610fd29291610fda575b50600b54611610565b600b55610e39565b610ff29060203d602011610f2657610f1781836114c8565b5087610fc9565b85513d5f823e3d90fd5b857f4175746f546f6b656e3a2061766572616765207072696365206578636565647360849260298860208c519562461bcd60e51b875286015284015282015268206d6178507269636560b81b6064820152fd5b855162461bcd60e51b815260208187015260148186015273105d5d1bd51bdad95b8e881e995c9bc818dbdcdd60621b81890152606490fd5b845162461bcd60e51b8152602081860152601d818501527f4175746f546f6b656e3a206d617820737570706c79207265616368656400000081880152606490fd5b845162461bcd60e51b815260208186015260168185015275105d5d1bd51bdad95b8e881e995c9bc8185b5bdd5b9d60521b81880152606490fd5b845162461bcd60e51b81526020818601526017818501527f4175746f546f6b656e3a2056524744412068616c74656400000000000000000081880152606490fd5b50346102b1575f3660031901126102b157517f00000000000000000000000000000000000000000000000000000000000000006001600160a01b03168152602090f35b50346102b1575f3660031901126102b1576020905f549051908152f35b346102b15760203660031901126102b1576111c3611531565b600e546001600160a01b0391906111dd90831633146115cd565b166bffffffffffffffffffffffff60a01b600f541617600f555f80f35b50346102b157806003193601126102b157602090611216611531565b602435335f5260028452825f209160018060a01b031691825f52845280835f205582519081527f8c5be1e5ebec7d5bd14f71427d1e84f3dd0314c0f7b2291e5b200ac8c7c3b925843392a35160018152f35b90346102b1575f3660031901126102b157600c546001600160a01b031633036113e65760055460ff8116611395577f00000000000000000000000000000000000000000000000000000000000000006112c86112c2611754565b8261157b565b8015611352576113888082029182040361133f579161132d611332927fb288e427db87cb6d0c582ee9227bfede3f7cea3d43093f3d38e95ca685786ce8966127106001960495869460ff191617600555836006556113268430611828565b549061157b565b61157b565b82519182526020820152a1005b601185634e487b7160e01b5f525260245ffd5b835162461bcd60e51b8152602081870152601d60248201527f4175746f546f6b656e3a206e6f20756e76657374656420746f6b656e730000006044820152606490fd5b815162461bcd60e51b8152602081850152602560248201527f4175746f546f6b656e3a206d696c6573746f6e6520616c72656164792065786560448201526418dd5d195960da1b6064820152608490fd5b906020608492519162461bcd60e51b83528201526024808201527f4175746f546f6b656e3a206f6e6c792074726561737572792063616e2074726960448201526333b3b2b960e11b6064820152fd5b50346102b1575f3660031901126102b157805161088c9161145582611498565b6014825273105d5d1bdc1bda595d1a58c8141c9bdd1bd8dbdb60621b602083015251918291826114ea565b346102b1575f3660031901126102b157602091548152f35b6040810190811067ffffffffffffffff8211176114b457604052565b634e487b7160e01b5f52604160045260245ffd5b90601f8019910116810190811067ffffffffffffffff8211176114b457604052565b602080825282518183018190529093925f5b82811061151d57505060409293505f838284010152601f8019910116010190565b8181018601518482016040015285016114fc565b600435906001600160a01b03821682036102b157565b602435906001600160a01b03821682036102b157565b346102b1575f3660031901126102b15760206040516301e133808152f35b9190820391821161158857565b634e487b7160e01b5f52601160045260245ffd5b8181029291811591840414171561158857565b81156115b9570490565b634e487b7160e01b5f52601260045260245ffd5b156115d457565b60405162461bcd60e51b815260206004820152601460248201527320baba37aa37b5b2b71d103737ba1037bbb732b960611b6044820152606490fd5b9190820180921161158857565b908160209103126102b1575180151581036102b15790565b801561174f576201518061164b6007544261157b565b04908115611746575b61166661166083611a47565b92611abe565b600854906116748383611610565b918483116116b357916116a3828661169d6116a995671bc16d674ec80000996116af9998611ae2565b93611ae2565b90611610565b9061159c565b0490565b8481106116db57916116a3828661169d6116a995671bc16d674ec80000996116af9998611ae2565b9250611701906116eb848661157b565b9461169d82826116fb818861157b565b97611ae2565b916107d09384830180931161158857611724671bc16d674ec8000093849261159c565b04928401809411611588576117439361173c9161159c565b0490611610565b90565b60019150611654565b505f90565b7f00000000000000000000000000000000000000000000000000000000000000006301e13380810180821161158857421061174f576117bf6117b86006547f000000000000000000000000000000000000000000000000000000000000000061157b565b914261157b565b630784ce0090818110156117d7576116af919261159c565b505090565b156117e357565b60405162461bcd60e51b815260206004820152601760248201527f4175746f546f6b656e3a207a65726f20616464726573730000000000000000006044820152606490fd5b60018060a01b031690815f5260016020528060405f2054106118d05760207ffd38818f5291bf0bb3a2a48aadc06ba8757865d1dabd804585338aab3009dcb691835f526001825260405f2061187e82825461157b565b905561188b815f5461157b565b5f5561189981600354611610565b6003555f847fddf252ad1be2c89b69c2b068fc378daa952ba7f163c4a11628f55a4df523b3ef84604051858152a3604051908152a2565b60405162461bcd60e51b815260206004820152601f60248201527f4175746f546f6b656e3a206275726e20657863656564732062616c616e6365006044820152606490fd5b7fddf252ad1be2c89b69c2b068fc378daa952ba7f163c4a11628f55a4df523b3ef60205f92611945858554611610565b845560018060a01b0316938484526001825260408420611966828254611610565b9055604051908152a3565b6001600160a01b039081169182151580611a3c575b61198f906117dc565b825f5260016020528360405f2054106119f7577fddf252ad1be2c89b69c2b068fc378daa952ba7f163c4a11628f55a4df523b3ef91602091845f526001835260405f206119dd87825461157b565b90551693845f526001825260405f20611966828254611610565b60405162461bcd60e51b815260206004820152601f60248201527f4175746f546f6b656e3a20696e73756666696369656e742062616c616e6365006044820152606490fd5b508082161515611986565b8015611ab6575b605a8111611a755769d3c21bcecceda1000000908181029181830414901517156115885790565b60591981019081116115885769152d02c7e14af680000090818102918183041490151715611588576a4a723dc6b40b8a9a0000009081018091116115885790565b506001611a4e565b605a1015611ad45769152d02c7e14af680000090565b69d3c21bcecceda100000090565b9091828211611b595750611af6908261157b565b6107d0918282029180830484148115171561158857620186a00291808304603214901517156115885760648102908082046064149015171561158857611b3b916115af565b6103e880821015611b53575081039081116115885790565b91505090565b91611b639161157b565b670de0b6b3a7640000918282029180830484149015171561158857611b87916115af565b676f05b59d3b200000808211611bb5575b508101808211611588576107d09080820291820403611588570490565b90505f611b9856fea2646970667358221220f7440e8adf69fb1c814a9067970a0cc8951bfa49219e5905d3f0adafbe9584ff64736f6c63430008180033","linkReferences":{}},"methodIdentifiers":{"BASE_PRICE()":"f86325ed","CLIFF_DURATION()":"b3daa652","COOLING_RATE()":"27ec02e6","DISCOVERY_RATE()":"d717626d","GENESIS_RECOVERY_BPS()":"b8d10fb3","GENESIS_RECOVERY_DURATION()":"e8637136","MAX_SUPPLY()":"32cb6b0c","MILESTONE_BURN_BPS()":"af1aab0f","MINT_BURN_BPS()":"9c476683","PHASE_SHIFT_DAYS()":"a59b6437","VESTING_DURATION()":"4cfc4d30","allowance(address,address)":"dd62ed3e","approve(address,uint256)":"095ea7b3","architect()":"936a9ec2","architectAllocation()":"d999e7e9","architectClaimed()":"05f349f5","balanceOf(address)":"70a08231","canDelegate(address)":"c666907b","circulatingSupply()":"9358928b","claimVested()":"d01c44cd","decimals()":"313ce567","developerWallet()":"185870f9","effectiveMaxSupply()":"995d167f","escrowCore()":"e4fab720","executeMilestoneBurn()":"0779b292","genesisRecoveryPaid()":"53c92d55","getVRGDACost(uint256)":"31f72497","getVRGDAPrice()":"bec6fed2","haltVRGDA()":"70bab956","isLaborWallet(address)":"2bba60f1","milestoneBurnAmount()":"95d1b062","milestoneBurnExecuted()":"f274be45","name()":"06fdde03","owner()":"8da5cb5b","purchaseVRGDA(uint256,uint256,address)":"19eb6524","registerLaborWallet(address)":"aba6786a","resumeVRGDA()":"fc0c87b2","setEscrowCore(address)":"10907ab2","setTreasury(address)":"f0f44260","symbol()":"95d89b41","totalBurned()":"d89135cd","totalSupply()":"18160ddd","transfer(address,uint256)":"a9059cbb","transferFrom(address,address,uint256)":"23b872dd","transferOwnership(address)":"f2fde38b","treasury()":"61d027b3","vestedAmount()":"44b1231f","vestingStart()":"254800d4","vrgdaHalted()":"dd75c69f","vrgdaSold()":"a130ffc1","vrgdaStartTime()":"307823c3","vrgdaTreasuryTotal()":"a226ba4e"},"id":19}