{"abi":[{"type":"constructor","inputs":[{"name":"_architect","type":"address","internalType":"address"},{"name":"_treasury","type":"address","internalType":"address"}],"stateMutability":"nonpayable"},{"type":"function","name":"BASE_PRICE","inputs":[],"outputs":[{"name":"","type":"uint256","internalType":"uint256"}],"stateMutability":"view"},{"type":"function","name":"CLIFF_DURATION","inputs":[],"outputs":[{"name":"","type":"uint256","internalType":"uint256"}],"stateMutability":"view"},{"type":"function","name":"COOLING_RATE","inputs":[],"outputs":[{"name":"","type":"uint256","internalType":"uint256"}],"stateMutability":"view"},{"type":"function","name":"DISCOVERY_RATE","inputs":[],"outputs":[{"name":"","type":"uint256","internalType":"uint256"}],"stateMutability":"view"},{"type":"function","name":"GENESIS_RECOVERY_BPS","inputs":[],"outputs":[{"name":"","type":"uint16","internalType":"uint16"}],"stateMutability":"view"},{"type":"function","name":"GENESIS_RECOVERY_DURATION","inputs":[],"outputs":[{"name":"","type":"uint256","internalType":"uint256"}],"stateMutability":"view"},{"type":"function","name":"MAX_SUPPLY","inputs":[],"outputs":[{"name":"","type":"uint256","internalType":"uint256"}],"stateMutability":"view"},{"type":"function","name":"MILESTONE_BURN_BPS","inputs":[],"outputs":[{"name":"","type":"uint16","internalType":"uint16"}],"stateMutability":"view"},{"type":"function","name":"MINT_BURN_BPS","inputs":[],"outputs":[{"name":"","type":"uint16","internalType":"uint16"}],"stateMutability":"view"},{"type":"function","name":"PHASE_SHIFT_DAYS","inputs":[],"outputs":[{"name":"","type":"uint256","internalType":"uint256"}],"stateMutability":"view"},{"type":"function","name":"VESTING_DURATION","inputs":[],"outputs":[{"name":"","type":"uint256","internalType":"uint256"}],"stateMutability":"view"},{"type":"function","name":"allowance","inputs":[{"name":"","type":"address","internalType":"address"},{"name":"","type":"address","internalType":"address"}],"outputs":[{"name":"","type":"uint256","internalType":"uint256"}],"stateMutability":"view"},{"type":"function","name":"approve","inputs":[{"name":"spender","type":"address","internalType":"address"},{"name":"amount","type":"uint256","internalType":"uint256"}],"outputs":[{"name":"","type":"bool","internalType":"bool"}],"stateMutability":"nonpayable"},{"type":"function","name":"architect","inputs":[],"outputs":[{"name":"","type":"address","internalType":"address"}],"stateMutability":"view"},{"type":"function","name":"architectAllocation","inputs":[],"outputs":[{"name":"","type":"uint256","internalType":"uint256"}],"stateMutability":"view"},{"type":"function","name":"architectClaimed","inputs":[],"outputs":[{"name":"","type":"uint256","internalType":"uint256"}],"stateMutability":"view"},{"type":"function","name":"balanceOf","inputs":[{"name":"","type":"address","internalType":"address"}],"outputs":[{"name":"","type":"uint256","internalType":"uint256"}],"stateMutability":"view"},{"type":"function","name":"canDelegate","inputs":[{"name":"wallet","type":"address","internalType":"address"}],"outputs":[{"name":"","type":"bool","internalType":"bool"}],"stateMutability":"view"},{"type":"function","name":"circulatingSupply","inputs":[],"outputs":[{"name":"","type":"uint256","internalType":"uint256"}],"stateMutability":"view"},{"type":"function","name":"claimVested","inputs":[],"outputs":[],"stateMutability":"nonpayable"},{"type":"function","name":"decimals","inputs":[],"outputs":[{"name":"","type":"uint8","internalType":"uint8"}],"stateMutability":"view"},{"type":"function","name":"developerWallet","inputs":[],"outputs":[{"name":"","type":"address","internalType":"address"}],"stateMutability":"view"},{"type":"function","name":"effectiveMaxSupply","inputs":[],"outputs":[{"name":"","type":"uint256","internalType":"uint256"}],"stateMutability":"view"},{"type":"function","name":"emergencyAdmin","inputs":[],"outputs":[{"name":"","type":"address","internalType":"address"}],"stateMutability":"view"},{"type":"function","name":"escrowCore","inputs":[],"outputs":[{"name":"","type":"address","internalType":"address"}],"stateMutability":"view"},{"type":"function","name":"executeMilestoneBurn","inputs":[],"outputs":[],"stateMutability":"nonpayable"},{"type":"function","name":"genesisRecoveryPaid","inputs":[],"outputs":[{"name":"","type":"uint256","internalType":"uint256"}],"stateMutability":"view"},{"type":"function","name":"getVRGDACost","inputs":[{"name":"amount","type":"uint256","internalType":"uint256"}],"outputs":[{"name":"","type":"uint256","internalType":"uint256"}],"stateMutability":"view"},{"type":"function","name":"getVRGDAPrice","inputs":[],"outputs":[{"name":"","type":"uint256","internalType":"uint256"}],"stateMutability":"view"},{"type":"function","name":"haltVRGDA","inputs":[],"outputs":[],"stateMutability":"nonpayable"},{"type":"function","name":"isLaborWallet","inputs":[{"name":"","type":"address","internalType":"address"}],"outputs":[{"name":"","type":"bool","internalType":"bool"}],"stateMutability":"view"},{"type":"function","name":"milestoneBurnAmount","inputs":[],"outputs":[{"name":"","type":"uint256","internalType":"uint256"}],"stateMutability":"view"},{"type":"function","name":"milestoneBurnExecuted","inputs":[],"outputs":[{"name":"","type":"bool","internalType":"bool"}],"stateMutability":"view"},{"type":"function","name":"name","inputs":[],"outputs":[{"name":"","type":"string","internalType":"string"}],"stateMutability":"view"},{"type":"function","name":"owner","inputs":[],"outputs":[{"name":"","type":"address","internalType":"address"}],"stateMutability":"view"},{"type":"function","name":"purchaseVRGDA","inputs":[{"name":"amount","type":"uint256","internalType":"uint256"},{"name":"maxPrice","type":"uint256","internalType":"uint256"},{"name":"usdc","type":"address","internalType":"address"}],"outputs":[],"stateMutability":"nonpayable"},{"type":"function","name":"registerLaborWallet","inputs":[{"name":"wallet","type":"address","internalType":"address"}],"outputs":[],"stateMutability":"nonpayable"},{"type":"function","name":"resumeVRGDA","inputs":[],"outputs":[],"stateMutability":"nonpayable"},{"type":"function","name":"setEmergencyAdmin","inputs":[{"name":"_emergencyAdmin","type":"address","internalType":"address"}],"outputs":[],"stateMutability":"nonpayable"},{"type":"function","name":"setEscrowCore","inputs":[{"name":"_escrowCore","type":"address","internalType":"address"}],"outputs":[],"stateMutability":"nonpayable"},{"type":"function","name":"setTreasury","inputs":[{"name":"_treasury","type":"address","internalType":"address"}],"outputs":[],"stateMutability":"nonpayable"},{"type":"function","name":"symbol","inputs":[],"outputs":[{"name":"","type":"string","internalType":"string"}],"stateMutability":"view"},{"type":"function","name":"totalBurned","inputs":[],"outputs":[{"name":"","type":"uint256","internalType":"uint256"}],"stateMutability":"view"},{"type":"function","name":"totalSupply","inputs":[],"outputs":[{"name":"","type":"uint256","internalType":"uint256"}],"stateMutability":"view"},{"type":"function","name":"transfer","inputs":[{"name":"to","type":"address","internalType":"address"},{"name":"amount","type":"uint256","internalType":"uint256"}],"outputs":[{"name":"","type":"bool","internalType":"bool"}],"stateMutability":"nonpayable"},{"type":"function","name":"transferFrom","inputs":[{"name":"from","type":"address","internalType":"address"},{"name":"to","type":"address","internalType":"address"},{"name":"amount","type":"uint256","internalType":"uint256"}],"outputs":[{"name":"","type":"bool","internalType":"bool"}],"stateMutability":"nonpayable"},{"type":"function","name":"transferOwnership","inputs":[{"name":"newOwner","type":"address","internalType":"address"}],"outputs":[],"stateMutability":"nonpayable"},{"type":"function","name":"treasury","inputs":[],"outputs":[{"name":"","type":"address","internalType":"address"}],"stateMutability":"view"},{"type":"function","name":"vestedAmount","inputs":[],"outputs":[{"name":"","type":"uint256","internalType":"uint256"}],"stateMutability":"view"},{"type":"function","name":"vestingStart","inputs":[],"outputs":[{"name":"","type":"uint256","internalType":"uint256"}],"stateMutability":"view"},{"type":"function","name":"vrgdaHalted","inputs":[],"outputs":[{"name":"","type":"bool","internalType":"bool"}],"stateMutability":"view"},{"type":"function","name":"vrgdaSold","inputs":[],"outputs":[{"name":"","type":"uint256","internalType":"uint256"}],"stateMutability":"view"},{"type":"function","name":"vrgdaStartTime","inputs":[],"outputs":[{"name":"","type":"uint256","internalType":"uint256"}],"stateMutability":"view"},{"type":"function","name":"vrgdaTreasuryTotal","inputs":[],"outputs":[{"name":"","type":"uint256","internalType":"uint256"}],"stateMutability":"view"},{"type":"event","name":"Approval","inputs":[{"name":"owner","type":"address","indexed":true,"internalType":"address"},{"name":"spender","type":"address","indexed":true,"internalType":"address"},{"name":"value","type":"uint256","indexed":false,"internalType":"uint256"}],"anonymous":false},{"type":"event","name":"ArchitectClaim","inputs":[{"name":"amount","type":"uint256","indexed":false,"internalType":"uint256"},{"name":"totalClaimed","type":"uint256","indexed":false,"internalType":"uint256"}],"anonymous":false},{"type":"event","name":"GenesisRecoverySplit","inputs":[{"name":"developerShare","type":"uint256","indexed":false,"internalType":"uint256"},{"name":"treasuryShare","type":"uint256","indexed":false,"internalType":"uint256"}],"anonymous":false},{"type":"event","name":"LaborWalletRegistered","inputs":[{"name":"wallet","type":"address","indexed":true,"internalType":"address"}],"anonymous":false},{"type":"event","name":"MilestoneBurn","inputs":[{"name":"amount","type":"uint256","indexed":false,"internalType":"uint256"},{"name":"remainingArchitectAllocation","type":"uint256","indexed":false,"internalType":"uint256"}],"anonymous":false},{"type":"event","name":"MintBurn","inputs":[{"name":"amount","type":"uint256","indexed":false,"internalType":"uint256"}],"anonymous":false},{"type":"event","name":"TokensBurned","inputs":[{"name":"from","type":"address","indexed":true,"internalType":"address"},{"name":"amount","type":"uint256","indexed":false,"internalType":"uint256"}],"anonymous":false},{"type":"event","name":"Transfer","inputs":[{"name":"from","type":"address","indexed":true,"internalType":"address"},{"name":"to","type":"address","indexed":true,"internalType":"address"},{"name":"value","type":"uint256","indexed":false,"internalType":"uint256"}],"anonymous":false},{"type":"event","name":"VRGDAHalted","inputs":[],"anonymous":false},{"type":"event","name":"VRGDAPurchase","inputs":[{"name":"buyer","type":"address","indexed":true,"internalType":"address"},{"name":"amountMinted","type":"uint256","indexed":false,"internalType":"uint256"},{"name":"amountBurned","type":"uint256","indexed":false,"internalType":"uint256"},{"name":"price","type":"uint256","indexed":false,"internalType":"uint256"}],"anonymous":false},{"type":"event","name":"VRGDAResumed","inputs":[],"anonymous":false}],"bytecode":{"object":"0x610100346200020b5762001eed90601f38839003908101601f19168201906001600160401b038211838310176200020f57808391604095869485528339810103126200020b57620000508162000223565b9062000060602080920162000223565b6001600160a01b0390838216151580620001ff575b15620001bb5760018060a01b0319933385600e541617600e558060a05260e052168092600c541617600c554260c052426007556a52b7d2dcc80cd2e4000000806080525f54818101809111620001a7575f55305f5260018252835f20805490828201809211620001a7575583519081527fddf252ad1be2c89b69c2b068fc378daa952ba7f163c4a11628f55a4df523b3ef905f82843093a35f54916a7c13bc4b2c133c5600000092838101809111620001a7575f55835f5260018152845f20928354818101809111620001a7575f94558551908152a351611cb49081620002398239608051818181610475015281816108fe0152818161130d0152611809015260a0518181816104eb01526108af015260c051818181610bea01526117cb015260e051818181610dc501526111d80152f35b634e487b7160e01b5f52601160045260245ffd5b845162461bcd60e51b815260048101849052601760248201527f4175746f546f6b656e3a207a65726f20616464726573730000000000000000006044820152606490fd5b50818116151562000075565b5f80fd5b634e487b7160e01b5f52604160045260245ffd5b51906001600160a01b03821682036200020b5756fe60806040818152600480361015610014575f80fd5b5f3560e01c92836305f349f5146114f55750826306fdde03146114aa5782630779b292146112dd578263095ea7b31461126f57826310907ab21461122457826318160ddd14611207578263185870f9146111c457826319eb652414610cd157826323b872dd14610c0d578263254800d414610bd357826327ec02e614610baf5782632bba60f114610b73578263307823c314610b55578263313ce56714610b3a57826331f7249714610b1c57826332cb6b0c14610af657826335da339414610aab57826344b1231f14610a8f5782634cfc4d3014610a7157826353c92d5514610a5357826361d027b314610a2b57826370905dce14610a0357826370a08231146109cc57826370bab9561461095a5782638da5cb5b146109325782639358928b146108de578263936a9ec21461089b57826395d1b0621461087d57826395d89b4114610840578263995d167f146107f75782639c476683146107dc578263a130ffc1146107be578263a226ba4e146107a0578263a59b643714610785578263a9059cbb14610755578263aba6786a146106d0578263af1aab0f146106b4578263b3daa652146103c9578263b8d10fb314610698578263bec6fed21461063e578263c666907b14610603578263d01c44cd146104d857508163d717626d146104b5578163d89135cd14610498578163d999e7e91461045f578163dd62ed3e14610417578163dd75c69f146103f5578163e4fab720146103ce578163e8637136146103c9578163f0f4426014610373578163f274be4514610351578163f2fde38b14610301578163f86325ed146102e6575063fc0c87b214610272575f80fd5b346102e2575f3660031901126102e257600e546102a490336001600160a01b03918216149081156102d4575b50611851565b60ff19600954166009557f812f722ec9d14e908d1b7a5eb31371583637a3f57ad6e1a536465d344df226965f80a1005b9050600f541633145f61029e565b5f80fd5b346102e2575f3660031901126102e257602090516107d08152f35b346102e25760203660031901126102e25761031a6115a6565b600e54906001600160a01b03906103343383851614611642565b169061034182151561189d565b6001600160a01b03191617600e55005b346102e2575f3660031901126102e25760209060ff6005541690519015158152f35b346102e25760203660031901126102e25761038c6115a6565b600e546001600160a01b0391906103a69083163314611642565b166103b281151561189d565b6001600160601b0360a01b600c541617600c555f80f35b6115d2565b346102e2575f3660031901126102e25760105490516001600160a01b039091168152602090f35b346102e2575f3660031901126102e25760209060ff6009541690519015158152f35b346102e257806003193601126102e2576020906104326115a6565b61043a6115bc565b9060018060a01b038091165f5260028452825f2091165f528252805f20549051908152f35b346102e2575f3660031901126102e257602090517f00000000000000000000000000000000000000000000000000000000000000008152f35b346102e2575f3660031901126102e2576020906003549051908152f35b346102e2575f3660031901126102e2576020905169d3c21bcecceda10000008152f35b90346102e2575f3660031901126102e2577f00000000000000000000000000000000000000000000000000000000000000006001600160a01b03811633036105c0576105226117c9565b9061052f845480936115f0565b91821561057d57827f9d420a24adefb1ed3bb775d4d509de8335c5cdd15dbcbade567d32ec37c985f495926105678261056f94611685565b845530611a32565b5482519182526020820152a1005b835162461bcd60e51b8152602081870152601b60248201527f4175746f546f6b656e3a206e6f7468696e6720746f20636c61696d00000000006044820152606490fd5b815162461bcd60e51b8152602081850152601860248201527f4175746f546f6b656e3a206e6f742061726368697465637400000000000000006044820152606490fd5b50346102e25760203660031901126102e2576020906001600160a01b036106286115a6565b165f52600d825260ff815f205416159051908152f35b50346102e2575f3660031901126102e25760209062015180610662600754426115f0565b048015610690575b8061068061067a61068993611b08565b91611b7f565b90600854611ba3565b9051908152f35b50600161066a565b50346102e2575f3660031901126102e257602090516107d08152f35b50346102e2575f3660031901126102e257602090516113888152f35b50346102e25760203660031901126102e2576106ea6115a6565b6010546001600160a01b039190821633148015610748575b61070b90611851565b1690815f52600d6020525f20600160ff198254161790557f1b29ac0ed4778a728bdfda10b2a20c3a56778dfc0d5cb6976a16d55f4de8f74f5f80a2005b50600e5482163314610702565b50346102e257806003193601126102e25760209061077e6107746115a6565b6024359033611a32565b5160018152f35b50346102e2575f3660031901126102e25760209051605a8152f35b50346102e2575f3660031901126102e257602090600b549051908152f35b50346102e2575f3660031901126102e2576020906008549051908152f35b50346102e2575f3660031901126102e2576020905160648152f35b90346102e2575f3660031901126102e257600354906b033b2e3c9fd0803ce800000091820391821161082d576020925051908152f35b601183634e487b7160e01b5f525260245ffd5b346102e2575f3660031901126102e257816108799251916108608361150d565b8252634155544f60e01b6020830152519182918261155f565b0390f35b50346102e2575f3660031901126102e2576020906006549051908152f35b50346102e2575f3660031901126102e257517f00000000000000000000000000000000000000000000000000000000000000006001600160a01b03168152602090f35b90346102e2575f3660031901126102e25761068961092b610922602094547f00000000000000000000000000000000000000000000000000000000000000006115f0565b600654906115f0565b5f546115f0565b50346102e2575f3660031901126102e257600e5490516001600160a01b039091168152602090f35b346102e2575f3660031901126102e257600e5461098b90336001600160a01b03918216149081156109be5750611851565b600160ff1960095416176009557fbd640f98d44ba14b99c13e650bdac9f238adb6b8441819a474d8aad120405dbc5f80a1005b9050600f541633148261029e565b50346102e25760203660031901126102e2576020906001600160a01b036109f16115a6565b165f5260018252805f20549051908152f35b50346102e2575f3660031901126102e257600f5490516001600160a01b039091168152602090f35b50346102e2575f3660031901126102e257600c5490516001600160a01b039091168152602090f35b50346102e2575f3660031901126102e257602090600a549051908152f35b50346102e2575f3660031901126102e25760209051630784ce008152f35b50346102e2575f3660031901126102e2576020906106896117c9565b346102e25760203660031901126102e257610ac46115a6565b600e546001600160a01b039190610ade9083163314611642565b166001600160601b0360a01b600f541617600f555f80f35b50346102e2575f3660031901126102e257602090516b033b2e3c9fd0803ce80000008152f35b90346102e25760203660031901126102e257610689602092356116aa565b50346102e2575f3660031901126102e2576020905160128152f35b50346102e2575f3660031901126102e2576020906007549051908152f35b50346102e25760203660031901126102e2576020906001600160a01b03610b986115a6565b165f52600d825260ff815f20541690519015158152f35b50346102e2575f3660031901126102e2576020905169152d02c7e14af68000008152f35b50346102e2575f3660031901126102e257602090517f00000000000000000000000000000000000000000000000000000000000000008152f35b90346102e25760603660031901126102e257610c276115a6565b90610c306115bc565b6044359060018060a01b03841693845f5260209460028652845f20335f52865283855f205410610c845761077e949596505f5260028652845f20335f528652845f20610c7d8482546115f0565b9055611a32565b845162461bcd60e51b8152808801879052602160248201527f4175746f546f6b656e3a20696e73756666696369656e7420616c6c6f77616e636044820152606560f81b6064820152608490fd5b346102e25760603660031901126102e257803591604491602483356001600160a01b03818116918290036102e25760ff60095416611183578615611149576b033b2e3c9fd0803ce8000000610d27885f54611685565b1161110857610d35876116aa565b9182156110d057670de0b6b3a76400008302670de0b6b3a763ffff1984820401610fd85788610d6391611624565b968435881161107d57506007546301e133808101809111610fd85783904211610fea57506107d083026107cf1984820401610fd857612710610da7910480946115f0565b86516323b872dd60e01b808252338883019081526001600160a01b037f0000000000000000000000000000000000000000000000000000000000000000166020828101919091526040820188905293959394919391929085908290819060600103815f875af18015610fce575f8795938795938c93610fb1575b50600c548d5195865233938601938452166001600160a01b03166020830152604082019590955291938492839190829060600103925af18015610fa757918793917f390794a26c90c6cdfffeac201a53cd1df570eb748060ffed2babe5895115920f9593610f7a575b50610e9783600a54611685565b600a55610ea682600b54611685565b600b558351928352820152a15b6064850291858304606403610f695750506127109004610eef610ed682866115f0565b94610ee186336119d6565b82610f27575b600854611685565b600855815193845260208401528201527f6795985e1db62f435a767eff3c6255ce68108243ae52665968b4352b6115bd1c60603392a2005b610f3183306119d6565b610f3b83306118e9565b7fa472663f50a5c6a412a87a1037600d2cbaa336dc24664072d485cfa07d2c36e560208551858152a1610ee7565b601190634e487b7160e01b5f52525ffd5b610f9990823d8411610fa0575b610f91818361153d565b810190611692565b508a610e8a565b503d610f87565b87513d5f823e3d90fd5b610fc790873d8911610fa057610f91818361153d565b508f610e21565b8a513d5f823e3d90fd5b84601187634e487b7160e01b5f52525ffd5b60209161102e93600c54165f89518096819582946323b872dd60e01b8452338d850160409194939294606082019560018060a01b0380921683521660208201520152565b03925af18015611073579061104c9291611054575b50600b54611685565b600b55610eb3565b61106c9060203d602011610fa057610f91818361153d565b5087611043565b85513d5f823e3d90fd5b857f4175746f546f6b656e3a2061766572616765207072696365206578636565647360849260298860208c519562461bcd60e51b875286015284015282015268206d6178507269636560b81b6064820152fd5b855162461bcd60e51b815260208187015260148186015273105d5d1bd51bdad95b8e881e995c9bc818dbdcdd60621b81890152606490fd5b845162461bcd60e51b8152602081860152601d818501527f4175746f546f6b656e3a206d617820737570706c79207265616368656400000081880152606490fd5b845162461bcd60e51b815260208186015260168185015275105d5d1bd51bdad95b8e881e995c9bc8185b5bdd5b9d60521b81880152606490fd5b845162461bcd60e51b81526020818601526017818501527f4175746f546f6b656e3a2056524744412068616c74656400000000000000000081880152606490fd5b50346102e2575f3660031901126102e257517f00000000000000000000000000000000000000000000000000000000000000006001600160a01b03168152602090f35b50346102e2575f3660031901126102e2576020905f549051908152f35b346102e25760203660031901126102e25761123d6115a6565b600e546001600160a01b0391906112579083163314611642565b166001600160601b0360a01b60105416176010555f80f35b50346102e257806003193601126102e25760209061128b6115a6565b602435335f5260028452825f209160018060a01b031691825f52845280835f205582519081527f8c5be1e5ebec7d5bd14f71427d1e84f3dd0314c0f7b2291e5b200ac8c7c3b925843392a35160018152f35b90346102e2575f3660031901126102e257600c546001600160a01b0316330361145b5760055460ff811661140a577f000000000000000000000000000000000000000000000000000000000000000061133d6113376117c9565b826115f0565b80156113c757611388808202918204036113b457916113a26113a7927fb288e427db87cb6d0c582ee9227bfede3f7cea3d43093f3d38e95ca685786ce8966127106001960495869460ff1916176005558360065561139b84306118e9565b54906115f0565b6115f0565b82519182526020820152a1005b601185634e487b7160e01b5f525260245ffd5b835162461bcd60e51b8152602081870152601d60248201527f4175746f546f6b656e3a206e6f20756e76657374656420746f6b656e730000006044820152606490fd5b815162461bcd60e51b8152602081850152602560248201527f4175746f546f6b656e3a206d696c6573746f6e6520616c72656164792065786560448201526418dd5d195960da1b6064820152608490fd5b906020608492519162461bcd60e51b83528201526024808201527f4175746f546f6b656e3a206f6e6c792074726561737572792063616e2074726960448201526333b3b2b960e11b6064820152fd5b50346102e2575f3660031901126102e2578051610879916114ca8261150d565b6014825273105d5d1bdc1bda595d1a58c8141c9bdd1bd8dbdb60621b6020830152519182918261155f565b346102e2575f3660031901126102e257602091548152f35b6040810190811067ffffffffffffffff82111761152957604052565b634e487b7160e01b5f52604160045260245ffd5b90601f8019910116810190811067ffffffffffffffff82111761152957604052565b602080825282518183018190529093925f5b82811061159257505060409293505f838284010152601f8019910116010190565b818101860151848201604001528501611571565b600435906001600160a01b03821682036102e257565b602435906001600160a01b03821682036102e257565b346102e2575f3660031901126102e25760206040516301e133808152f35b919082039182116115fd57565b634e487b7160e01b5f52601160045260245ffd5b818102929181159184041417156115fd57565b811561162e570490565b634e487b7160e01b5f52601260045260245ffd5b1561164957565b60405162461bcd60e51b815260206004820152601460248201527320baba37aa37b5b2b71d103737ba1037bbb732b960611b6044820152606490fd5b919082018092116115fd57565b908160209103126102e2575180151581036102e25790565b80156117c457620151806116c0600754426115f0565b049081156117bb575b6116db6116d583611b08565b92611b7f565b600854906116e98383611685565b918483116117285791611718828661171261171e95671bc16d674ec80000996117249998611ba3565b93611ba3565b90611685565b90611611565b0490565b8481106117505791611718828661171261171e95671bc16d674ec80000996117249998611ba3565b92506117769061176084866115f0565b94611712828261177081886115f0565b97611ba3565b916107d0938483018093116115fd57611799671bc16d674ec80000938492611611565b049284018094116115fd576117b8936117b191611611565b0490611685565b90565b600191506116c9565b505f90565b7f00000000000000000000000000000000000000000000000000000000000000006301e1338081018082116115fd5742106117c45761183461182d6006547f00000000000000000000000000000000000000000000000000000000000000006115f0565b91426115f0565b630784ce00908181101561184c576117249192611611565b505090565b1561185857565b60405162461bcd60e51b815260206004820152601960248201527f4175746f546f6b656e3a206e6f7420617574686f72697a6564000000000000006044820152606490fd5b156118a457565b60405162461bcd60e51b815260206004820152601760248201527f4175746f546f6b656e3a207a65726f20616464726573730000000000000000006044820152606490fd5b60018060a01b031690815f5260016020528060405f2054106119915760207ffd38818f5291bf0bb3a2a48aadc06ba8757865d1dabd804585338aab3009dcb691835f526001825260405f2061193f8282546115f0565b905561194c815f546115f0565b5f5561195a81600354611685565b6003555f847fddf252ad1be2c89b69c2b068fc378daa952ba7f163c4a11628f55a4df523b3ef84604051858152a3604051908152a2565b60405162461bcd60e51b815260206004820152601f60248201527f4175746f546f6b656e3a206275726e20657863656564732062616c616e6365006044820152606490fd5b7fddf252ad1be2c89b69c2b068fc378daa952ba7f163c4a11628f55a4df523b3ef60205f92611a06858554611685565b845560018060a01b0316938484526001825260408420611a27828254611685565b9055604051908152a3565b6001600160a01b039081169182151580611afd575b611a509061189d565b825f5260016020528360405f205410611ab8577fddf252ad1be2c89b69c2b068fc378daa952ba7f163c4a11628f55a4df523b3ef91602091845f526001835260405f20611a9e8782546115f0565b90551693845f526001825260405f20611a27828254611685565b60405162461bcd60e51b815260206004820152601f60248201527f4175746f546f6b656e3a20696e73756666696369656e742062616c616e6365006044820152606490fd5b508082161515611a47565b8015611b77575b605a8111611b365769d3c21bcecceda1000000908181029181830414901517156115fd5790565b60591981019081116115fd5769152d02c7e14af6800000908181029181830414901517156115fd576a4a723dc6b40b8a9a0000009081018091116115fd5790565b506001611b0f565b605a1015611b955769152d02c7e14af680000090565b69d3c21bcecceda100000090565b9091828211611c1a5750611bb790826115f0565b6107d091828202918083048414811517156115fd57620186a00291808304603214901517156115fd576064810290808204606414901517156115fd57611bfc91611624565b6103e880821015611c14575081039081116115fd5790565b91505090565b91611c24916115f0565b670de0b6b3a764000091828202918083048414901517156115fd57611c4891611624565b676f05b59d3b200000808211611c76575b5081018082116115fd576107d090808202918204036115fd570490565b90505f611c5956fea2646970667358221220c26e01ad3100b6537be63eb3dd0122418cff5f727d52abdcb698a41c91e28bfe64736f6c63430008180033","linkReferences":{}},"methodIdentifiers":{"BASE_PRICE()":"f86325ed","CLIFF_DURATION()":"b3daa652","COOLING_RATE()":"27ec02e6","DISCOVERY_RATE()":"d717626d","GENESIS_RECOVERY_BPS()":"b8d10fb3","GENESIS_RECOVERY_DURATION()":"e8637136","MAX_SUPPLY()":"32cb6b0c","MILESTONE_BURN_BPS()":"af1aab0f","MINT_BURN_BPS()":"9c476683","PHASE_SHIFT_DAYS()":"a59b6437","VESTING_DURATION()":"4cfc4d30","allowance(address,address)":"dd62ed3e","approve(address,uint256)":"095ea7b3","architect()":"936a9ec2","architectAllocation()":"d999e7e9","architectClaimed()":"05f349f5","balanceOf(address)":"70a08231","canDelegate(address)":"c666907b","circulatingSupply()":"9358928b","claimVested()":"d01c44cd","decimals()":"313ce567","developerWallet()":"185870f9","effectiveMaxSupply()":"995d167f","emergencyAdmin()":"70905dce","escrowCore()":"e4fab720","executeMilestoneBurn()":"0779b292","genesisRecoveryPaid()":"53c92d55","getVRGDACost(uint256)":"31f72497","getVRGDAPrice()":"bec6fed2","haltVRGDA()":"70bab956","isLaborWallet(address)":"2bba60f1","milestoneBurnAmount()":"95d1b062","milestoneBurnExecuted()":"f274be45","name()":"06fdde03","owner()":"8da5cb5b","purchaseVRGDA(uint256,uint256,address)":"19eb6524","registerLaborWallet(address)":"aba6786a","resumeVRGDA()":"fc0c87b2","setEmergencyAdmin(address)":"35da3394","setEscrowCore(address)":"10907ab2","setTreasury(address)":"f0f44260","symbol()":"95d89b41","totalBurned()":"d89135cd","totalSupply()":"18160ddd","transfer(address,uint256)":"a9059cbb","transferFrom(address,address,uint256)":"23b872dd","transferOwnership(address)":"f2fde38b","treasury()":"61d027b3","vestedAmount()":"44b1231f","vestingStart()":"254800d4","vrgdaHalted()":"dd75c69f","vrgdaSold()":"a130ffc1","vrgdaStartTime()":"307823c3","vrgdaTreasuryTotal()":"a226ba4e"},"id":19}