{"abi":[{"type":"constructor","inputs":[{"name":"_architect","type":"address","internalType":"address"},{"name":"_treasury","type":"address","internalType":"address"}],"stateMutability":"nonpayable"},{"type":"function","name":"BASE_PRICE","inputs":[],"outputs":[{"name":"","type":"uint256","internalType":"uint256"}],"stateMutability":"view"},{"type":"function","name":"CLIFF_DURATION","inputs":[],"outputs":[{"name":"","type":"uint256","internalType":"uint256"}],"stateMutability":"view"},{"type":"function","name":"DECAY_CONSTANT","inputs":[],"outputs":[{"name":"","type":"int256","internalType":"int256"}],"stateMutability":"view"},{"type":"function","name":"GENESIS_CAPEX_BPS","inputs":[],"outputs":[{"name":"","type":"uint16","internalType":"uint16"}],"stateMutability":"view"},{"type":"function","name":"GENESIS_CAPEX_DURATION","inputs":[],"outputs":[{"name":"","type":"uint256","internalType":"uint256"}],"stateMutability":"view"},{"type":"function","name":"MAX_SUPPLY","inputs":[],"outputs":[{"name":"","type":"uint256","internalType":"uint256"}],"stateMutability":"view"},{"type":"function","name":"TARGET_PER_DAY","inputs":[],"outputs":[{"name":"","type":"uint256","internalType":"uint256"}],"stateMutability":"view"},{"type":"function","name":"VESTING_DURATION","inputs":[],"outputs":[{"name":"","type":"uint256","internalType":"uint256"}],"stateMutability":"view"},{"type":"function","name":"allowance","inputs":[{"name":"","type":"address","internalType":"address"},{"name":"","type":"address","internalType":"address"}],"outputs":[{"name":"","type":"uint256","internalType":"uint256"}],"stateMutability":"view"},{"type":"function","name":"approve","inputs":[{"name":"spender","type":"address","internalType":"address"},{"name":"amount","type":"uint256","internalType":"uint256"}],"outputs":[{"name":"","type":"bool","internalType":"bool"}],"stateMutability":"nonpayable"},{"type":"function","name":"architect","inputs":[],"outputs":[{"name":"","type":"address","internalType":"address"}],"stateMutability":"view"},{"type":"function","name":"architectAllocation","inputs":[],"outputs":[{"name":"","type":"uint256","internalType":"uint256"}],"stateMutability":"view"},{"type":"function","name":"architectClaimed","inputs":[],"outputs":[{"name":"","type":"uint256","internalType":"uint256"}],"stateMutability":"view"},{"type":"function","name":"balanceOf","inputs":[{"name":"","type":"address","internalType":"address"}],"outputs":[{"name":"","type":"uint256","internalType":"uint256"}],"stateMutability":"view"},{"type":"function","name":"canDelegate","inputs":[{"name":"wallet","type":"address","internalType":"address"}],"outputs":[{"name":"","type":"bool","internalType":"bool"}],"stateMutability":"view"},{"type":"function","name":"claimVested","inputs":[],"outputs":[],"stateMutability":"nonpayable"},{"type":"function","name":"decimals","inputs":[],"outputs":[{"name":"","type":"uint8","internalType":"uint8"}],"stateMutability":"view"},{"type":"function","name":"developerWallet","inputs":[],"outputs":[{"name":"","type":"address","internalType":"address"}],"stateMutability":"view"},{"type":"function","name":"escrowCore","inputs":[],"outputs":[{"name":"","type":"address","internalType":"address"}],"stateMutability":"view"},{"type":"function","name":"genesisCapExPaid","inputs":[],"outputs":[{"name":"","type":"uint256","internalType":"uint256"}],"stateMutability":"view"},{"type":"function","name":"getVRGDAPrice","inputs":[],"outputs":[{"name":"","type":"uint256","internalType":"uint256"}],"stateMutability":"view"},{"type":"function","name":"haltVRGDA","inputs":[],"outputs":[],"stateMutability":"nonpayable"},{"type":"function","name":"isLaborWallet","inputs":[{"name":"","type":"address","internalType":"address"}],"outputs":[{"name":"","type":"bool","internalType":"bool"}],"stateMutability":"view"},{"type":"function","name":"name","inputs":[],"outputs":[{"name":"","type":"string","internalType":"string"}],"stateMutability":"view"},{"type":"function","name":"owner","inputs":[],"outputs":[{"name":"","type":"address","internalType":"address"}],"stateMutability":"view"},{"type":"function","name":"purchaseVRGDA","inputs":[{"name":"amount","type":"uint256","internalType":"uint256"},{"name":"maxPrice","type":"uint256","internalType":"uint256"},{"name":"usdc","type":"address","internalType":"address"}],"outputs":[],"stateMutability":"nonpayable"},{"type":"function","name":"registerLaborWallet","inputs":[{"name":"wallet","type":"address","internalType":"address"}],"outputs":[],"stateMutability":"nonpayable"},{"type":"function","name":"resumeVRGDA","inputs":[],"outputs":[],"stateMutability":"nonpayable"},{"type":"function","name":"setEscrowCore","inputs":[{"name":"_escrowCore","type":"address","internalType":"address"}],"outputs":[],"stateMutability":"nonpayable"},{"type":"function","name":"symbol","inputs":[],"outputs":[{"name":"","type":"string","internalType":"string"}],"stateMutability":"view"},{"type":"function","name":"totalSupply","inputs":[],"outputs":[{"name":"","type":"uint256","internalType":"uint256"}],"stateMutability":"view"},{"type":"function","name":"transfer","inputs":[{"name":"to","type":"address","internalType":"address"},{"name":"amount","type":"uint256","internalType":"uint256"}],"outputs":[{"name":"","type":"bool","internalType":"bool"}],"stateMutability":"nonpayable"},{"type":"function","name":"transferFrom","inputs":[{"name":"from","type":"address","internalType":"address"},{"name":"to","type":"address","internalType":"address"},{"name":"amount","type":"uint256","internalType":"uint256"}],"outputs":[{"name":"","type":"bool","internalType":"bool"}],"stateMutability":"nonpayable"},{"type":"function","name":"transferOwnership","inputs":[{"name":"newOwner","type":"address","internalType":"address"}],"outputs":[],"stateMutability":"nonpayable"},{"type":"function","name":"vestedAmount","inputs":[],"outputs":[{"name":"","type":"uint256","internalType":"uint256"}],"stateMutability":"view"},{"type":"function","name":"vestingStart","inputs":[],"outputs":[{"name":"","type":"uint256","internalType":"uint256"}],"stateMutability":"view"},{"type":"function","name":"vrgdaHalted","inputs":[],"outputs":[{"name":"","type":"bool","internalType":"bool"}],"stateMutability":"view"},{"type":"function","name":"vrgdaSold","inputs":[],"outputs":[{"name":"","type":"uint256","internalType":"uint256"}],"stateMutability":"view"},{"type":"function","name":"vrgdaStartTime","inputs":[],"outputs":[{"name":"","type":"uint256","internalType":"uint256"}],"stateMutability":"view"},{"type":"function","name":"vrgdaTreasuryTotal","inputs":[],"outputs":[{"name":"","type":"uint256","internalType":"uint256"}],"stateMutability":"view"},{"type":"event","name":"Approval","inputs":[{"name":"owner","type":"address","indexed":true,"internalType":"address"},{"name":"spender","type":"address","indexed":true,"internalType":"address"},{"name":"value","type":"uint256","indexed":false,"internalType":"uint256"}],"anonymous":false},{"type":"event","name":"ArchitectClaim","inputs":[{"name":"amount","type":"uint256","indexed":false,"internalType":"uint256"},{"name":"totalClaimed","type":"uint256","indexed":false,"internalType":"uint256"}],"anonymous":false},{"type":"event","name":"GenesisCapExSplit","inputs":[{"name":"developerShare","type":"uint256","indexed":false,"internalType":"uint256"},{"name":"treasuryShare","type":"uint256","indexed":false,"internalType":"uint256"}],"anonymous":false},{"type":"event","name":"LaborWalletRegistered","inputs":[{"name":"wallet","type":"address","indexed":true,"internalType":"address"}],"anonymous":false},{"type":"event","name":"Transfer","inputs":[{"name":"from","type":"address","indexed":true,"internalType":"address"},{"name":"to","type":"address","indexed":true,"internalType":"address"},{"name":"value","type":"uint256","indexed":false,"internalType":"uint256"}],"anonymous":false},{"type":"event","name":"VRGDAHalted","inputs":[],"anonymous":false},{"type":"event","name":"VRGDAPurchase","inputs":[{"name":"buyer","type":"address","indexed":true,"internalType":"address"},{"name":"amount","type":"uint256","indexed":false,"internalType":"uint256"},{"name":"price","type":"uint256","indexed":false,"internalType":"uint256"}],"anonymous":false},{"type":"event","name":"VRGDAResumed","inputs":[],"anonymous":false}],"bytecode":{"object":"0x610100346200019b57620016aa90601f38839003908101601f19168201906001600160401b038211838310176200019f57808391604095869485528339810103126200019b576200005e60206200005683620001b3565b9201620001b3565b903360018060a01b0319600a541617600a558060a05260e0524260c052426004556a084595161401484a00000090816080525f5482810180911162000187575f55305f526001602052825f2080549083820180921162000187575582519182527fddf252ad1be2c89b69c2b068fc378daa952ba7f163c4a11628f55a4df523b3ef915f8360203093a35f54906a0422ca8b0a00a4250000009182810180911162000187575f5560018060a01b031691825f526001602052835f2080549280840180941162000187575f93602092558551908152a3516114e19081620001c98239608051818181610343015281816111ae01526111da015260a05181818161037901526106b8015260c0518181816108a5015261115d015260e051818181610a8e0152610e690152f35b634e487b7160e01b5f52601160045260245ffd5b5f80fd5b634e487b7160e01b5f52604160045260245ffd5b51906001600160a01b03821682036200019b5756fe60406080815260049081361015610014575f80fd5b5f3560e01c91826305b58c9614610fdc57826305f349f514610fbe57826306fdde0314610f73578263095ea7b314610f0557826310907ab214610eb557826318160ddd14610e98578263185870f914610e5557826319eb6524146109ae5782631e8267d71461098c57826323b872dd146108c8578263254800d41461088e57826326b47936146108705782632bba60f114610834578263307823c314610818578263313ce567146107fd57826332cb6b0c146107d857826344b1231f146107bc5782634cfc4d301461079e57826370a082311461076757826370bab9561461070f5782638da5cb5b146106e7578263936a9ec2146106a457826395d89b41146106675782639ce1666d1461064b578263a130ffc11461062d578263a226ba4e1461060f578263a9059cbb146105df578263aba6786a1461051b578263b3daa65214610516578263bec6fed2146104f3578263c666907b146104b8578263c94f9f7114610496578263d01c44cd1461036657508163d999e7e91461032d578163dd62ed3e146102e5578163dd75c69f146102c3578163e4fab7201461029c578163f2fde38b1461024c578163f86325ed14610230575063fc0c87b2146101d7575f80fd5b3461022c575f36600319011261022c576101fc60018060a01b03600a541633146110bf565b60ff19600654166006557f812f722ec9d14e908d1b7a5eb31371583637a3f57ad6e1a536465d344df226965f80a1005b5f80fd5b3461022c575f36600319011261022c5760209051620f42408152f35b3461022c57602036600319011261022c57610265611093565b600a54906001600160a01b039061027f33838516146110bf565b169061028c82151561137e565b6001600160a01b03191617600a55005b3461022c575f36600319011261022c57600b5490516001600160a01b039091168152602090f35b3461022c575f36600319011261022c5760209060ff6006541690519015158152f35b3461022c578060031936011261022c57602090610300611093565b6103086110a9565b9060018060a01b038091165f5260028452825f2091165f528252805f20549051908152f35b3461022c575f36600319011261022c57602090517f00000000000000000000000000000000000000000000000000000000000000008152f35b903461022c575f36600319011261022c577f00000000000000000000000000000000000000000000000000000000000000006001600160a01b0381163303610453576103b061115b565b906103be600354809361114e565b918215610410577f9d420a24adefb1ed3bb775d4d509de8335c5cdd15dbcbade567d32ec37c985f49450610400916103f7848093611102565b600355306113ca565b60035482519182526020820152a1005b835162461bcd60e51b8152602081870152601b60248201527f4175746f546f6b656e3a206e6f7468696e6720746f20636c61696d00000000006044820152606490fd5b815162461bcd60e51b8152602081850152601860248201527f4175746f546f6b656e3a206e6f742061726368697465637400000000000000006044820152606490fd5b503461022c575f36600319011261022c5760209051678ac7230489e800008152f35b503461022c57602036600319011261022c576020906001600160a01b036104dd611093565b165f526009825260ff815f205416159051908152f35b503461022c575f36600319011261022c5760209061050f611201565b9051908152f35b610fdc565b3461022c57602036600319011261022c57610534611093565b600b546001600160a01b0392908316331480156105d2575b1561058f57501690815f5260096020525f20600160ff198254161790557f1b29ac0ed4778a728bdfda10b2a20c3a56778dfc0d5cb6976a16d55f4de8f74f5f80a2005b606490602085519162461bcd60e51b8352820152601960248201527f4175746f546f6b656e3a206e6f7420617574686f72697a6564000000000000006044820152fd5b5082600a5416331461054c565b503461022c578060031936011261022c576020906106086105fe611093565b60243590336113ca565b5160018152f35b503461022c575f36600319011261022c576020906008549051908152f35b503461022c575f36600319011261022c576020906005549051908152f35b503461022c575f36600319011261022c57602090516107d08152f35b3461022c575f36600319011261022c57816106a092519161068783610ffa565b8252634155544f60e01b6020830152519182918261104c565b0390f35b503461022c575f36600319011261022c57517f00000000000000000000000000000000000000000000000000000000000000006001600160a01b03168152602090f35b503461022c575f36600319011261022c57600a5490516001600160a01b039091168152602090f35b3461022c575f36600319011261022c5761073460018060a01b03600a541633146110bf565b600160ff1960065416176006557fbd640f98d44ba14b99c13e650bdac9f238adb6b8441819a474d8aad120405dbc5f80a1005b503461022c57602036600319011261022c576020906001600160a01b0361078c611093565b165f5260018252805f20549051908152f35b503461022c575f36600319011261022c5760209051630784ce008152f35b503461022c575f36600319011261022c5760209061050f61115b565b503461022c575f36600319011261022c57602090516a52b7d2dcc80cd2e40000008152f35b503461022c575f36600319011261022c576020905160128152f35b903461022c575f36600319011261022c57602091549051908152f35b503461022c57602036600319011261022c576020906001600160a01b03610859611093565b165f526009825260ff815f20541690519015158152f35b503461022c575f36600319011261022c576020906007549051908152f35b503461022c575f36600319011261022c57602090517f00000000000000000000000000000000000000000000000000000000000000008152f35b903461022c57606036600319011261022c576108e2611093565b906108eb6110a9565b6044359060018060a01b03841693845f5260209460028652845f20335f52865283855f20541061093f57610608949596505f5260028652845f20335f528652845f2061093884825461114e565b90556113ca565b845162461bcd60e51b8152808801879052602160248201527f4175746f546f6b656e3a20696e73756666696369656e7420616c6c6f77616e636044820152606560f81b6064820152608490fd5b503461022c575f36600319011261022c576020905167044d575b885f00008152f35b903461022c57606036600319011261022c57602491803591906044356001600160a01b03818116929183900361022c5760ff60065416610e01576a52b7d2dcc80cd2e40000006109ff865f54611102565b11610dbf57610a0c611201565b9286358411610d7d57670de0b6b3a7640000610a288588611123565b04968715610d445783546301e133808101809111610d315788904211610c7f57506107d08802906107cf1989830401610c6d575090610a70612710610ad2949304809961114e565b86516323b872dd60e01b808252338288019081526001600160a01b037f000000000000000000000000000000000000000000000000000000000000000016602082810191909152604082018d9052939793969195929187918391829160600190565b03815f885af18015610c6357869492889694925f92610c46575b50600a548b5195865233938601938452166001600160a01b03166020830152604082019590955291938492839190829060600103925af18015610c3c579285927f740d25c75e3f358eb2bd48c7a8643122a46ec57da5fe75a3e881a280ee9433af9798927f6c8fc200439d8fc3975ece9a4aed94f32ded638c6a254455579166b9c2d0263195610c0f575b50610b8483600754611102565b600755610b9382600854611102565b6008558351928352820152a15b610bab845f54611102565b5f55335f526001602052815f20610bc3858254611102565b905581518481525f7fddf252ad1be2c89b69c2b068fc378daa952ba7f163c4a11628f55a4df523b3ef60203393a3610bfd84600554611102565b600555815193845260208401523392a2005b610c2e90823d8411610c35575b610c26818361102a565b810190611136565b5089610b77565b503d610c1c565b85513d5f823e3d90fd5b610c5c90873d8911610c3557610c26818361102a565b508d610aec565b89513d5f823e3d90fd5b634e487b7160e01b5f90815260118652fd5b600a5487516323b872dd60e01b81523396810196875294166001600160a01b0316602080870191909152604086019190915292938492915082905f90829060600103925af18015610d275794610d00917f740d25c75e3f358eb2bd48c7a8643122a46ec57da5fe75a3e881a280ee9433af9596610d08575b50600854611102565b600855610ba0565b610d209060203d602011610c3557610c26818361102a565b5086610cf7565b83513d5f823e3d90fd5b50634e487b7160e01b5f90815260118552fd5b836014606492602089519362461bcd60e51b855284015282015273105d5d1bd51bdad95b8e881e995c9bc818dbdcdd60621b6044820152fd5b845162461bcd60e51b8152602081850152601c818901527f4175746f546f6b656e3a2070726963652065786365656473206d6178000000006044820152606490fd5b835162461bcd60e51b8152602081840152601d818801527f4175746f546f6b656e3a206d617820737570706c7920726561636865640000006044820152606490fd5b835162461bcd60e51b81526020818401526029818801527f4175746f546f6b656e3a2056524744412068616c74656420286369726375697460448201526820627265616b65722960b81b6064820152608490fd5b503461022c575f36600319011261022c57517f00000000000000000000000000000000000000000000000000000000000000006001600160a01b03168152602090f35b503461022c575f36600319011261022c576020905f549051908152f35b3461022c57602036600319011261022c57610ece611093565b600a546001600160a01b039190610ee890831633146110bf565b166bffffffffffffffffffffffff60a01b600b541617600b555f80f35b503461022c578060031936011261022c57602090610f21611093565b602435335f5260028452825f209160018060a01b031691825f52845280835f205582519081527f8c5be1e5ebec7d5bd14f71427d1e84f3dd0314c0f7b2291e5b200ac8c7c3b925843392a35160018152f35b503461022c575f36600319011261022c5780516106a091610f9382610ffa565b6014825273105d5d1bdc1bda595d1a58c8141c9bdd1bd8dbdb60621b6020830152519182918261104c565b503461022c575f36600319011261022c576020906003549051908152f35b3461022c575f36600319011261022c5760206040516301e133808152f35b6040810190811067ffffffffffffffff82111761101657604052565b634e487b7160e01b5f52604160045260245ffd5b90601f8019910116810190811067ffffffffffffffff82111761101657604052565b602080825282518183018190529093925f5b82811061107f57505060409293505f838284010152601f8019910116010190565b81810186015184820160400152850161105e565b600435906001600160a01b038216820361022c57565b602435906001600160a01b038216820361022c57565b156110c657565b60405162461bcd60e51b815260206004820152601460248201527320baba37aa37b5b2b71d103737ba1037bbb732b960611b6044820152606490fd5b9190820180921161110f57565b634e487b7160e01b5f52601160045260245ffd5b8181029291811591840414171561110f57565b9081602091031261022c5751801515810361022c5790565b9190820391821161110f57565b7f00000000000000000000000000000000000000000000000000000000000000006301e13380810180821161110f5742106111fc5761119a904261114e565b630784ce0090818110156111d6576111d2907f0000000000000000000000000000000000000000000000000000000000000000611123565b0490565b50507f000000000000000000000000000000000000000000000000000000000000000090565b505f90565b60046201518061121282544261114e565b04908115611375575b678ac7230489e800008281029080820484036112da57600554908282116113135750611247908261114e565b620f42409384820291808304861481151715611300576302faf0800291808304603214901517156112ed57683635c9adc5dea000000291808304606414901517156112da5781156112c757046207a120808210156112c0575082039182116112ad575090565b601190634e487b7160e01b5f525260245ffd5b9250505090565b601283634e487b7160e01b5f525260245ffd5b601183634e487b7160e01b5f525260245ffd5b601184634e487b7160e01b5f525260245ffd5b601185634e487b7160e01b5f525260245ffd5b93509061131f9161114e565b91670de0b6b3a764000092838102908082048514901517156112da5704676f05b59d3b20000080821161136d575b508201908183116112ad57620f424091808302928304036112ad57500490565b90505f61134d565b6001915061121b565b1561138557565b60405162461bcd60e51b815260206004820152601760248201527f4175746f546f6b656e3a207a65726f20616464726573730000000000000000006044820152606490fd5b6001600160a01b0390811691821515806114a0575b6113e89061137e565b825f5260016020528360405f20541061145b577fddf252ad1be2c89b69c2b068fc378daa952ba7f163c4a11628f55a4df523b3ef91602091845f526001835260405f2061143687825461114e565b90551693845f526001825260405f20611450828254611102565b9055604051908152a3565b60405162461bcd60e51b815260206004820152601f60248201527f4175746f546f6b656e3a20696e73756666696369656e742062616c616e6365006044820152606490fd5b5080821615156113df56fea2646970667358221220254561558a2ee5b00271b5ac29104cb4ff655e3a4df1b5f5144cc6179453162464736f6c63430008180033","linkReferences":{}},"methodIdentifiers":{"BASE_PRICE()":"f86325ed","CLIFF_DURATION()":"b3daa652","DECAY_CONSTANT()":"1e8267d7","GENESIS_CAPEX_BPS()":"9ce1666d","GENESIS_CAPEX_DURATION()":"05b58c96","MAX_SUPPLY()":"32cb6b0c","TARGET_PER_DAY()":"c94f9f71","VESTING_DURATION()":"4cfc4d30","allowance(address,address)":"dd62ed3e","approve(address,uint256)":"095ea7b3","architect()":"936a9ec2","architectAllocation()":"d999e7e9","architectClaimed()":"05f349f5","balanceOf(address)":"70a08231","canDelegate(address)":"c666907b","claimVested()":"d01c44cd","decimals()":"313ce567","developerWallet()":"185870f9","escrowCore()":"e4fab720","genesisCapExPaid()":"26b47936","getVRGDAPrice()":"bec6fed2","haltVRGDA()":"70bab956","isLaborWallet(address)":"2bba60f1","name()":"06fdde03","owner()":"8da5cb5b","purchaseVRGDA(uint256,uint256,address)":"19eb6524","registerLaborWallet(address)":"aba6786a","resumeVRGDA()":"fc0c87b2","setEscrowCore(address)":"10907ab2","symbol()":"95d89b41","totalSupply()":"18160ddd","transfer(address,uint256)":"a9059cbb","transferFrom(address,address,uint256)":"23b872dd","transferOwnership(address)":"f2fde38b","vestedAmount()":"44b1231f","vestingStart()":"254800d4","vrgdaHalted()":"dd75c69f","vrgdaSold()":"a130ffc1","vrgdaStartTime()":"307823c3","vrgdaTreasuryTotal()":"a226ba4e"},"id":19}