{"abi":[{"type":"constructor","inputs":[{"name":"_usdc","type":"address","internalType":"address"},{"name":"_soulboundMass","type":"address","internalType":"address"},{"name":"_treasury","type":"address","internalType":"address"},{"name":"_coreContributor","type":"address","internalType":"address"}],"stateMutability":"nonpayable"},{"type":"function","name":"ALPHA_MAX_BOUNTY","inputs":[],"outputs":[{"name":"","type":"uint256","internalType":"uint256"}],"stateMutability":"view"},{"type":"function","name":"ALPHA_MIN_BOUNTY","inputs":[],"outputs":[{"name":"","type":"uint256","internalType":"uint256"}],"stateMutability":"view"},{"type":"function","name":"CHALLENGE_BOND_BPS","inputs":[],"outputs":[{"name":"","type":"uint16","internalType":"uint16"}],"stateMutability":"view"},{"type":"function","name":"CORE_CONTRIBUTOR_BPS","inputs":[],"outputs":[{"name":"","type":"uint16","internalType":"uint16"}],"stateMutability":"view"},{"type":"function","name":"ESCROW_LARGE","inputs":[],"outputs":[{"name":"","type":"uint256","internalType":"uint256"}],"stateMutability":"view"},{"type":"function","name":"ESCROW_MEDIUM","inputs":[],"outputs":[{"name":"","type":"uint256","internalType":"uint256"}],"stateMutability":"view"},{"type":"function","name":"ESCROW_SMALL","inputs":[],"outputs":[{"name":"","type":"uint256","internalType":"uint256"}],"stateMutability":"view"},{"type":"function","name":"JUROR_BOND_BPS","inputs":[],"outputs":[{"name":"","type":"uint16","internalType":"uint16"}],"stateMutability":"view"},{"type":"function","name":"JUROR_FEE_BPS","inputs":[],"outputs":[{"name":"","type":"uint16","internalType":"uint16"}],"stateMutability":"view"},{"type":"function","name":"JURY_MAJORITY","inputs":[],"outputs":[{"name":"","type":"uint8","internalType":"uint8"}],"stateMutability":"view"},{"type":"function","name":"JURY_SIZE","inputs":[],"outputs":[{"name":"","type":"uint8","internalType":"uint8"}],"stateMutability":"view"},{"type":"function","name":"LARGE_BOUNTY_THRESHOLD","inputs":[],"outputs":[{"name":"","type":"uint256","internalType":"uint256"}],"stateMutability":"view"},{"type":"function","name":"MAX_CIPHER_BYTES","inputs":[],"outputs":[{"name":"","type":"uint256","internalType":"uint256"}],"stateMutability":"view"},{"type":"function","name":"MAX_EXECUTION_WINDOW","inputs":[],"outputs":[{"name":"","type":"uint256","internalType":"uint256"}],"stateMutability":"view"},{"type":"function","name":"METABOLIC_TAX_BPS","inputs":[],"outputs":[{"name":"","type":"uint16","internalType":"uint16"}],"stateMutability":"view"},{"type":"function","name":"MIN_EXECUTION_WINDOW","inputs":[],"outputs":[{"name":"","type":"uint256","internalType":"uint256"}],"stateMutability":"view"},{"type":"function","name":"SMALL_BOUNTY_THRESHOLD","inputs":[],"outputs":[{"name":"","type":"uint256","internalType":"uint256"}],"stateMutability":"view"},{"type":"function","name":"WHISTLEBLOWER_BPS","inputs":[],"outputs":[{"name":"","type":"uint16","internalType":"uint16"}],"stateMutability":"view"},{"type":"function","name":"broadcastPhaseShift","inputs":[{"name":"payloadId","type":"uint256","internalType":"uint256"},{"name":"gpslCipher","type":"bytes","internalType":"bytes"}],"outputs":[],"stateMutability":"nonpayable"},{"type":"function","name":"castJuryVote","inputs":[{"name":"payloadId","type":"uint256","internalType":"uint256"},{"name":"accept","type":"bool","internalType":"bool"}],"outputs":[],"stateMutability":"nonpayable"},{"type":"function","name":"challengeSubmission","inputs":[{"name":"payloadId","type":"uint256","internalType":"uint256"}],"outputs":[],"stateMutability":"nonpayable"},{"type":"function","name":"challenges","inputs":[{"name":"","type":"uint256","internalType":"uint256"}],"outputs":[{"name":"payloadId","type":"uint256","internalType":"uint256"},{"name":"challenger","type":"address","internalType":"address"},{"name":"challengeBond","type":"uint256","internalType":"uint256"},{"name":"challengedAt","type":"uint256","internalType":"uint256"},{"name":"acceptVotes","type":"uint8","internalType":"uint8"},{"name":"rejectVotes","type":"uint8","internalType":"uint8"},{"name":"votesSubmitted","type":"uint8","internalType":"uint8"},{"name":"isResolved","type":"bool","internalType":"bool"}],"stateMutability":"view"},{"type":"function","name":"commitClaim","inputs":[{"name":"payloadId","type":"uint256","internalType":"uint256"},{"name":"commitHash","type":"bytes32","internalType":"bytes32"}],"outputs":[],"stateMutability":"nonpayable"},{"type":"function","name":"coreContributor","inputs":[],"outputs":[{"name":"","type":"address","internalType":"address"}],"stateMutability":"view"},{"type":"function","name":"coreContributorTaxSunset","inputs":[],"outputs":[{"name":"","type":"bool","internalType":"bool"}],"stateMutability":"view"},{"type":"function","name":"createPayload","inputs":[{"name":"bountyAmount","type":"uint256","internalType":"uint256"},{"name":"frictionType","type":"uint8","internalType":"enum IAutopoieticTypes.FrictionType"},{"name":"tier","type":"uint8","internalType":"enum IAutopoieticTypes.VerificationTier"},{"name":"membraneRulesHash","type":"bytes32","internalType":"bytes32"},{"name":"executionWindowSeconds","type":"uint256","internalType":"uint256"}],"outputs":[{"name":"","type":"uint256","internalType":"uint256"}],"stateMutability":"nonpayable"},{"type":"function","name":"emergencyAdmin","inputs":[],"outputs":[{"name":"","type":"address","internalType":"address"}],"stateMutability":"view"},{"type":"function","name":"finalizeTier2","inputs":[{"name":"payloadId","type":"uint256","internalType":"uint256"}],"outputs":[],"stateMutability":"nonpayable"},{"type":"function","name":"getChallenge","inputs":[{"name":"payloadId","type":"uint256","internalType":"uint256"}],"outputs":[{"name":"","type":"tuple","internalType":"struct IAutopoieticTypes.Challenge","components":[{"name":"payloadId","type":"uint256","internalType":"uint256"},{"name":"challenger","type":"address","internalType":"address"},{"name":"challengeBond","type":"uint256","internalType":"uint256"},{"name":"challengedAt","type":"uint256","internalType":"uint256"},{"name":"jurors","type":"address[5]","internalType":"address[5]"},{"name":"acceptVotes","type":"uint8","internalType":"uint8"},{"name":"rejectVotes","type":"uint8","internalType":"uint8"},{"name":"votesSubmitted","type":"uint8","internalType":"uint8"},{"name":"isResolved","type":"bool","internalType":"bool"}]}],"stateMutability":"view"},{"type":"function","name":"getPayload","inputs":[{"name":"payloadId","type":"uint256","internalType":"uint256"}],"outputs":[{"name":"","type":"tuple","internalType":"struct IAutopoieticTypes.Payload","components":[{"name":"payloadId","type":"uint256","internalType":"uint256"},{"name":"creator","type":"address","internalType":"address"},{"name":"bountyAmount","type":"uint256","internalType":"uint256"},{"name":"frictionType","type":"uint8","internalType":"enum IAutopoieticTypes.FrictionType"},{"name":"tier","type":"uint8","internalType":"enum IAutopoieticTypes.VerificationTier"},{"name":"membraneRulesHash","type":"bytes32","internalType":"bytes32"},{"name":"executionWindowSeconds","type":"uint256","internalType":"uint256"},{"name":"createdAt","type":"uint256","internalType":"uint256"},{"name":"isClaimed","type":"bool","internalType":"bool"},{"name":"isSolved","type":"bool","internalType":"bool"},{"name":"isChallenged","type":"bool","internalType":"bool"},{"name":"claimedBy","type":"address","internalType":"address"},{"name":"claimExpiry","type":"uint256","internalType":"uint256"},{"name":"solutionHash","type":"bytes32","internalType":"bytes32"},{"name":"isAlpha","type":"bool","internalType":"bool"},{"name":"hasPhaseShifted","type":"bool","internalType":"bool"},{"name":"phaseShiftTimestamp","type":"uint256","internalType":"uint256"}]}],"stateMutability":"view"},{"type":"function","name":"globalAlphaActive","inputs":[],"outputs":[{"name":"","type":"bool","internalType":"bool"}],"stateMutability":"view"},{"type":"function","name":"isAlphaCreator","inputs":[{"name":"","type":"address","internalType":"address"}],"outputs":[{"name":"","type":"bool","internalType":"bool"}],"stateMutability":"view"},{"type":"function","name":"isAlphaOperator","inputs":[{"name":"","type":"address","internalType":"address"}],"outputs":[{"name":"","type":"bool","internalType":"bool"}],"stateMutability":"view"},{"type":"function","name":"jurorHasVoted","inputs":[{"name":"","type":"uint256","internalType":"uint256"},{"name":"","type":"address","internalType":"address"}],"outputs":[{"name":"","type":"bool","internalType":"bool"}],"stateMutability":"view"},{"type":"function","name":"nextPayloadId","inputs":[],"outputs":[{"name":"","type":"uint256","internalType":"uint256"}],"stateMutability":"view"},{"type":"function","name":"owner","inputs":[],"outputs":[{"name":"","type":"address","internalType":"address"}],"stateMutability":"view"},{"type":"function","name":"pause","inputs":[],"outputs":[],"stateMutability":"nonpayable"},{"type":"function","name":"paused","inputs":[],"outputs":[{"name":"","type":"bool","internalType":"bool"}],"stateMutability":"view"},{"type":"function","name":"payloads","inputs":[{"name":"","type":"uint256","internalType":"uint256"}],"outputs":[{"name":"payloadId","type":"uint256","internalType":"uint256"},{"name":"creator","type":"address","internalType":"address"},{"name":"bountyAmount","type":"uint256","internalType":"uint256"},{"name":"frictionType","type":"uint8","internalType":"enum IAutopoieticTypes.FrictionType"},{"name":"tier","type":"uint8","internalType":"enum IAutopoieticTypes.VerificationTier"},{"name":"membraneRulesHash","type":"bytes32","internalType":"bytes32"},{"name":"executionWindowSeconds","type":"uint256","internalType":"uint256"},{"name":"createdAt","type":"uint256","internalType":"uint256"},{"name":"isClaimed","type":"bool","internalType":"bool"},{"name":"isSolved","type":"bool","internalType":"bool"},{"name":"isChallenged","type":"bool","internalType":"bool"},{"name":"claimedBy","type":"address","internalType":"address"},{"name":"claimExpiry","type":"uint256","internalType":"uint256"},{"name":"solutionHash","type":"bytes32","internalType":"bytes32"},{"name":"isAlpha","type":"bool","internalType":"bool"},{"name":"hasPhaseShifted","type":"bool","internalType":"bool"},{"name":"phaseShiftTimestamp","type":"uint256","internalType":"uint256"}],"stateMutability":"view"},{"type":"function","name":"payoutRatios","inputs":[],"outputs":[{"name":"capillaryBps","type":"uint16","internalType":"uint16"},{"name":"mycelialBps","type":"uint16","internalType":"uint16"},{"name":"conduitBps","type":"uint16","internalType":"uint16"}],"stateMutability":"view"},{"type":"function","name":"reclaimBounty","inputs":[{"name":"payloadId","type":"uint256","internalType":"uint256"}],"outputs":[],"stateMutability":"nonpayable"},{"type":"function","name":"registerAsJuror","inputs":[{"name":"payloadId","type":"uint256","internalType":"uint256"}],"outputs":[],"stateMutability":"nonpayable"},{"type":"function","name":"releaseExpiredClaim","inputs":[{"name":"payloadId","type":"uint256","internalType":"uint256"}],"outputs":[],"stateMutability":"nonpayable"},{"type":"function","name":"revealTier1","inputs":[{"name":"payloadId","type":"uint256","internalType":"uint256"},{"name":"solution","type":"bytes","internalType":"bytes"},{"name":"secret","type":"bytes32","internalType":"bytes32"}],"outputs":[],"stateMutability":"nonpayable"},{"type":"function","name":"revealTier2","inputs":[{"name":"payloadId","type":"uint256","internalType":"uint256"},{"name":"solution","type":"bytes","internalType":"bytes"},{"name":"secret","type":"bytes32","internalType":"bytes32"}],"outputs":[],"stateMutability":"nonpayable"},{"type":"function","name":"routingPath","inputs":[{"name":"","type":"uint256","internalType":"uint256"},{"name":"","type":"uint256","internalType":"uint256"}],"outputs":[{"name":"","type":"address","internalType":"address"}],"stateMutability":"view"},{"type":"function","name":"setAlphaCreator","inputs":[{"name":"_creator","type":"address","internalType":"address"},{"name":"_status","type":"bool","internalType":"bool"}],"outputs":[],"stateMutability":"nonpayable"},{"type":"function","name":"setAlphaOperator","inputs":[{"name":"_operator","type":"address","internalType":"address"},{"name":"_status","type":"bool","internalType":"bool"}],"outputs":[],"stateMutability":"nonpayable"},{"type":"function","name":"setEmergencyAdmin","inputs":[{"name":"_emergencyAdmin","type":"address","internalType":"address"}],"outputs":[],"stateMutability":"nonpayable"},{"type":"function","name":"setRoutingPath","inputs":[{"name":"payloadId","type":"uint256","internalType":"uint256"},{"name":"nodes","type":"address[]","internalType":"address[]"}],"outputs":[],"stateMutability":"nonpayable"},{"type":"function","name":"soulboundMass","inputs":[],"outputs":[{"name":"","type":"address","internalType":"contract ISoulboundMass"}],"stateMutability":"view"},{"type":"function","name":"sunsetCoreContributorTax","inputs":[],"outputs":[],"stateMutability":"nonpayable"},{"type":"function","name":"toggleGlobalAlpha","inputs":[{"name":"_state","type":"bool","internalType":"bool"}],"outputs":[],"stateMutability":"nonpayable"},{"type":"function","name":"transferOwnership","inputs":[{"name":"newOwner","type":"address","internalType":"address"}],"outputs":[],"stateMutability":"nonpayable"},{"type":"function","name":"treasury","inputs":[],"outputs":[{"name":"","type":"address","internalType":"address"}],"stateMutability":"view"},{"type":"function","name":"unpause","inputs":[],"outputs":[],"stateMutability":"nonpayable"},{"type":"function","name":"updatePayoutRatios","inputs":[{"name":"capillary","type":"uint16","internalType":"uint16"},{"name":"mycelial","type":"uint16","internalType":"uint16"},{"name":"conduit","type":"uint16","internalType":"uint16"}],"outputs":[],"stateMutability":"nonpayable"},{"type":"function","name":"usdc","inputs":[],"outputs":[{"name":"","type":"address","internalType":"contract IERC20"}],"stateMutability":"view"},{"type":"event","name":"AgentQuarantined","inputs":[{"name":"agent","type":"address","indexed":true,"internalType":"address"},{"name":"consecutiveFailures","type":"uint256","indexed":false,"internalType":"uint256"}],"anonymous":false},{"type":"event","name":"BountyReclaimed","inputs":[{"name":"pid","type":"uint256","indexed":true,"internalType":"uint256"},{"name":"creator","type":"address","indexed":true,"internalType":"address"},{"name":"slashedAgent","type":"address","indexed":false,"internalType":"address"}],"anonymous":false},{"type":"event","name":"ChallengeResolved","inputs":[{"name":"pid","type":"uint256","indexed":true,"internalType":"uint256"},{"name":"upheld","type":"bool","indexed":false,"internalType":"bool"},{"name":"solver","type":"address","indexed":true,"internalType":"address"}],"anonymous":false},{"type":"event","name":"CommitExpired","inputs":[{"name":"pid","type":"uint256","indexed":true,"internalType":"uint256"},{"name":"agent","type":"address","indexed":true,"internalType":"address"}],"anonymous":false},{"type":"event","name":"MassBurned","inputs":[{"name":"agent","type":"address","indexed":true,"internalType":"address"},{"name":"amount","type":"uint256","indexed":false,"internalType":"uint256"}],"anonymous":false},{"type":"event","name":"MassMinted","inputs":[{"name":"agent","type":"address","indexed":true,"internalType":"address"},{"name":"amount","type":"uint256","indexed":false,"internalType":"uint256"}],"anonymous":false},{"type":"event","name":"PayloadChallenged","inputs":[{"name":"pid","type":"uint256","indexed":true,"internalType":"uint256"},{"name":"challenger","type":"address","indexed":true,"internalType":"address"},{"name":"bond","type":"uint256","indexed":false,"internalType":"uint256"}],"anonymous":false},{"type":"event","name":"PayloadCommitted","inputs":[{"name":"pid","type":"uint256","indexed":true,"internalType":"uint256"},{"name":"agent","type":"address","indexed":true,"internalType":"address"},{"name":"expiry","type":"uint256","indexed":false,"internalType":"uint256"}],"anonymous":false},{"type":"event","name":"PayloadCreated","inputs":[{"name":"pid","type":"uint256","indexed":true,"internalType":"uint256"},{"name":"creator","type":"address","indexed":true,"internalType":"address"},{"name":"bounty","type":"uint256","indexed":false,"internalType":"uint256"},{"name":"frictionType","type":"uint8","indexed":false,"internalType":"enum IAutopoieticTypes.FrictionType"},{"name":"tier","type":"uint8","indexed":false,"internalType":"enum IAutopoieticTypes.VerificationTier"},{"name":"isAlpha","type":"bool","indexed":false,"internalType":"bool"}],"anonymous":false},{"type":"event","name":"PayloadSolved","inputs":[{"name":"pid","type":"uint256","indexed":true,"internalType":"uint256"},{"name":"solver","type":"address","indexed":true,"internalType":"address"},{"name":"bounty","type":"uint256","indexed":false,"internalType":"uint256"},{"name":"mass","type":"uint256","indexed":false,"internalType":"uint256"}],"anonymous":false},{"type":"event","name":"PhaseShiftBroadcast","inputs":[{"name":"pid","type":"uint256","indexed":true,"internalType":"uint256"},{"name":"agent","type":"address","indexed":true,"internalType":"address"},{"name":"gpslCipher","type":"bytes","indexed":false,"internalType":"bytes"}],"anonymous":false}],"bytecode":{"object":"0x60c034620001c257601f6200441638819003918201601f19168301926001600160401b0392909183851183861017620001ae578160809284926040978852833981010312620001c2576200005381620001c6565b6200006160208301620001c6565b906200007d606062000075878601620001c6565b9401620001c6565b9060015f55600160ff19600654161760065560018060a01b0392838092166080521660a0528160018060a01b031993168360035416176003551681600454161760045533906001541617600155815190606082019082821090821117620001ae578252611f408152816103e89182602082015201526503e803e81f4065ffffffffffff19600c541617600c555161423a9081620001dc8239608051818181610c810152818161116b015281816111ec01528181611560015281816115c401528181611fc2015281816120720152818161212a0152818161226b015281816124d501528181612ad801528181612df30152613ea8015260a0518181816103dc01528181610bfd0152818161187d0152818161217c015281816125bb01528181612bc601528181612d520152613ff50152f35b634e487b7160e01b5f52604160045260245ffd5b5f80fd5b51906001600160a01b0382168203620001c25756fe60806040526004361015610011575f80fd5b5f803560e01c80630445320e146137005780630a9842f7146136c35780630b612ecc146136be57806314acad70146136be5780631bdd4b741461351e5780631d2db6c8146132ad57806324b03fc214613290578063293d48c91461326b5780632b676fe0146132345780632d94d20b1461313957806335da3394146130ee57806336f7b957146130c65780633bc70ec014612ca15780633c64b5e314612b255780633d3f310d14612b075780633e413bee14612ac25780633f4ba83a14612a835780634253311e1461097657806346006c6814612a30578063479cddde1461281d5780634fa70c6c146127fe578063590e1577146126ec578063598bf048146123f95780635c41290514611d105780635c975abb14611ced57806361d027b314611cc457806363c4457114611c745780636d736a4914611c1457806370905dce14611beb57806375d73d5e14611bcc57806380be11b3146119ab5780638456cb591461195b5780638da5cb5b146119325780638f1d3776146118ac5780638fa662bb146118675780638fd109bf14611847578063972537091461182a57806399cf96f0146110aa578063a03f1bbe1461108d578063a390b49914611071578063afaec52714611055578063b2c221f214610b3e578063b90df28d14610997578063ba4e652f1461097b578063bcd38a2f14610976578063c2ca64ef1461082c578063c4b13ca714610959578063c826a3d11461093d578063c94baa5814610831578063ca63f7301461082c578063ce985dd914610809578063d015b33e146107c0578063d4659834146107a2578063d651d4d71461074b578063d9a5bf0714610601578063dfbe94a21461036b578063e7a8258e1461032c5763f2fde38b14610298575f80fd5b34610329576020366003190112610329576102b161375e565b600154906001600160a01b03906102cb3383851614613894565b169081156102e4576001600160a01b0319161760015580f35b60405162461bcd60e51b815260206004820152601860248201527f457363726f77436f72653a207a65726f206164647265737300000000000000006044820152606490fd5b80fd5b50346103295760203660031901126103295760209060ff906040906001600160a01b0361035761375e565b168152600784522054166040519015158152f35b503461032957604036600319011261032957600435602490813561039460ff600d541615613989565b818452602090600982526040852093600785019081549060ff82166105be576103c360ff8360081c1615613b15565b60405163090baddf60e31b8152336004820152858183817f00000000000000000000000000000000000000000000000000000000000000006001600160a01b03165afa9081156105b3578991610586575b506105435783156105005760ff600a88015416610497575b5062ffff01600160b81b0319163360181b6301000000600160b81b03161760011790557fd2e3baa0ba04fd3d4bffac72602ef5edff3995f03905d02f615e2348aa9ab9e09190600961048260058701544261397c565b9586600882015501556040519384523393a380f35b3388526008855260ff60408920541661042c5784602a6084926040519262461bcd60e51b845260048401528201527f457363726f77436f72653a206e6f742077686974656c697374656420416c7068604482015269309037b832b930ba37b960b11b6064820152fd5b8460186064926040519262461bcd60e51b845260048401528201527f457363726f77436f72653a20656d70747920636f6d6d697400000000000000006044820152fd5b84601d6064926040519262461bcd60e51b845260048401528201527f457363726f77436f72653a206167656e742071756172616e74696e65640000006044820152fd5b6105a69150863d88116105ac575b61059e8183613942565b810190613a62565b5f610414565b503d610594565b6040513d8b823e3d90fd5b84601b6064926040519262461bcd60e51b845260048401528201527f457363726f77436f72653a20616c726561647920636c61696d656400000000006044820152fd5b5034610329576106103661383f565b939261062460ff600d949394541615613989565b83526009602052604083209161066760ff6007850154610645828216613ac9565b61065d601882901c6001600160a01b03163314613bad565b60081c1615613b15565b600883016106788154421115613bf9565b60ff600385015460081c1660028110156107375761071c600261072b9697986106a660016107229514613d9a565b6106b960ff600a8b015460081c16613c3b565b6106d86106ca600b8b015442613c92565b6005808c0154041115613c9f565b60405161070160408260208101948a8c87378a8201906020820152036020810184520182613942565b5190209761071560098201998a5414613cf6565b01546141d9565b4261397c565b90553691613d42565b60208151910120905580f35b634e487b7160e01b86526021600452602486fd5b503461032957806003193601126103295760015461077e90336001600160a01b0391821614908115610794575b50613b61565b6004805460ff60a01b1916600160a01b17905580f35b90506003541633145f610778565b50346103295780600319360112610329576020600554604051908152f35b503461032957602036600319011261032957600435801515809103610805576107f460018060a01b03600154163314613894565b60ff80196006541691161760065580f35b5f80fd5b5034610329578060031936011261032957602060ff600654166040519015158152f35b613877565b50346103295760403660031901126103295760243567ffffffffffffffff8082116109395736602383011215610939578160040135908111610939573660248260051b840101116109395760018060a01b0360019261089582600154163314613894565b60043585526020600e60205260408620916801000000000000000085116109255782548584558086106108fd575b50602401918652602086209186905b8582106108dd578780f35b80359185831683036108f95783889201928186015501906108d2565b8880fd5b838852868660208a2092830192015b82811061091a5750506108c3565b5f815501879061090c565b634e487b7160e01b87526041600452602487fd5b8280fd5b5034610329578060031936011261032957602060405160c88152f35b5034610329578060031936011261032957602060405161012c8152f35b6137cd565b5034610329578060031936011261032957602060405160648152f35b5034610329576020366003190112610329576004356109bb60ff600d541615613989565b6109c860018354146139ca565b600282558082526009602052604082209060ff600383015460081c166002811015610b2a5760016109f99114613d9a565b60078201805460ff811680610b1b575b610a1290613ddf565b60ff8160101c16610ad6576008840154421115610a915761ff001916610100178082557f01aa8e2992f26d5b7ea891f52c283d396d0ac64f6c1dd9d7236d47d29e6f49f9916040916002906001600160a01b0390610a759060181c821687613e2b565b925460181c169501549082519182526020820152a36001815580f35b60405162461bcd60e51b815260206004820152601960248201527f457363726f77436f72653a20657363726f7720616374697665000000000000006044820152606490fd5b60405162461bcd60e51b815260206004820152601960248201527f457363726f77436f72653a206973206368616c6c656e676564000000000000006044820152606490fd5b50600881901c60ff1615610a09565b634e487b7160e01b84526021600452602484fd5b50346103295760203660031901126103295760ff90610b6182600d541615613989565b610b6e60018254146139ca565b60028155600435815260096020526040812082600382015460081c166002811015611041576001610b9f9114613d9a565b6007810190815484811680611033575b610bb890613ddf565b848160101c16610fee5760088201544211610fa9573360189190911c6001600160a01b031614610f5a57604051631d55a0ad60e31b81523360048201526020816024817f00000000000000000000000000000000000000000000000000000000000000006001600160a01b03165afa908115610ed7578491610f3b575b5015610ee257610c4b6002612710920154613a9f565b6040516323b872dd60e01b8152336004820152306024820152919004604482018190529190602081606481876001600160a01b037f0000000000000000000000000000000000000000000000000000000000000000165af1908115610ed7578491610eb8575b5015610e7457805462ff000019166201000017905560405160a0810167ffffffffffffffff811182821017610e605760405282815282602082015282604082015282606082015282608082015260405190610d0b826138d8565b600435825233602083015282604083015242606083015260808201528260a082015260c081019383855260e08201908482526101008301918583526004358652600a6020526040862096845188556001880160018060a01b036020870151166001600160601b0360a01b82541617905560408501516002890155606085015160038901556080850151875b60058110610e4057505090610dd7838093610def9560a060098d019901511660ff198954161788555116869061ff0082549160081b169061ff001916179055565b51845462ff00001916911660101b62ff000016178355565b51151563ff00000082549160181b169063ff000000191617905560405190815233907f3efe8a34f1bcc4bd55639d2bca39e3730c73768f6241b086a4fa9d1ccb135dac602060043592a36001815580f35b81516001600160a01b03166004828c010155602090910190600101610d96565b634e487b7160e01b5f52604160045260245ffd5b606460405162461bcd60e51b815260206004820152602060248201527f457363726f77436f72653a20626f6e64207472616e73666572206661696c65646044820152fd5b610ed1915060203d6020116105ac5761059e8183613942565b5f610cb1565b6040513d86823e3d90fd5b60405162461bcd60e51b815260206004820152602b60248201527f457363726f77436f72653a20696e73756666696369656e74204d61737320666f60448201526a72206368616c6c656e676560a81b6064820152608490fd5b610f54915060203d6020116105ac5761059e8183613942565b5f610c35565b60405162461bcd60e51b815260206004820152602160248201527f457363726f77436f72653a2063616e6e6f742073656c662d6368616c6c656e676044820152606560f81b6064820152608490fd5b60405162461bcd60e51b815260206004820152601a60248201527f457363726f77436f72653a20657363726f7720657870697265640000000000006044820152606490fd5b60405162461bcd60e51b815260206004820152601e60248201527f457363726f77436f72653a20616c7265616479206368616c6c656e67656400006044820152606490fd5b50600881901c851615610baf565b634e487b7160e01b83526021600452602483fd5b5034610329578060031936011261032957602060405160058152f35b5034610329578060031936011261032957602060405160038152f35b503461032957806003193601126103295760206040516104008152f35b50346103295760a036600319011261032957600460243510156103295760026044351015610329576110e160ff600d541615613989565b6110ee60018254146139ca565b60028155600435156117e55761012c6084351015806117d6575b156117915760ff60065416806116bd575b612710611127600435613a9f565b0461116660206111398360043561397c565b6040516323b872dd60e01b8152336004820152306024820152604481019190915291829081906064820190565b0381877f00000000000000000000000000000000000000000000000000000000000000006001600160a01b03165af1908115610ed757849161169e575b501561165a5760045460a01c60ff16156114fe5760035460405163a9059cbb60e01b81526001600160a01b039091166004820152602481019190915260208180604481010381867f00000000000000000000000000000000000000000000000000000000000000006001600160a01b03165af180156114f3576114d4575b505b600554905f1982146114c05760018201600555604051611242816138f5565b828152336020820152600435604082015261126260243560608301613964565b61127160443560808301613970565b60643560a082015260843560c08201524260e08201528361010082015283610120820152836101408201528361016082015283610180820152836101a08201528115156101c0820152836101e08201528361020082015282845260096020526040842090805182556001820160018060a01b036020830151166001600160601b0360a01b8254161790556040810151600283015560608101516004811015610737576003830154608083015160028110156114ac57600195936020989593600b9360ff61ff006102009560081b1692169061ffff19161717600385015560a0810151600485015560c0810151600585015560e081015160068501556113f4600785016113906101008401511515829060ff801983541691151516179055565b610120830151815461ff00191690151560081b61ff001617815561014083015181546101608501516301000000600160b81b0360a08d901b8d900390911660181b1662ff000092151560101b9290921662010000600160b81b031990911617179055565b61018081015160088501556101a0810151600985015561144a600a850161142e6101c08401511515829060ff801983541691151516179055565b6101e0830151815461ff00191690151560081b61ff0016179055565b015191015560405190600435825261146686830160243561379f565b611475604083016044356137c0565b15156060820152837fdca4598bff80ae56ad8cb074f6944069e6de2edb859a3663cc6a797ab425df0e60803393a355604051908152f35b634e487b7160e01b88526021600452602488fd5b634e487b7160e01b83526011600452602483fd5b6114ec9060203d6020116105ac5761059e8183613942565b505f611221565b6040513d85823e3d90fd5b6064810281810460641482151715611646576115226101f461155b92048093613c92565b60035460405163a9059cbb60e01b8082526001600160a01b03909216600482015260248101929092529091602090839081906044820190565b0381887f00000000000000000000000000000000000000000000000000000000000000006001600160a01b03165af191821561163b5760209261161e575b50600480546040519283526001600160a01b03169082015260248101929092528180604481010381867f00000000000000000000000000000000000000000000000000000000000000006001600160a01b03165af180156114f3576115ff575b50611223565b6116179060203d6020116105ac5761059e8183613942565b505f6115f9565b61163490833d85116105ac5761059e8183613942565b505f611599565b6040513d87823e3d90fd5b634e487b7160e01b5f52601160045260245ffd5b606460405162461bcd60e51b815260206004820152602060248201527f457363726f77436f72653a2055534443207472616e73666572206661696c65646044820152fd5b6116b7915060203d6020116105ac5761059e8183613942565b5f6111a3565b338252600760205260ff6040832054161561173a576298968060043510158061172a575b6111195760405162461bcd60e51b815260206004820152601f60248201527f457363726f77436f72653a20416c70686120626f756e747920626f756e6473006044820152606490fd5b506302faf08060043511156116e1565b60405162461bcd60e51b815260206004820152602960248201527f457363726f77436f72653a206e6f742077686974656c697374656420416c7068604482015268309031b932b0ba37b960b91b6064820152608490fd5b60405162461bcd60e51b815260206004820152601a60248201527f457363726f77436f72653a20696e76616c69642077696e646f770000000000006044820152606490fd5b50620151806084351115611108565b60405162461bcd60e51b815260206004820152601760248201527f457363726f77436f72653a207a65726f20626f756e74790000000000000000006044820152606490fd5b503461032957806003193601126103295760206040516138408152f35b503461032957806003193601126103295760206040516402540be4008152f35b50346103295780600319360112610329576040517f00000000000000000000000000000000000000000000000000000000000000006001600160a01b03168152602090f35b5034610329576020366003190112610329576040610100916004358152600a6020522060ff81549160018060a01b0360018201541690600281015460096003830154920154926040519586526020860152604085015260608401528181166080840152818160081c1660a0840152818160101c1660c084015260181c16151560e0820152f35b50346103295780600319360112610329576001546040516001600160a01b039091168152602090f35b503461032957806003193601126103295760015461198d90336001600160a01b039182161490811561199d5750613b61565b600160ff19600d541617600d5580f35b90506002541633145f610778565b5034610329576040366003190112610329576024600435813567ffffffffffffffff8111611bc8576119e1903690600401613811565b92906119f260ff600d541615613989565b8285526020916009835260408620906007820154611a1260ff8216613ac9565b60181c6001600160a01b03163303611b855760088201544211611b4257600a82019081549060ff8260081c16611aff576104008811611ab0575061ff00191661010017905542600b90910155604080518381529283018590527f8d08fdc56a245c54b31f5e22de4a493a4361129d1bee3fe8c0b6c9a1772ca8d59291859183013784604085830101526040813395601f80199101168101030190a380f35b856084916040519162461bcd60e51b83526004830152808201527f457363726f77436f72653a206369706865722065786365656473206d617820626044820152637974657360e01b6064820152fd5b85601b6064926040519262461bcd60e51b845260048401528201527f457363726f77436f72653a20616c7265616479207368696674656400000000006044820152fd5b83601b6064926040519262461bcd60e51b845260048401528201527f457363726f77436f72653a20646561646c696e652070617373656400000000006044820152fd5b83601a6064926040519262461bcd60e51b845260048401528201527f457363726f77436f72653a206e6f742073656564206167656e740000000000006044820152fd5b8380fd5b503461032957806003193601126103295760206040516302faf0808152f35b50346103295780600319360112610329576002546040516001600160a01b039091168152602090f35b503461032957604036600319011261032957611c71611c3161375e565b611c39613774565b60015490916001600160a01b0391611c549083163314613894565b1683526007602052604083209060ff801983541691151516179055565b80f35b5034610329576040366003190112610329576024356001600160a01b0381169190829003610805576040906004358152600b60205220905f52602052602060ff60405f2054166040519015158152f35b50346103295780600319360112610329576003546040516001600160a01b039091168152602090f35b5034610329578060031936011261032957602060ff600d54166040519015158152f35b503461032957604036600319011261032957611d2a613774565b611d3960ff600d541615613989565b611d4660018354146139ca565b600282556004358252600a60205260408220906009820191611d6f60ff845460181c1615613a16565b6004358452600b60205260408420335f5260205260ff60405f2054166123b4578390600401815b600560ff82161061237b575b505015612336576004358352600b60205260408320335f5260205260405f209060ff1991600183825416179055611dfa611de260ff855460101c16613d88565b845462ff0000191660109190911b62ff000016178455565b156123075781549060ff611e0f818416613d88565b1691161781555b54600360ff821610908115916122f4575b50611e34575b6001815580f35b6004358152600a60209081526040808320600992839052908320918101805463ff00000019811663010000001790915560078301805460181c6001600160a01b03169391929190600360ff85161061217957805461ff001916610100179055611e9f84600435613e2b565b5060056002830154048590865b600560ff8216106120e1575050611ec7906002840154613c92565b8061203c575b506002611ef5915b0154612710611eee81611ee784613a89565b0492613a89565b049061397c565b84855b600560ff821610611f415750505050600360ff6040519216101581527f874fd3e0ba6d81d58b06aa295084dbe040084ea483a51e07e5c551498e515a3c602060043592a3611e2d565b611f4e8160048601613a7a565b905460039190911b1c6001600160a01b0316611f70575b60010160ff16611ef8565b90611fbd90602084611f858560048901613a7a565b905460405163a9059cbb60e01b815260039290921b1c6001600160a01b03166004820152602481019190915292839081906044820190565b03818b7f00000000000000000000000000000000000000000000000000000000000000006001600160a01b03165af191821561203157846001926120099260ff95612012575b5061397c565b92915050611f65565b61202a9060203d6020116105ac5761059e8183613942565b505f612003565b6040513d8a823e3d90fd5b60035460405163a9059cbb60e01b81526001600160a01b03909116600482015260248101919091529060208280604481010381897f00000000000000000000000000000000000000000000000000000000000000006001600160a01b03165af19081156120d657611ef5926002926120b7575b509150611ecd565b6120cf9060203d6020116105ac5761059e8183613942565b505f6120af565b6040513d88823e3d90fd5b6120ee8160048701613a7a565b905460039190911b1c6001600160a01b0316612110575b60010160ff16611eac565b9161212590602083611f858660048a01613a7a565b03818c7f00000000000000000000000000000000000000000000000000000000000000006001600160a01b03165af19182156105b357836001926121709260ff95612012575061397c565b93915050612105565b857f00000000000000000000000000000000000000000000000000000000000000006001600160a01b0316803b156122f0578180916024604051809481936316557e9f60e11b83528c60048401525af180156122e5576122cd575b5050805461ff01600160b81b0319169055600a8101805461ff0019169055600b8101859055600281015460c88082029291801590840490911417156116465760206122669261223861271060018060a01b036001880154169204600287015461397c565b60405163a9059cbb60e01b81526001600160a01b039092166004830152602482015292839081906044820190565b0381897f00000000000000000000000000000000000000000000000000000000000000006001600160a01b03165af19081156120d657611ef5926002926122ae575b50611ed5565b6122c69060203d6020116105ac5761059e8183613942565b505f6122a8565b6122d690613912565b6122e157855f6121d4565b8580fd5b6040513d84823e3d90fd5b5080fd5b6003915060ff9060081c1610155f611e27565b5061233161231b60ff835460081c16613d88565b825461ff00191660089190911b61ff0016178255565b611e16565b60405162461bcd60e51b815260206004820152601760248201527f457363726f77436f72653a206e6f742061206a75726f720000000000000000006044820152606490fd5b6123858183613a7a565b905460039190911b1c6001600160a01b031633146123a85760010160ff16611d96565b50505060015f80611da2565b60405162461bcd60e51b815260206004820152601960248201527f457363726f77436f72653a20616c726561647920766f746564000000000000006044820152606490fd5b5034610329576020806003193601126122f05760043561241e60ff600d541615613989565b61242b60018454146139ca565b6002835580835260098252604083206001810180546001600160a01b0394929190851633036126a757600782019182549261246c60ff8560081c1615613b15565b60ff841693841561268f5760088301545b42111561264a57859291610100899261ff0019161780915589956125b0575b5083546002929092015460405163a9059cbb60e01b81526001600160a01b0392909316919091166004830152602482015290816044818a7f00000000000000000000000000000000000000000000000000000000000000008b165af19081156125a5578791612588575b50156125435790847fdbcaf94a30491081b20a74e339419e5bbab91774d764bc641851a9889cf34300939254169460405191168152a36001815580f35b60405162461bcd60e51b815260048101849052601960248201527f457363726f77436f72653a20726566756e64206661696c6564000000000000006044820152606490fd5b61259f9150843d86116105ac5761059e8183613942565b5f612506565b6040513d89823e3d90fd5b60181c1693509050867f00000000000000000000000000000000000000000000000000000000000000008716803b156122f057818091604460405180958193633aba2b6360e01b83528a60048401526101f460248401525af191821561263d578692612622575b88915092919261249c565b61262d919250613912565b6126395783875f612617565b8680fd5b50604051903d90823e3d90fd5b60405162461bcd60e51b815260048101879052601f60248201527f457363726f77436f72653a20646561646c696e65206e6f7420706173736564006044820152606490fd5b6126a2600684015460058501549061397c565b61247d565b60405162461bcd60e51b815260048101849052601760248201527f457363726f77436f72653a206e6f742063726561746f720000000000000000006044820152606490fd5b503461032957602036600319011261032957604061022091600435815260096020522080549060ff60018060a01b0360018301541691600281015460038201546004830154600584015460068501549060078601549261278b600888015495600989015497600b600a8b01549a01549b60206040519e8f908152015260408d015261277c60608d018b831661379f565b8960808d019160081c166137c0565b60a08a015260c089015260e08801528481161515610100880152848160081c161515610120880152848160101c16151561014088015260018060a01b039060181c166101608701526101808601526101a085015281811615156101c085015260081c1615156101e0830152610200820152f35b50346103295780600319360112610329576020604051631dcd65008152f35b50346103295761282c3661383f565b92919061283e60ff600d541615613989565b61284b60018654146139ca565b60028555828552602093600985526040862092600784019283549261287260ff8516613ac9565b61288a601885901c6001600160a01b03163314613bad565b61289a60ff8560081c1615613b15565b6128aa6008870154421115613bf9565b60ff600387015460081c166002811015612a1c576129de579061293161293893926128de60ff600a8a015460081c16613c3b565b6128fd6128ef600b8a015442613c92565b6005808b0154041115613c9f565b6040516129236040828d80820195888a883788830191820152038d810184520182613942565b519020600988015414613cf6565b3691613d42565b8581519101206004840154036129995761ff001916610100179055600261295f3384613e2b565b910154926040519384528301527f01aa8e2992f26d5b7ea891f52c283d396d0ac64f6c1dd9d7236d47d29e6f49f960403393a36001815580f35b60405162461bcd60e51b815260048101869052601e60248201527f457363726f77436f72653a206d656d6272616e652072656a656374696f6e00006044820152606490fd5b60405162461bcd60e51b8152600481018990526016602482015275457363726f77436f72653a206e6f742054696572203160501b6044820152606490fd5b634e487b7160e01b8a52602160045260248afd5b503461032957604036600319011261032957602435906004358152600e60205260408120908154831015610329576020612a6a84846137e8565b905460405160039290921b1c6001600160a01b03168152f35b5034610329578060031936011261032957600154612ab590336001600160a01b039182161490811561199d5750613b61565b60ff19600d5416600d5580f35b50346103295780600319360112610329576040517f00000000000000000000000000000000000000000000000000000000000000006001600160a01b03168152602090f35b503461032957806003193601126103295760206040516203f4808152f35b503461080557602036600319011261080557600435612b4960ff600d541615613989565b805f52600960205260405f209060078201805492612b6960ff8516613ac9565b612b7960ff8560081c1615613b15565b600881018054421115612c5c5762ffff01600160b81b031985169092555f9182905560098101829055600a8101805461ff0019169055600b01556001600160a01b0360189290921c8216917f000000000000000000000000000000000000000000000000000000000000000016803b15610805575f80916024604051809481936316557e9f60e11b83528860048401525af18015612c5157612c3e575b507fd0a03fcd76035ea4099a4b92ed2d181a6e9af9a6f582f9445f09061c892a75e18380a380f35b612c49919350613912565b5f915f612c16565b6040513d5f823e3d90fd5b60405162461bcd60e51b815260206004820152601760248201527f457363726f77436f72653a206e6f7420657870697265640000000000000000006044820152606490fd5b34610805576020806003193601126108055760ff612cc460ff600d541615613989565b600190612cd460015f54146139ca565b60025f556004355f52600a835260405f206009845260405f209160078301549360ff8560101c161561308157612d1460ff600985015460181c1615613a16565b6001600160a01b039460181c8516331461303157846001840154163314612fdd57604051631d55a0ad60e31b815233600482015260249390878186817f00000000000000000000000000000000000000000000000000000000000000008b165afa908115612c51575f91612fc0575b5015612f7b575f9360045f9201915b600585821610612ece575b505050505015612e9157612db76002612710920154613a89565b049081612dc5575b60015f55005b6040516323b872dd60e01b815233600482015230602482015260448101929092528290829060649082905f907f0000000000000000000000000000000000000000000000000000000000000000165af1908115612c51575f91612e74575b5015612e30578080612dbf565b6064906040519062461bcd60e51b82526004820152601d60248201527f457363726f77436f72653a206a75726f7220626f6e64206661696c65640000006044820152fd5b612e8b9150823d84116105ac5761059e8183613942565b82612e23565b60405162461bcd60e51b8152600481018490526015602482015274115cd8dc9bddd0dbdc994e881a9d5c9e48199d5b1b605a1b6044820152606490fd5b87612ed98285613a7a565b919054600392831b1c1615612f4f5788612ef38386613a7a565b929092339354911b1c1614612f0b5783018416612d92565b60405162461bcd60e51b8152600481018a9052601e818401527f457363726f77436f72653a20616c7265616479207265676973746572656400006044820152606490fd5b9450919050612f5f929450613a7a565b81929154911b908533831b921b19161790558480808080612d9d565b60405162461bcd60e51b815260048101889052601d60248201527f457363726f77436f72653a20696e73756666696369656e74204d6173730000006044820152606490fd5b612fd79150883d8a116105ac5761059e8183613942565b88612d83565b60405162461bcd60e51b815260048101879052602660248201527f457363726f77436f72653a206368616c6c656e6765722063616e6e6f7420626560448201526510353ab937b960d11b6064820152608490fd5b60405162461bcd60e51b815260048101879052602260248201527f457363726f77436f72653a20736f6c7665722063616e6e6f74206265206a757260448201526137b960f11b6064820152608490fd5b60405162461bcd60e51b815260048101879052601a60248201527f457363726f77436f72653a206e6f74206368616c6c656e6765640000000000006044820152606490fd5b34610805575f366003190112610805576004546040516001600160a01b039091168152602090f35b346108055760203660031901126108055761310761375e565b6001546001600160a01b0391906131219083163314613894565b166001600160601b0360a01b60025416176002555f80f35b346108055760603660031901126108055760043561ffff9081811680910361080557602435908282168083036108055760443593841690818503610805576127109161319d6131a29261319760018060a01b03600154163314613894565b8561397c565b61397c565b036131ef5760405167ffffffffffffffff60608201918210911117610e605763ffff00009065ffff00000000600c549460201b169365ffffffffffff1916179160101b161717600c555f80f35b60405162461bcd60e51b815260206004820152601860248201527f457363726f77436f72653a2073756d20746f20313030303000000000000000006044820152606490fd5b34610805575f366003190112610805576060600c5461ffff604051918181168352818160101c16602084015260201c166040820152f35b34610805575f36600319011261080557602060ff60045460a01c166040519015158152f35b34610805575f366003190112610805576020604051629896808152f35b34610805576020366003190112610805575f6102006040516132ce816138f5565b8281528260208201528260408201528260608201528260808201528260a08201528260c08201528260e08201528261010082015282610120820152826101408201528261016082015282610180820152826101a0820152826101c0820152826101e082015201526004355f52600960205261022060405f20600b60405191613355836138f5565b8054835260018101546001600160a01b0316602084015260028101546040840152600381015461339e9060ff9061339181831660608801613964565b60081c1660808501613970565b600481015460a0840152600581015460c0840152600681015460e0840152600781015460ff8116151561010085015260ff8160081c16151561012085015260ff8160101c16151561014085015260018060a01b039060181c16610160840152600881015461018084015260098101546101a084015260ff600a82015481811615156101c086015260081c1615156101e08401520154610200820152610200604051918051835260018060a01b036020820151166020840152604081015160408401526134726060820151606085019061379f565b613484608082015160808501906137c0565b60a081015160a084015260c081015160c084015260e081015160e084015261010081015115156101008401526101208101511515610120840152610140810151151561014084015260018060a01b03610160820151166101608401526101808101516101808401526101a08101516101a08401526101c081015115156101c08401526101e081015115156101e08401520151610200820152f35b3461080557602080600319360112610805575f610100604051613540816138d8565b828152828482015282604082015282606082015260405161356081613926565b60a036823760808201528260a08201528260c08201528260e082015201526004355f52600a815260405f209060405190613599826138d8565b8254825260018301546001600160a01b03908116828401908152600285015460408086019182526003870154606087019081529051919691939091600481015f87875b600583106136a557505050506009906135f486613926565b6080880195865201549460ff9460a0880193868816855260c0890199878960081c168b528460e08b0197898b60101c168952896101008d019b60181c1615158b526040519b518c525116848b01525160408a01525160608901525160808801905f915b6005831061368e5750505050506101a095838092511661012087015251166101408501525116610160830152511515610180820152f35b838060019287855116815201920192019190613657565b60019182918786541681520193019101909188906135dc565b613783565b34610805576020366003190112610805576001600160a01b036136e461375e565b165f526008602052602060ff60405f2054166040519015158152f35b346108055760403660031901126108055761375c61371c61375e565b613724613774565b60015490916001600160a01b039161373f9083163314613894565b165f52600860205260405f209060ff801983541691151516179055565b005b600435906001600160a01b038216820361080557565b60243590811515820361080557565b34610805575f3660031901126108055760206040516101f48152f35b9060048210156137ac5752565b634e487b7160e01b5f52602160045260245ffd5b9060028210156137ac5752565b34610805575f36600319011261080557602060405160328152f35b80548210156137fd575f5260205f2001905f90565b634e487b7160e01b5f52603260045260245ffd5b9181601f840112156108055782359167ffffffffffffffff8311610805576020838186019501011161080557565b90606060031983011261080557600435916024359067ffffffffffffffff82116108055761386f91600401613811565b909160443590565b34610805575f366003190112610805576020604051620151808152f35b1561389b57565b60405162461bcd60e51b815260206004820152601560248201527422b9b1b937bba1b7b9329d103737ba1037bbb732b960591b6044820152606490fd5b610120810190811067ffffffffffffffff821117610e6057604052565b610220810190811067ffffffffffffffff821117610e6057604052565b67ffffffffffffffff8111610e6057604052565b60a0810190811067ffffffffffffffff821117610e6057604052565b90601f8019910116810190811067ffffffffffffffff821117610e6057604052565b60048210156137ac5752565b60028210156137ac5752565b9190820180921161164657565b1561399057565b60405162461bcd60e51b8152602060048201526012602482015271115cd8dc9bddd0dbdc994e881c185d5cd95960721b6044820152606490fd5b156139d157565b60405162461bcd60e51b815260206004820152601a60248201527f457363726f77436f72653a207265656e7472616e742063616c6c0000000000006044820152606490fd5b15613a1d57565b60405162461bcd60e51b815260206004820152601c60248201527f457363726f77436f72653a20616c7265616479207265736f6c766564000000006044820152606490fd5b90816020910312610805575180151581036108055790565b60058210156137fd5701905f90565b9060328202918083046032149015171561164657565b906101f49182810292818404149015171561164657565b8181029291811591840414171561164657565b15613ad057565b60405162461bcd60e51b815260206004820152601760248201527f457363726f77436f72653a206e6f7420636c61696d65640000000000000000006044820152606490fd5b15613b1c57565b60405162461bcd60e51b815260206004820152601a60248201527f457363726f77436f72653a20616c726561647920736f6c7665640000000000006044820152606490fd5b15613b6857565b60405162461bcd60e51b815260206004820152601a60248201527f457363726f77436f72653a206e6f7420617574686f72697a65640000000000006044820152606490fd5b15613bb457565b60405162461bcd60e51b815260206004820152601a60248201527f457363726f77436f72653a206e6f7420796f757220636c61696d0000000000006044820152606490fd5b15613c0057565b60405162461bcd60e51b8152602060048201526013602482015272115cd8dc9bddd0dbdc994e88195e1c1a5c9959606a1b6044820152606490fd5b15613c4257565b60405162461bcd60e51b815260206004820152602260248201527f457363726f77436f72653a206d757374207068617365207368696674206669726044820152611cdd60f21b6064820152608490fd5b9190820391821161164657565b15613ca657565b60405162461bcd60e51b815260206004820152602260248201527f457363726f77436f72653a20616e6e65616c696e672077696e646f77203c2032604482015261302560f01b6064820152608490fd5b15613cfd57565b60405162461bcd60e51b815260206004820152601b60248201527f457363726f77436f72653a20636f6d6d6974206d69736d6174636800000000006044820152606490fd5b92919267ffffffffffffffff8211610e605760405191613d6c601f8201601f191660200184613942565b829481845281830111610805578281602093845f960137010152565b60ff60019116019060ff821161164657565b15613da157565b60405162461bcd60e51b815260206004820152601660248201527522b9b1b937bba1b7b9329d103737ba102a34b2b9101960511b6044820152606490fd5b15613de657565b60405162461bcd60e51b815260206004820152601960248201527f457363726f77436f72653a20696e76616c6964207374617465000000000000006044820152606490fd5b90815f52602090600982526040936002855f2001549382600c5492612710613e6861ffff82613e5c8289168c613ab6565b049660101c1689613ab6565b04613e7c81613e77878b613c92565b613c92565b895163a9059cbb60e01b8082526001600160a01b039586166004808401919091526024830198909852967f0000000000000000000000000000000000000000000000000000000000000000861696909594918a816044815f8c5af1908115614171575f916141bc575b501561417b57600380548d518a81529087166001600160a01b0316888201908152602081019690965290948b908290819060400103815f8c5af1908115614171575f91614154575b5015614111575f52600e89528a5f2091825415155f1461408d57825490811561407a5704975f5b8354811015613fe05789908b8e8b613f9d8a613f70868b6137e8565b9054908c1b1c169251958693849384528d840160209093929193604081019460018060a01b031681520152565b03815f8d5af1918215613fd657600192613fb9575b5001613f54565b613fcf908d803d106105ac5761059e8183613942565b505f613fb2565b8e513d5f823e3d90fd5b509650999650505095909450606491505b04937f00000000000000000000000000000000000000000000000000000000000000001692833b15610805578251633a8439ab60e21b81526001600160a01b039092169082019081526020810185905290925f9184919082908490829060400103925af19081156140715750614065575090565b61406e90613912565b90565b513d5f823e3d90fd5b601287634e487b7160e01b5f525260245ffd5b939995909a979691508894809993505f8b60035416936140cd8b51978896879586948552840160209093929193604081019460018060a01b031681520152565b03925af18015614107579060649392916140e9575b5050613ff1565b816140ff92903d106105ac5761059e8183613942565b505f806140e2565b85513d5f823e3d90fd5b8b5162461bcd60e51b81528087018b9052601b60248201527f457363726f77436f72653a206d7963656c69616c206661696c656400000000006044820152606490fd5b61416b91508b3d8d116105ac5761059e8183613942565b5f613f2d565b8d513d5f823e3d90fd5b6064868b808f519262461bcd60e51b845283015260248201527f457363726f77436f72653a20736f6c766572207061796f7574206661696c65646044820152fd5b6141d391508b3d8d116105ac5761059e8183613942565b5f613ee5565b631dcd650081106141fd576402540be400116141f6576203f48090565b6201518090565b506138409056fea26469706673582212204c52a1fffaf46c5b0026d331b2f5cc3f5d0c8633969888fe87fbb74f1e6f167164736f6c63430008180033","linkReferences":{}},"methodIdentifiers":{"ALPHA_MAX_BOUNTY()":"75d73d5e","ALPHA_MIN_BOUNTY()":"24b03fc2","CHALLENGE_BOND_BPS()":"0b612ecc","CORE_CONTRIBUTOR_BPS()":"ba4e652f","ESCROW_LARGE()":"3d3f310d","ESCROW_MEDIUM()":"ca63f730","ESCROW_SMALL()":"97253709","JUROR_BOND_BPS()":"bcd38a2f","JUROR_FEE_BPS()":"4253311e","JURY_MAJORITY()":"a390b499","JURY_SIZE()":"afaec527","LARGE_BOUNTY_THRESHOLD()":"8fd109bf","MAX_CIPHER_BYTES()":"a03f1bbe","MAX_EXECUTION_WINDOW()":"c2ca64ef","METABOLIC_TAX_BPS()":"14acad70","MIN_EXECUTION_WINDOW()":"c4b13ca7","SMALL_BOUNTY_THRESHOLD()":"4fa70c6c","WHISTLEBLOWER_BPS()":"c826a3d1","broadcastPhaseShift(uint256,bytes)":"80be11b3","castJuryVote(uint256,bool)":"5c412905","challengeSubmission(uint256)":"b2c221f2","challenges(uint256)":"8f1d3776","commitClaim(uint256,bytes32)":"dfbe94a2","coreContributor()":"36f7b957","coreContributorTaxSunset()":"293d48c9","createPayload(uint256,uint8,uint8,bytes32,uint256)":"99cf96f0","emergencyAdmin()":"70905dce","finalizeTier2(uint256)":"b90df28d","getChallenge(uint256)":"1bdd4b74","getPayload(uint256)":"1d2db6c8","globalAlphaActive()":"ce985dd9","isAlphaCreator(address)":"e7a8258e","isAlphaOperator(address)":"0a9842f7","jurorHasVoted(uint256,address)":"63c44571","nextPayloadId()":"d4659834","owner()":"8da5cb5b","pause()":"8456cb59","paused()":"5c975abb","payloads(uint256)":"590e1577","payoutRatios()":"2b676fe0","reclaimBounty(uint256)":"598bf048","registerAsJuror(uint256)":"3bc70ec0","releaseExpiredClaim(uint256)":"3c64b5e3","revealTier1(uint256,bytes,bytes32)":"479cddde","revealTier2(uint256,bytes,bytes32)":"d9a5bf07","routingPath(uint256,uint256)":"46006c68","setAlphaCreator(address,bool)":"6d736a49","setAlphaOperator(address,bool)":"0445320e","setEmergencyAdmin(address)":"35da3394","setRoutingPath(uint256,address[])":"c94baa58","soulboundMass()":"8fa662bb","sunsetCoreContributorTax()":"d651d4d7","toggleGlobalAlpha(bool)":"d015b33e","transferOwnership(address)":"f2fde38b","treasury()":"61d027b3","unpause()":"3f4ba83a","updatePayoutRatios(uint16,uint16,uint16)":"2d94d20b","usdc()":"3e413bee"},"id":20}