{"abi":[{"type":"constructor","inputs":[{"name":"_usdc","type":"address","internalType":"address"},{"name":"_soulboundMass","type":"address","internalType":"address"},{"name":"_treasury","type":"address","internalType":"address"},{"name":"_coreContributor","type":"address","internalType":"address"}],"stateMutability":"nonpayable"},{"type":"function","name":"ALPHA_MAX_BOUNTY","inputs":[],"outputs":[{"name":"","type":"uint256","internalType":"uint256"}],"stateMutability":"view"},{"type":"function","name":"ALPHA_MIN_BOUNTY","inputs":[],"outputs":[{"name":"","type":"uint256","internalType":"uint256"}],"stateMutability":"view"},{"type":"function","name":"CHALLENGE_BOND_BPS","inputs":[],"outputs":[{"name":"","type":"uint16","internalType":"uint16"}],"stateMutability":"view"},{"type":"function","name":"CORE_CONTRIBUTOR_BPS","inputs":[],"outputs":[{"name":"","type":"uint16","internalType":"uint16"}],"stateMutability":"view"},{"type":"function","name":"ESCROW_LARGE","inputs":[],"outputs":[{"name":"","type":"uint256","internalType":"uint256"}],"stateMutability":"view"},{"type":"function","name":"ESCROW_MEDIUM","inputs":[],"outputs":[{"name":"","type":"uint256","internalType":"uint256"}],"stateMutability":"view"},{"type":"function","name":"ESCROW_SMALL","inputs":[],"outputs":[{"name":"","type":"uint256","internalType":"uint256"}],"stateMutability":"view"},{"type":"function","name":"JUROR_BOND_BPS","inputs":[],"outputs":[{"name":"","type":"uint16","internalType":"uint16"}],"stateMutability":"view"},{"type":"function","name":"JUROR_FEE_BPS","inputs":[],"outputs":[{"name":"","type":"uint16","internalType":"uint16"}],"stateMutability":"view"},{"type":"function","name":"JURY_MAJORITY","inputs":[],"outputs":[{"name":"","type":"uint8","internalType":"uint8"}],"stateMutability":"view"},{"type":"function","name":"JURY_SIZE","inputs":[],"outputs":[{"name":"","type":"uint8","internalType":"uint8"}],"stateMutability":"view"},{"type":"function","name":"LARGE_BOUNTY_THRESHOLD","inputs":[],"outputs":[{"name":"","type":"uint256","internalType":"uint256"}],"stateMutability":"view"},{"type":"function","name":"MAX_CIPHER_BYTES","inputs":[],"outputs":[{"name":"","type":"uint256","internalType":"uint256"}],"stateMutability":"view"},{"type":"function","name":"MAX_EXECUTION_WINDOW","inputs":[],"outputs":[{"name":"","type":"uint256","internalType":"uint256"}],"stateMutability":"view"},{"type":"function","name":"METABOLIC_TAX_BPS","inputs":[],"outputs":[{"name":"","type":"uint16","internalType":"uint16"}],"stateMutability":"view"},{"type":"function","name":"MIN_EXECUTION_WINDOW","inputs":[],"outputs":[{"name":"","type":"uint256","internalType":"uint256"}],"stateMutability":"view"},{"type":"function","name":"SMALL_BOUNTY_THRESHOLD","inputs":[],"outputs":[{"name":"","type":"uint256","internalType":"uint256"}],"stateMutability":"view"},{"type":"function","name":"WHISTLEBLOWER_BPS","inputs":[],"outputs":[{"name":"","type":"uint16","internalType":"uint16"}],"stateMutability":"view"},{"type":"function","name":"broadcastPhaseShift","inputs":[{"name":"payloadId","type":"uint256","internalType":"uint256"},{"name":"gpslCipher","type":"bytes","internalType":"bytes"}],"outputs":[],"stateMutability":"nonpayable"},{"type":"function","name":"castJuryVote","inputs":[{"name":"payloadId","type":"uint256","internalType":"uint256"},{"name":"accept","type":"bool","internalType":"bool"}],"outputs":[],"stateMutability":"nonpayable"},{"type":"function","name":"challengeSubmission","inputs":[{"name":"payloadId","type":"uint256","internalType":"uint256"}],"outputs":[],"stateMutability":"nonpayable"},{"type":"function","name":"challenges","inputs":[{"name":"","type":"uint256","internalType":"uint256"}],"outputs":[{"name":"payloadId","type":"uint256","internalType":"uint256"},{"name":"challenger","type":"address","internalType":"address"},{"name":"challengeBond","type":"uint256","internalType":"uint256"},{"name":"challengedAt","type":"uint256","internalType":"uint256"},{"name":"acceptVotes","type":"uint8","internalType":"uint8"},{"name":"rejectVotes","type":"uint8","internalType":"uint8"},{"name":"votesSubmitted","type":"uint8","internalType":"uint8"},{"name":"isResolved","type":"bool","internalType":"bool"}],"stateMutability":"view"},{"type":"function","name":"commitClaim","inputs":[{"name":"payloadId","type":"uint256","internalType":"uint256"},{"name":"commitHash","type":"bytes32","internalType":"bytes32"}],"outputs":[],"stateMutability":"nonpayable"},{"type":"function","name":"coreContributor","inputs":[],"outputs":[{"name":"","type":"address","internalType":"address"}],"stateMutability":"view"},{"type":"function","name":"coreContributorTaxSunset","inputs":[],"outputs":[{"name":"","type":"bool","internalType":"bool"}],"stateMutability":"view"},{"type":"function","name":"createPayload","inputs":[{"name":"bountyAmount","type":"uint256","internalType":"uint256"},{"name":"frictionType","type":"uint8","internalType":"enum IAutopoieticTypes.FrictionType"},{"name":"tier","type":"uint8","internalType":"enum IAutopoieticTypes.VerificationTier"},{"name":"membraneRulesHash","type":"bytes32","internalType":"bytes32"},{"name":"executionWindowSeconds","type":"uint256","internalType":"uint256"}],"outputs":[{"name":"","type":"uint256","internalType":"uint256"}],"stateMutability":"nonpayable"},{"type":"function","name":"finalizeTier2","inputs":[{"name":"payloadId","type":"uint256","internalType":"uint256"}],"outputs":[],"stateMutability":"nonpayable"},{"type":"function","name":"getChallenge","inputs":[{"name":"payloadId","type":"uint256","internalType":"uint256"}],"outputs":[{"name":"","type":"tuple","internalType":"struct IAutopoieticTypes.Challenge","components":[{"name":"payloadId","type":"uint256","internalType":"uint256"},{"name":"challenger","type":"address","internalType":"address"},{"name":"challengeBond","type":"uint256","internalType":"uint256"},{"name":"challengedAt","type":"uint256","internalType":"uint256"},{"name":"jurors","type":"address[5]","internalType":"address[5]"},{"name":"acceptVotes","type":"uint8","internalType":"uint8"},{"name":"rejectVotes","type":"uint8","internalType":"uint8"},{"name":"votesSubmitted","type":"uint8","internalType":"uint8"},{"name":"isResolved","type":"bool","internalType":"bool"}]}],"stateMutability":"view"},{"type":"function","name":"getPayload","inputs":[{"name":"payloadId","type":"uint256","internalType":"uint256"}],"outputs":[{"name":"","type":"tuple","internalType":"struct IAutopoieticTypes.Payload","components":[{"name":"payloadId","type":"uint256","internalType":"uint256"},{"name":"creator","type":"address","internalType":"address"},{"name":"bountyAmount","type":"uint256","internalType":"uint256"},{"name":"frictionType","type":"uint8","internalType":"enum IAutopoieticTypes.FrictionType"},{"name":"tier","type":"uint8","internalType":"enum IAutopoieticTypes.VerificationTier"},{"name":"membraneRulesHash","type":"bytes32","internalType":"bytes32"},{"name":"executionWindowSeconds","type":"uint256","internalType":"uint256"},{"name":"createdAt","type":"uint256","internalType":"uint256"},{"name":"isClaimed","type":"bool","internalType":"bool"},{"name":"isSolved","type":"bool","internalType":"bool"},{"name":"isChallenged","type":"bool","internalType":"bool"},{"name":"claimedBy","type":"address","internalType":"address"},{"name":"claimExpiry","type":"uint256","internalType":"uint256"},{"name":"solutionHash","type":"bytes32","internalType":"bytes32"},{"name":"isAlpha","type":"bool","internalType":"bool"},{"name":"hasPhaseShifted","type":"bool","internalType":"bool"},{"name":"phaseShiftTimestamp","type":"uint256","internalType":"uint256"}]}],"stateMutability":"view"},{"type":"function","name":"globalAlphaActive","inputs":[],"outputs":[{"name":"","type":"bool","internalType":"bool"}],"stateMutability":"view"},{"type":"function","name":"isAlphaCreator","inputs":[{"name":"","type":"address","internalType":"address"}],"outputs":[{"name":"","type":"bool","internalType":"bool"}],"stateMutability":"view"},{"type":"function","name":"isAlphaOperator","inputs":[{"name":"","type":"address","internalType":"address"}],"outputs":[{"name":"","type":"bool","internalType":"bool"}],"stateMutability":"view"},{"type":"function","name":"jurorHasVoted","inputs":[{"name":"","type":"uint256","internalType":"uint256"},{"name":"","type":"address","internalType":"address"}],"outputs":[{"name":"","type":"bool","internalType":"bool"}],"stateMutability":"view"},{"type":"function","name":"nextPayloadId","inputs":[],"outputs":[{"name":"","type":"uint256","internalType":"uint256"}],"stateMutability":"view"},{"type":"function","name":"owner","inputs":[],"outputs":[{"name":"","type":"address","internalType":"address"}],"stateMutability":"view"},{"type":"function","name":"pause","inputs":[],"outputs":[],"stateMutability":"nonpayable"},{"type":"function","name":"paused","inputs":[],"outputs":[{"name":"","type":"bool","internalType":"bool"}],"stateMutability":"view"},{"type":"function","name":"payloads","inputs":[{"name":"","type":"uint256","internalType":"uint256"}],"outputs":[{"name":"payloadId","type":"uint256","internalType":"uint256"},{"name":"creator","type":"address","internalType":"address"},{"name":"bountyAmount","type":"uint256","internalType":"uint256"},{"name":"frictionType","type":"uint8","internalType":"enum IAutopoieticTypes.FrictionType"},{"name":"tier","type":"uint8","internalType":"enum IAutopoieticTypes.VerificationTier"},{"name":"membraneRulesHash","type":"bytes32","internalType":"bytes32"},{"name":"executionWindowSeconds","type":"uint256","internalType":"uint256"},{"name":"createdAt","type":"uint256","internalType":"uint256"},{"name":"isClaimed","type":"bool","internalType":"bool"},{"name":"isSolved","type":"bool","internalType":"bool"},{"name":"isChallenged","type":"bool","internalType":"bool"},{"name":"claimedBy","type":"address","internalType":"address"},{"name":"claimExpiry","type":"uint256","internalType":"uint256"},{"name":"solutionHash","type":"bytes32","internalType":"bytes32"},{"name":"isAlpha","type":"bool","internalType":"bool"},{"name":"hasPhaseShifted","type":"bool","internalType":"bool"},{"name":"phaseShiftTimestamp","type":"uint256","internalType":"uint256"}],"stateMutability":"view"},{"type":"function","name":"payoutRatios","inputs":[],"outputs":[{"name":"capillaryBps","type":"uint16","internalType":"uint16"},{"name":"mycelialBps","type":"uint16","internalType":"uint16"},{"name":"conduitBps","type":"uint16","internalType":"uint16"}],"stateMutability":"view"},{"type":"function","name":"reclaimBounty","inputs":[{"name":"payloadId","type":"uint256","internalType":"uint256"}],"outputs":[],"stateMutability":"nonpayable"},{"type":"function","name":"registerAsJuror","inputs":[{"name":"payloadId","type":"uint256","internalType":"uint256"}],"outputs":[],"stateMutability":"nonpayable"},{"type":"function","name":"releaseExpiredClaim","inputs":[{"name":"payloadId","type":"uint256","internalType":"uint256"}],"outputs":[],"stateMutability":"nonpayable"},{"type":"function","name":"revealTier1","inputs":[{"name":"payloadId","type":"uint256","internalType":"uint256"},{"name":"solution","type":"bytes","internalType":"bytes"},{"name":"secret","type":"bytes32","internalType":"bytes32"}],"outputs":[],"stateMutability":"nonpayable"},{"type":"function","name":"revealTier2","inputs":[{"name":"payloadId","type":"uint256","internalType":"uint256"},{"name":"solution","type":"bytes","internalType":"bytes"},{"name":"secret","type":"bytes32","internalType":"bytes32"}],"outputs":[],"stateMutability":"nonpayable"},{"type":"function","name":"routingPath","inputs":[{"name":"","type":"uint256","internalType":"uint256"},{"name":"","type":"uint256","internalType":"uint256"}],"outputs":[{"name":"","type":"address","internalType":"address"}],"stateMutability":"view"},{"type":"function","name":"setAlphaCreator","inputs":[{"name":"_creator","type":"address","internalType":"address"},{"name":"_status","type":"bool","internalType":"bool"}],"outputs":[],"stateMutability":"nonpayable"},{"type":"function","name":"setAlphaOperator","inputs":[{"name":"_operator","type":"address","internalType":"address"},{"name":"_status","type":"bool","internalType":"bool"}],"outputs":[],"stateMutability":"nonpayable"},{"type":"function","name":"setRoutingPath","inputs":[{"name":"payloadId","type":"uint256","internalType":"uint256"},{"name":"nodes","type":"address[]","internalType":"address[]"}],"outputs":[],"stateMutability":"nonpayable"},{"type":"function","name":"soulboundMass","inputs":[],"outputs":[{"name":"","type":"address","internalType":"contract ISoulboundMass"}],"stateMutability":"view"},{"type":"function","name":"sunsetCoreContributorTax","inputs":[],"outputs":[],"stateMutability":"nonpayable"},{"type":"function","name":"toggleGlobalAlpha","inputs":[{"name":"_state","type":"bool","internalType":"bool"}],"outputs":[],"stateMutability":"nonpayable"},{"type":"function","name":"transferOwnership","inputs":[{"name":"newOwner","type":"address","internalType":"address"}],"outputs":[],"stateMutability":"nonpayable"},{"type":"function","name":"treasury","inputs":[],"outputs":[{"name":"","type":"address","internalType":"address"}],"stateMutability":"view"},{"type":"function","name":"unpause","inputs":[],"outputs":[],"stateMutability":"nonpayable"},{"type":"function","name":"updatePayoutRatios","inputs":[{"name":"capillary","type":"uint16","internalType":"uint16"},{"name":"mycelial","type":"uint16","internalType":"uint16"},{"name":"conduit","type":"uint16","internalType":"uint16"}],"outputs":[],"stateMutability":"nonpayable"},{"type":"function","name":"usdc","inputs":[],"outputs":[{"name":"","type":"address","internalType":"contract IERC20"}],"stateMutability":"view"},{"type":"event","name":"AgentQuarantined","inputs":[{"name":"agent","type":"address","indexed":true,"internalType":"address"},{"name":"consecutiveFailures","type":"uint256","indexed":false,"internalType":"uint256"}],"anonymous":false},{"type":"event","name":"BountyReclaimed","inputs":[{"name":"pid","type":"uint256","indexed":true,"internalType":"uint256"},{"name":"creator","type":"address","indexed":true,"internalType":"address"},{"name":"slashedAgent","type":"address","indexed":false,"internalType":"address"}],"anonymous":false},{"type":"event","name":"ChallengeResolved","inputs":[{"name":"pid","type":"uint256","indexed":true,"internalType":"uint256"},{"name":"upheld","type":"bool","indexed":false,"internalType":"bool"},{"name":"solver","type":"address","indexed":true,"internalType":"address"}],"anonymous":false},{"type":"event","name":"CommitExpired","inputs":[{"name":"pid","type":"uint256","indexed":true,"internalType":"uint256"},{"name":"agent","type":"address","indexed":true,"internalType":"address"}],"anonymous":false},{"type":"event","name":"MassBurned","inputs":[{"name":"agent","type":"address","indexed":true,"internalType":"address"},{"name":"amount","type":"uint256","indexed":false,"internalType":"uint256"}],"anonymous":false},{"type":"event","name":"MassMinted","inputs":[{"name":"agent","type":"address","indexed":true,"internalType":"address"},{"name":"amount","type":"uint256","indexed":false,"internalType":"uint256"}],"anonymous":false},{"type":"event","name":"PayloadChallenged","inputs":[{"name":"pid","type":"uint256","indexed":true,"internalType":"uint256"},{"name":"challenger","type":"address","indexed":true,"internalType":"address"},{"name":"bond","type":"uint256","indexed":false,"internalType":"uint256"}],"anonymous":false},{"type":"event","name":"PayloadCommitted","inputs":[{"name":"pid","type":"uint256","indexed":true,"internalType":"uint256"},{"name":"agent","type":"address","indexed":true,"internalType":"address"},{"name":"expiry","type":"uint256","indexed":false,"internalType":"uint256"}],"anonymous":false},{"type":"event","name":"PayloadCreated","inputs":[{"name":"pid","type":"uint256","indexed":true,"internalType":"uint256"},{"name":"creator","type":"address","indexed":true,"internalType":"address"},{"name":"bounty","type":"uint256","indexed":false,"internalType":"uint256"},{"name":"frictionType","type":"uint8","indexed":false,"internalType":"enum IAutopoieticTypes.FrictionType"},{"name":"tier","type":"uint8","indexed":false,"internalType":"enum IAutopoieticTypes.VerificationTier"},{"name":"isAlpha","type":"bool","indexed":false,"internalType":"bool"}],"anonymous":false},{"type":"event","name":"PayloadSolved","inputs":[{"name":"pid","type":"uint256","indexed":true,"internalType":"uint256"},{"name":"solver","type":"address","indexed":true,"internalType":"address"},{"name":"bounty","type":"uint256","indexed":false,"internalType":"uint256"},{"name":"mass","type":"uint256","indexed":false,"internalType":"uint256"}],"anonymous":false},{"type":"event","name":"PhaseShiftBroadcast","inputs":[{"name":"pid","type":"uint256","indexed":true,"internalType":"uint256"},{"name":"agent","type":"address","indexed":true,"internalType":"address"},{"name":"gpslCipher","type":"bytes","indexed":false,"internalType":"bytes"}],"anonymous":false}],"bytecode":{"object":"0x60c034620001c257601f6200436038819003918201601f19168301926001600160401b0392909183851183861017620001ae578160809284926040978852833981010312620001c2576200005381620001c6565b6200006160208301620001c6565b906200007d606062000075878601620001c6565b9401620001c6565b9060015f55600160ff19600554161760055560018060a01b0392838092166080521660a0528160018060a01b031993168360025416176002551681600354161760035533906001541617600155815190606082019082821090821117620001ae578252611f408152816103e89182602082015201526503e803e81f4065ffffffffffff19600b541617600b55516141849081620001dc8239608051818181610cac0152818161119b0152818161121c015281816115930152818161160101528181611fb101528181612061015281816121190152818161225a015281816124c401528181612abb01528181612dd60152613df9015260a0518181816103c601528181610c28015281816118b10152818161216b015281816125aa01528181612ba901528181612d350152613f470152f35b634e487b7160e01b5f52604160045260245ffd5b5f80fd5b51906001600160a01b0382168203620001c25756fe60806040526004361015610011575f80fd5b5f803560e01c80630445320e146136985780630a9842f71461365b5780630b612ecc1461365657806314acad70146136565780631bdd4b74146134b65780631d2db6c81461324557806324b03fc214613228578063293d48c9146132035780632b676fe0146131cc5780632d94d20b146130d157806336f7b957146130a95780633bc70ec014612c845780633c64b5e314612b085780633d3f310d14612aea5780633e413bee14612aa55780633f4ba83a14612a725780634253311e146109a157806346006c6814612a1f578063479cddde1461280c5780634fa70c6c146127ed578063590e1577146126db578063598bf048146123e85780635c41290514611d015780635c975abb14611cde57806361d027b314611cb557806363c4457114611c655780636d736a4914611c0557806375d73d5e14611be657806380be11b3146119c55780638456cb591461198f5780638da5cb5b146119665780638f1d3776146118e05780638fa662bb1461189b5780638fd109bf1461187b578063972537091461185e57806399cf96f0146110da578063a03f1bbe146110bd578063a390b499146110a1578063afaec52714611085578063b2c221f214610b69578063b90df28d146109c2578063ba4e652f146109a6578063bcd38a2f146109a1578063c2ca64ef14610857578063c4b13ca714610984578063c826a3d114610968578063c94baa581461085c578063ca63f73014610857578063ce985dd914610834578063d015b33e146107eb578063d4659834146107cd578063d651d4d714610735578063d9a5bf07146105eb578063dfbe94a214610355578063e7a8258e146103165763f2fde38b14610282575f80fd5b346103135760203660031901126103135761029b6136f6565b600154906001600160a01b03906102b5338385161461382c565b169081156102ce576001600160a01b0319161760015580f35b60405162461bcd60e51b815260206004820152601860248201527f457363726f77436f72653a207a65726f206164647265737300000000000000006044820152606490fd5b80fd5b50346103135760203660031901126103135760209060ff906040906001600160a01b036103416136f6565b168152600684522054166040519015158152f35b503461031357604036600319011261031357600435602490813561037e60ff600c541615613921565b818452602090600882526040852093600785019081549060ff82166105a8576103ad60ff8360081c1615613aad565b60405163090baddf60e31b8152336004820152858183817f00000000000000000000000000000000000000000000000000000000000000006001600160a01b03165afa90811561059d578991610570575b5061052d5783156104ea5760ff600a88015416610481575b5062ffff01600160b81b0319163360181b6301000000600160b81b03161760011790557fd2e3baa0ba04fd3d4bffac72602ef5edff3995f03905d02f615e2348aa9ab9e09190600961046c600587015442613914565b9586600882015501556040519384523393a380f35b3388526007855260ff6040892054166104165784602a6084926040519262461bcd60e51b845260048401528201527f457363726f77436f72653a206e6f742077686974656c697374656420416c7068604482015269309037b832b930ba37b960b11b6064820152fd5b8460186064926040519262461bcd60e51b845260048401528201527f457363726f77436f72653a20656d70747920636f6d6d697400000000000000006044820152fd5b84601d6064926040519262461bcd60e51b845260048401528201527f457363726f77436f72653a206167656e742071756172616e74696e65640000006044820152fd5b6105909150863d8811610596575b61058881836138da565b8101906139fa565b5f6103fe565b503d61057e565b6040513d8b823e3d90fd5b84601b6064926040519262461bcd60e51b845260048401528201527f457363726f77436f72653a20616c726561647920636c61696d656400000000006044820152fd5b5034610313576105fa366137d7565b939261060e60ff600c949394541615613921565b83526008602052604083209161065160ff600785015461062f828216613a61565b610647601882901c6001600160a01b03163314613af9565b60081c1615613aad565b600883016106628154421115613b45565b60ff600385015460081c166002811015610721576107066002610715969798610690600161070c9514613ce6565b6106a360ff600a8b015460081c16613b87565b6106c26106b4600b8b015442613bde565b6005808c0154041115613beb565b6040516106eb60408260208101948a8c87378a82019060208201520360208101845201826138da565b519020976106ff60098201998a5414613c42565b0154614123565b42613914565b90553691613c8e565b60208151910120905580f35b634e487b7160e01b86526021600452602486fd5b5034610313578060031936011261031357600154336001600160a01b03918216149081156107bf575b501561077a576003805460ff60a01b1916600160a01b17905580f35b60405162461bcd60e51b815260206004820152601a60248201527f457363726f77436f72653a206e6f7420617574686f72697a65640000000000006044820152606490fd5b90506002541633145f61075e565b50346103135780600319360112610313576020600454604051908152f35b5034610313576020366003190112610313576004358015158091036108305761081f60018060a01b0360015416331461382c565b60ff80196005541691161760055580f35b5f80fd5b5034610313578060031936011261031357602060ff600554166040519015158152f35b61380f565b50346103135760403660031901126103135760243567ffffffffffffffff8082116109645736602383011215610964578160040135908111610964573660248260051b840101116109645760018060a01b036001926108c08260015416331461382c565b60043585526020600d6020526040862091680100000000000000008511610950578254858455808610610928575b50602401918652602086209186905b858210610908578780f35b80359185831683036109245783889201928186015501906108fd565b8880fd5b838852868660208a2092830192015b8281106109455750506108ee565b5f8155018790610937565b634e487b7160e01b87526041600452602487fd5b8280fd5b5034610313578060031936011261031357602060405160c88152f35b5034610313578060031936011261031357602060405161012c8152f35b613765565b5034610313578060031936011261031357602060405160648152f35b5034610313576020366003190112610313576004356109e660ff600c541615613921565b6109f36001835414613962565b600282558082526008602052604082209060ff600383015460081c166002811015610b55576001610a249114613ce6565b60078201805460ff811680610b46575b610a3d90613d2b565b60ff8160101c16610b01576008840154421115610abc5761ff001916610100178082557f01aa8e2992f26d5b7ea891f52c283d396d0ac64f6c1dd9d7236d47d29e6f49f9916040916002906001600160a01b0390610aa09060181c821687613d77565b925460181c169501549082519182526020820152a36001815580f35b60405162461bcd60e51b815260206004820152601960248201527f457363726f77436f72653a20657363726f7720616374697665000000000000006044820152606490fd5b60405162461bcd60e51b815260206004820152601960248201527f457363726f77436f72653a206973206368616c6c656e676564000000000000006044820152606490fd5b50600881901c60ff1615610a34565b634e487b7160e01b84526021600452602484fd5b50346103135760203660031901126103135760ff90610b8c82600c541615613921565b610b996001825414613962565b60028155600435815260086020526040812082600382015460081c166002811015611071576001610bca9114613ce6565b6007810190815484811680611063575b610be390613d2b565b848160101c1661101e5760088201544211610fd9573360189190911c6001600160a01b031614610f8a57604051631d55a0ad60e31b81523360048201526020816024817f00000000000000000000000000000000000000000000000000000000000000006001600160a01b03165afa908115610f07578491610f6b575b5015610f1257610c766002612710920154613a37565b6040516323b872dd60e01b8152336004820152306024820152919004604482018190529190602081606481876001600160a01b037f0000000000000000000000000000000000000000000000000000000000000000165af1908115610f07578491610ee8575b5015610ea457805462ff000019166201000017905560405160a0810167ffffffffffffffff811182821017610e905760405282815282602082015282604082015282606082015282608082015260405190610d3682613870565b600435825233602083015282604083015242606083015260808201528260a082015260c081019383855260e0820190848252610100830191858352600435865260096020526040862096845188556001880160018060a01b036020870151166bffffffffffffffffffffffff60a01b82541617905560408501516002890155606085015160038901556080850151875b60058110610e7057505090610e07838093610e1f9560a060098d019901511660ff198954161788555116869061ff0082549160081b169061ff001916179055565b51845462ff00001916911660101b62ff000016178355565b51151563ff00000082549160181b169063ff000000191617905560405190815233907f3efe8a34f1bcc4bd55639d2bca39e3730c73768f6241b086a4fa9d1ccb135dac602060043592a36001815580f35b81516001600160a01b03166004828c010155602090910190600101610dc6565b634e487b7160e01b5f52604160045260245ffd5b606460405162461bcd60e51b815260206004820152602060248201527f457363726f77436f72653a20626f6e64207472616e73666572206661696c65646044820152fd5b610f01915060203d6020116105965761058881836138da565b5f610cdc565b6040513d86823e3d90fd5b60405162461bcd60e51b815260206004820152602b60248201527f457363726f77436f72653a20696e73756666696369656e74204d61737320666f60448201526a72206368616c6c656e676560a81b6064820152608490fd5b610f84915060203d6020116105965761058881836138da565b5f610c60565b60405162461bcd60e51b815260206004820152602160248201527f457363726f77436f72653a2063616e6e6f742073656c662d6368616c6c656e676044820152606560f81b6064820152608490fd5b60405162461bcd60e51b815260206004820152601a60248201527f457363726f77436f72653a20657363726f7720657870697265640000000000006044820152606490fd5b60405162461bcd60e51b815260206004820152601e60248201527f457363726f77436f72653a20616c7265616479206368616c6c656e67656400006044820152606490fd5b50600881901c851615610bda565b634e487b7160e01b83526021600452602483fd5b5034610313578060031936011261031357602060405160058152f35b5034610313578060031936011261031357602060405160038152f35b503461031357806003193601126103135760206040516104008152f35b50346103135760a0366003190112610313576004602435101561031357600260443510156103135761111160ff600c541615613921565b61111e6001825414613962565b60028155600435156118195761012c60843510158061180a575b156117c55760ff60055416806116f1575b612710611157600435613a37565b04611196602061116983600435613914565b6040516323b872dd60e01b8152336004820152306024820152604481019190915291829081906064820190565b0381877f00000000000000000000000000000000000000000000000000000000000000006001600160a01b03165af1908115610f075784916116d2575b501561168e5760035460a01c60ff16156115335760025460405163a9059cbb60e01b81526001600160a01b039091166004820152602481019190915260208180604481010381867f00000000000000000000000000000000000000000000000000000000000000006001600160a01b03165af1801561152857611509575b505b600454905f1982146114f557600182016004556040516112728161388d565b8281523360208201526004356040820152611292602435606083016138fc565b6112a160443560808301613908565b60643560a082015260843560c08201524260e08201528361010082015283610120820152836101408201528361016082015283610180820152836101a08201528115156101c0820152836101e08201528361020082015282845260086020526040842090805182556001820160018060a01b036020830151166bffffffffffffffffffffffff60a01b8254161790556040810151600283015560608101516004811015610721576003830154608083015160028110156114e157600195936020989593600b9360ff61ff006102009560081b1692169061ffff19161717600385015560a0810151600485015560c0810151600585015560e08101516006850155611429600785016113c56101008401511515829060ff801983541691151516179055565b610120830151815461ff00191690151560081b61ff001617815561014083015181546101608501516301000000600160b81b0360a08d901b8d900390911660181b1662ff000092151560101b9290921662010000600160b81b031990911617179055565b61018081015160088501556101a0810151600985015561147f600a85016114636101c08401511515829060ff801983541691151516179055565b6101e0830151815461ff00191690151560081b61ff0016179055565b015191015560405190600435825261149b868301602435613737565b6114aa60408301604435613758565b15156060820152837fdca4598bff80ae56ad8cb074f6944069e6de2edb859a3663cc6a797ab425df0e60803393a355604051908152f35b634e487b7160e01b88526021600452602488fd5b634e487b7160e01b83526011600452602483fd5b6115219060203d6020116105965761058881836138da565b505f611251565b6040513d85823e3d90fd5b60648102908082046064148115171561167a57602061155a61158e926101f4850490613bde565b60025460405163a9059cbb60e01b81526001600160a01b039091166004820152602481019190915291829081906044820190565b0381877f00000000000000000000000000000000000000000000000000000000000000006001600160a01b03165af18015610f075761165b575b5060035460405163a9059cbb60e01b81526001600160a01b0390911660048201526101f4909104602482015260208180604481010381867f00000000000000000000000000000000000000000000000000000000000000006001600160a01b03165af180156115285761163c575b50611253565b6116549060203d6020116105965761058881836138da565b505f611636565b6116739060203d6020116105965761058881836138da565b505f6115c8565b634e487b7160e01b5f52601160045260245ffd5b606460405162461bcd60e51b815260206004820152602060248201527f457363726f77436f72653a2055534443207472616e73666572206661696c65646044820152fd5b6116eb915060203d6020116105965761058881836138da565b5f6111d3565b338252600660205260ff6040832054161561176e576298968060043510158061175e575b6111495760405162461bcd60e51b815260206004820152601f60248201527f457363726f77436f72653a20416c70686120626f756e747920626f756e6473006044820152606490fd5b506302faf0806004351115611715565b60405162461bcd60e51b815260206004820152602960248201527f457363726f77436f72653a206e6f742077686974656c697374656420416c7068604482015268309031b932b0ba37b960b91b6064820152608490fd5b60405162461bcd60e51b815260206004820152601a60248201527f457363726f77436f72653a20696e76616c69642077696e646f770000000000006044820152606490fd5b50620151806084351115611138565b60405162461bcd60e51b815260206004820152601760248201527f457363726f77436f72653a207a65726f20626f756e74790000000000000000006044820152606490fd5b503461031357806003193601126103135760206040516138408152f35b503461031357806003193601126103135760206040516402540be4008152f35b50346103135780600319360112610313576040517f00000000000000000000000000000000000000000000000000000000000000006001600160a01b03168152602090f35b503461031357602036600319011261031357604061010091600435815260096020522060ff81549160018060a01b0360018201541690600281015460096003830154920154926040519586526020860152604085015260608401528181166080840152818160081c1660a0840152818160101c1660c084015260181c16151560e0820152f35b50346103135780600319360112610313576001546040516001600160a01b039091168152602090f35b50346103135780600319360112610313576119b560018060a01b0360015416331461382c565b600160ff19600c541617600c5580f35b5034610313576040366003190112610313576024600435813567ffffffffffffffff8111611be2576119fb9036906004016137a9565b9290611a0c60ff600c541615613921565b8285526020916008835260408620906007820154611a2c60ff8216613a61565b60181c6001600160a01b03163303611b9f5760088201544211611b5c57600a82019081549060ff8260081c16611b19576104008811611aca575061ff00191661010017905542600b90910155604080518381529283018590527f8d08fdc56a245c54b31f5e22de4a493a4361129d1bee3fe8c0b6c9a1772ca8d59291859183013784604085830101526040813395601f80199101168101030190a380f35b856084916040519162461bcd60e51b83526004830152808201527f457363726f77436f72653a206369706865722065786365656473206d617820626044820152637974657360e01b6064820152fd5b85601b6064926040519262461bcd60e51b845260048401528201527f457363726f77436f72653a20616c7265616479207368696674656400000000006044820152fd5b83601b6064926040519262461bcd60e51b845260048401528201527f457363726f77436f72653a20646561646c696e652070617373656400000000006044820152fd5b83601a6064926040519262461bcd60e51b845260048401528201527f457363726f77436f72653a206e6f742073656564206167656e740000000000006044820152fd5b8380fd5b503461031357806003193601126103135760206040516302faf0808152f35b503461031357604036600319011261031357611c62611c226136f6565b611c2a61370c565b60015490916001600160a01b0391611c45908316331461382c565b1683526006602052604083209060ff801983541691151516179055565b80f35b5034610313576040366003190112610313576024356001600160a01b0381169190829003610830576040906004358152600a60205220905f52602052602060ff60405f2054166040519015158152f35b50346103135780600319360112610313576002546040516001600160a01b039091168152602090f35b5034610313578060031936011261031357602060ff600c54166040519015158152f35b503461031357604036600319011261031357611d1b61370c565b611d2a60ff600c541615613921565b611d376001835414613962565b600282556004358252600960205260408220906009820191611d6060ff845460181c16156139ae565b6004358452600a60205260408420335f5260205260ff60405f2054166123a3578390600401815b600560ff82161061236a575b505015612325576004358352600a60205260408320335f5260205260405f209060ff1991600183825416179055611deb611dd360ff855460101c16613cd4565b845462ff0000191660109190911b62ff000016178455565b156122f65781549060ff611e00818416613cd4565b1691161781555b54600360ff821610908115916122e3575b50611e25575b6001815580f35b600435815260096020818152604080842060089092528320918101805463ff00000019811663010000001790915560078301805460181c6001600160a01b03169391929190600360ff85161061216857805461ff001916610100179055611e8e84600435613d77565b5060056002830154048590865b600560ff8216106120d0575050611eb6906002840154613bde565b8061202b575b506002611ee4915b0154612710611edd81611ed684613a21565b0492613a21565b0490613914565b84855b600560ff821610611f305750505050600360ff6040519216101581527f874fd3e0ba6d81d58b06aa295084dbe040084ea483a51e07e5c551498e515a3c602060043592a3611e1e565b611f3d8160048601613a12565b905460039190911b1c6001600160a01b0316611f5f575b60010160ff16611ee7565b90611fac90602084611f748560048901613a12565b905460405163a9059cbb60e01b815260039290921b1c6001600160a01b03166004820152602481019190915292839081906044820190565b03818b7f00000000000000000000000000000000000000000000000000000000000000006001600160a01b03165af19182156120205784600192611ff89260ff95612001575b50613914565b92915050611f54565b6120199060203d6020116105965761058881836138da565b505f611ff2565b6040513d8a823e3d90fd5b60025460405163a9059cbb60e01b81526001600160a01b03909116600482015260248101919091529060208280604481010381897f00000000000000000000000000000000000000000000000000000000000000006001600160a01b03165af19081156120c557611ee4926002926120a6575b509150611ebc565b6120be9060203d6020116105965761058881836138da565b505f61209e565b6040513d88823e3d90fd5b6120dd8160048701613a12565b905460039190911b1c6001600160a01b03166120ff575b60010160ff16611e9b565b9161211490602083611f748660048a01613a12565b03818c7f00000000000000000000000000000000000000000000000000000000000000006001600160a01b03165af191821561059d578360019261215f9260ff956120015750613914565b939150506120f4565b857f00000000000000000000000000000000000000000000000000000000000000006001600160a01b0316803b156122df578180916024604051809481936316557e9f60e11b83528c60048401525af180156122d4576122bc575b5050805461ff01600160b81b0319169055600a8101805461ff0019169055600b8101859055600281015460c880820292918015908404909114171561167a5760206122559261222761271060018060a01b0360018801541692046002870154613914565b60405163a9059cbb60e01b81526001600160a01b039092166004830152602482015292839081906044820190565b0381897f00000000000000000000000000000000000000000000000000000000000000006001600160a01b03165af19081156120c557611ee49260029261229d575b50611ec4565b6122b59060203d6020116105965761058881836138da565b505f612297565b6122c5906138aa565b6122d057855f6121c3565b8580fd5b6040513d84823e3d90fd5b5080fd5b6003915060ff9060081c1610155f611e18565b5061232061230a60ff835460081c16613cd4565b825461ff00191660089190911b61ff0016178255565b611e07565b60405162461bcd60e51b815260206004820152601760248201527f457363726f77436f72653a206e6f742061206a75726f720000000000000000006044820152606490fd5b6123748183613a12565b905460039190911b1c6001600160a01b031633146123975760010160ff16611d87565b50505060015f80611d93565b60405162461bcd60e51b815260206004820152601960248201527f457363726f77436f72653a20616c726561647920766f746564000000000000006044820152606490fd5b5034610313576020806003193601126122df5760043561240d60ff600c541615613921565b61241a6001845414613962565b6002835580835260088252604083206001810180546001600160a01b03949291908516330361269657600782019182549261245b60ff8560081c1615613aad565b60ff841693841561267e5760088301545b42111561263957859291610100899261ff00191617809155899561259f575b5083546002929092015460405163a9059cbb60e01b81526001600160a01b0392909316919091166004830152602482015290816044818a7f00000000000000000000000000000000000000000000000000000000000000008b165af1908115612594578791612577575b50156125325790847fdbcaf94a30491081b20a74e339419e5bbab91774d764bc641851a9889cf34300939254169460405191168152a36001815580f35b60405162461bcd60e51b815260048101849052601960248201527f457363726f77436f72653a20726566756e64206661696c6564000000000000006044820152606490fd5b61258e9150843d86116105965761058881836138da565b5f6124f5565b6040513d89823e3d90fd5b60181c1693509050867f00000000000000000000000000000000000000000000000000000000000000008716803b156122df57818091604460405180958193633aba2b6360e01b83528a60048401526101f460248401525af191821561262c578692612611575b88915092919261248b565b61261c9192506138aa565b6126285783875f612606565b8680fd5b50604051903d90823e3d90fd5b60405162461bcd60e51b815260048101879052601f60248201527f457363726f77436f72653a20646561646c696e65206e6f7420706173736564006044820152606490fd5b6126916006840154600585015490613914565b61246c565b60405162461bcd60e51b815260048101849052601760248201527f457363726f77436f72653a206e6f742063726561746f720000000000000000006044820152606490fd5b503461031357602036600319011261031357604061022091600435815260086020522080549060ff60018060a01b0360018301541691600281015460038201546004830154600584015460068501549060078601549261277a600888015495600989015497600b600a8b01549a01549b60206040519e8f908152015260408d015261276b60608d018b8316613737565b8960808d019160081c16613758565b60a08a015260c089015260e08801528481161515610100880152848160081c161515610120880152848160101c16151561014088015260018060a01b039060181c166101608701526101808601526101a085015281811615156101c085015260081c1615156101e0830152610200820152f35b50346103135780600319360112610313576020604051631dcd65008152f35b50346103135761281b366137d7565b92919061282d60ff600c541615613921565b61283a6001865414613962565b60028555828552602093600885526040862092600784019283549261286160ff8516613a61565b612879601885901c6001600160a01b03163314613af9565b61288960ff8560081c1615613aad565b6128996008870154421115613b45565b60ff600387015460081c166002811015612a0b576129cd579061292061292793926128cd60ff600a8a015460081c16613b87565b6128ec6128de600b8a015442613bde565b6005808b0154041115613beb565b6040516129126040828d80820195888a883788830191820152038d8101845201826138da565b519020600988015414613c42565b3691613c8e565b8581519101206004840154036129885761ff001916610100179055600261294e3384613d77565b910154926040519384528301527f01aa8e2992f26d5b7ea891f52c283d396d0ac64f6c1dd9d7236d47d29e6f49f960403393a36001815580f35b60405162461bcd60e51b815260048101869052601e60248201527f457363726f77436f72653a206d656d6272616e652072656a656374696f6e00006044820152606490fd5b60405162461bcd60e51b8152600481018990526016602482015275457363726f77436f72653a206e6f742054696572203160501b6044820152606490fd5b634e487b7160e01b8a52602160045260248afd5b503461031357604036600319011261031357602435906004358152600d60205260408120908154831015610313576020612a598484613780565b905460405160039290921b1c6001600160a01b03168152f35b5034610313578060031936011261031357612a9860018060a01b0360015416331461382c565b60ff19600c5416600c5580f35b50346103135780600319360112610313576040517f00000000000000000000000000000000000000000000000000000000000000006001600160a01b03168152602090f35b503461031357806003193601126103135760206040516203f4808152f35b503461083057602036600319011261083057600435612b2c60ff600c541615613921565b805f52600860205260405f209060078201805492612b4c60ff8516613a61565b612b5c60ff8560081c1615613aad565b600881018054421115612c3f5762ffff01600160b81b031985169092555f9182905560098101829055600a8101805461ff0019169055600b01556001600160a01b0360189290921c8216917f000000000000000000000000000000000000000000000000000000000000000016803b15610830575f80916024604051809481936316557e9f60e11b83528860048401525af18015612c3457612c21575b507fd0a03fcd76035ea4099a4b92ed2d181a6e9af9a6f582f9445f09061c892a75e18380a380f35b612c2c9193506138aa565b5f915f612bf9565b6040513d5f823e3d90fd5b60405162461bcd60e51b815260206004820152601760248201527f457363726f77436f72653a206e6f7420657870697265640000000000000000006044820152606490fd5b34610830576020806003193601126108305760ff612ca760ff600c541615613921565b600190612cb760015f5414613962565b60025f556004355f526009835260405f206008845260405f209160078301549360ff8560101c161561306457612cf760ff600985015460181c16156139ae565b6001600160a01b039460181c8516331461301457846001840154163314612fc057604051631d55a0ad60e31b815233600482015260249390878186817f00000000000000000000000000000000000000000000000000000000000000008b165afa908115612c34575f91612fa3575b5015612f5e575f9360045f9201915b600585821610612eb1575b505050505015612e7457612d9a6002612710920154613a21565b049081612da8575b60015f55005b6040516323b872dd60e01b815233600482015230602482015260448101929092528290829060649082905f907f0000000000000000000000000000000000000000000000000000000000000000165af1908115612c34575f91612e57575b5015612e13578080612da2565b6064906040519062461bcd60e51b82526004820152601d60248201527f457363726f77436f72653a206a75726f7220626f6e64206661696c65640000006044820152fd5b612e6e9150823d84116105965761058881836138da565b82612e06565b60405162461bcd60e51b8152600481018490526015602482015274115cd8dc9bddd0dbdc994e881a9d5c9e48199d5b1b605a1b6044820152606490fd5b87612ebc8285613a12565b919054600392831b1c1615612f325788612ed68386613a12565b929092339354911b1c1614612eee5783018416612d75565b60405162461bcd60e51b8152600481018a9052601e818401527f457363726f77436f72653a20616c7265616479207265676973746572656400006044820152606490fd5b9450919050612f42929450613a12565b81929154911b908533831b921b19161790558480808080612d80565b60405162461bcd60e51b815260048101889052601d60248201527f457363726f77436f72653a20696e73756666696369656e74204d6173730000006044820152606490fd5b612fba9150883d8a116105965761058881836138da565b88612d66565b60405162461bcd60e51b815260048101879052602660248201527f457363726f77436f72653a206368616c6c656e6765722063616e6e6f7420626560448201526510353ab937b960d11b6064820152608490fd5b60405162461bcd60e51b815260048101879052602260248201527f457363726f77436f72653a20736f6c7665722063616e6e6f74206265206a757260448201526137b960f11b6064820152608490fd5b60405162461bcd60e51b815260048101879052601a60248201527f457363726f77436f72653a206e6f74206368616c6c656e6765640000000000006044820152606490fd5b34610830575f366003190112610830576003546040516001600160a01b039091168152602090f35b346108305760603660031901126108305760043561ffff9081811680910361083057602435908282168083036108305760443593841690818503610830576127109161313561313a9261312f60018060a01b0360015416331461382c565b85613914565b613914565b036131875760405167ffffffffffffffff60608201918210911117610e905763ffff00009065ffff00000000600b549460201b169365ffffffffffff1916179160101b161717600b555f80f35b60405162461bcd60e51b815260206004820152601860248201527f457363726f77436f72653a2073756d20746f20313030303000000000000000006044820152606490fd5b34610830575f366003190112610830576060600b5461ffff604051918181168352818160101c16602084015260201c166040820152f35b34610830575f36600319011261083057602060ff60035460a01c166040519015158152f35b34610830575f366003190112610830576020604051629896808152f35b34610830576020366003190112610830575f6102006040516132668161388d565b8281528260208201528260408201528260608201528260808201528260a08201528260c08201528260e08201528261010082015282610120820152826101408201528261016082015282610180820152826101a0820152826101c0820152826101e082015201526004355f52600860205261022060405f20600b604051916132ed8361388d565b8054835260018101546001600160a01b031660208401526002810154604084015260038101546133369060ff90613329818316606088016138fc565b60081c1660808501613908565b600481015460a0840152600581015460c0840152600681015460e0840152600781015460ff8116151561010085015260ff8160081c16151561012085015260ff8160101c16151561014085015260018060a01b039060181c16610160840152600881015461018084015260098101546101a084015260ff600a82015481811615156101c086015260081c1615156101e08401520154610200820152610200604051918051835260018060a01b0360208201511660208401526040810151604084015261340a60608201516060850190613737565b61341c60808201516080850190613758565b60a081015160a084015260c081015160c084015260e081015160e084015261010081015115156101008401526101208101511515610120840152610140810151151561014084015260018060a01b03610160820151166101608401526101808101516101808401526101a08101516101a08401526101c081015115156101c08401526101e081015115156101e08401520151610200820152f35b3461083057602080600319360112610830575f6101006040516134d881613870565b82815282848201528260408201528260608201526040516134f8816138be565b60a036823760808201528260a08201528260c08201528260e082015201526004355f526009815260405f20906040519061353182613870565b8254825260018301546001600160a01b03908116828401908152600285015460408086019182526003870154606087019081529051919691939091600481015f87875b6005831061363d575050505060099061358c866138be565b6080880195865201549460ff9460a0880193868816855260c0890199878960081c168b528460e08b0197898b60101c168952896101008d019b60181c1615158b526040519b518c525116848b01525160408a01525160608901525160808801905f915b600583106136265750505050506101a095838092511661012087015251166101408501525116610160830152511515610180820152f35b8380600192878551168152019201920191906135ef565b6001918291878654168152019301910190918890613574565b61371b565b34610830576020366003190112610830576001600160a01b0361367c6136f6565b165f526007602052602060ff60405f2054166040519015158152f35b34610830576040366003190112610830576136f46136b46136f6565b6136bc61370c565b60015490916001600160a01b03916136d7908316331461382c565b165f52600760205260405f209060ff801983541691151516179055565b005b600435906001600160a01b038216820361083057565b60243590811515820361083057565b34610830575f3660031901126108305760206040516101f48152f35b9060048210156137445752565b634e487b7160e01b5f52602160045260245ffd5b9060028210156137445752565b34610830575f36600319011261083057602060405160328152f35b8054821015613795575f5260205f2001905f90565b634e487b7160e01b5f52603260045260245ffd5b9181601f840112156108305782359167ffffffffffffffff8311610830576020838186019501011161083057565b90606060031983011261083057600435916024359067ffffffffffffffff821161083057613807916004016137a9565b909160443590565b34610830575f366003190112610830576020604051620151808152f35b1561383357565b60405162461bcd60e51b815260206004820152601560248201527422b9b1b937bba1b7b9329d103737ba1037bbb732b960591b6044820152606490fd5b610120810190811067ffffffffffffffff821117610e9057604052565b610220810190811067ffffffffffffffff821117610e9057604052565b67ffffffffffffffff8111610e9057604052565b60a0810190811067ffffffffffffffff821117610e9057604052565b90601f8019910116810190811067ffffffffffffffff821117610e9057604052565b60048210156137445752565b60028210156137445752565b9190820180921161167a57565b1561392857565b60405162461bcd60e51b8152602060048201526012602482015271115cd8dc9bddd0dbdc994e881c185d5cd95960721b6044820152606490fd5b1561396957565b60405162461bcd60e51b815260206004820152601a60248201527f457363726f77436f72653a207265656e7472616e742063616c6c0000000000006044820152606490fd5b156139b557565b60405162461bcd60e51b815260206004820152601c60248201527f457363726f77436f72653a20616c7265616479207265736f6c766564000000006044820152606490fd5b90816020910312610830575180151581036108305790565b60058210156137955701905f90565b9060328202918083046032149015171561167a57565b906101f49182810292818404149015171561167a57565b8181029291811591840414171561167a57565b15613a6857565b60405162461bcd60e51b815260206004820152601760248201527f457363726f77436f72653a206e6f7420636c61696d65640000000000000000006044820152606490fd5b15613ab457565b60405162461bcd60e51b815260206004820152601a60248201527f457363726f77436f72653a20616c726561647920736f6c7665640000000000006044820152606490fd5b15613b0057565b60405162461bcd60e51b815260206004820152601a60248201527f457363726f77436f72653a206e6f7420796f757220636c61696d0000000000006044820152606490fd5b15613b4c57565b60405162461bcd60e51b8152602060048201526013602482015272115cd8dc9bddd0dbdc994e88195e1c1a5c9959606a1b6044820152606490fd5b15613b8e57565b60405162461bcd60e51b815260206004820152602260248201527f457363726f77436f72653a206d757374207068617365207368696674206669726044820152611cdd60f21b6064820152608490fd5b9190820391821161167a57565b15613bf257565b60405162461bcd60e51b815260206004820152602260248201527f457363726f77436f72653a20616e6e65616c696e672077696e646f77203c2032604482015261302560f01b6064820152608490fd5b15613c4957565b60405162461bcd60e51b815260206004820152601b60248201527f457363726f77436f72653a20636f6d6d6974206d69736d6174636800000000006044820152606490fd5b92919267ffffffffffffffff8211610e905760405191613cb8601f8201601f1916602001846138da565b829481845281830111610830578281602093845f960137010152565b60ff60019116019060ff821161167a57565b15613ced57565b60405162461bcd60e51b815260206004820152601660248201527522b9b1b937bba1b7b9329d103737ba102a34b2b9101960511b6044820152606490fd5b15613d3257565b60405162461bcd60e51b815260206004820152601960248201527f457363726f77436f72653a20696e76616c6964207374617465000000000000006044820152606490fd5b919091805f52602090600882526040936002855f2001549381600b54612710613db561ffff82613da98286168c613a4e565b049360101c1689613a4e565b0492613dca84613dc5848b613bde565b613bde565b895163a9059cbb60e01b8082526001600160a01b039788166004808401919091526024830195909552969793967f00000000000000000000000000000000000000000000000000000000000000008916969094929392918a816044815f8c5af1908115613f29575f91614106575b50156140c5576002548c51868152908a166001600160a01b03168982019081526020810192909252908a908290819060400103815f8b5af19081156140bb575f9161409e575b501561405b575f52600d8852895f2091825415155f14613fdf578254908115613fcc5704935f5b8354811015613f33578b908a8a87613ef08a8d613ec2878c613780565b95905498519889968796875260031b1c1690840160209093929193604081019460018060a01b031681520152565b03815f8c5af1918215613f2957600192613f0c575b5001613ea5565b613f22908c8d3d106105965761058881836138da565b505f613f05565b8d513d5f823e3d90fd5b5095975098959792505050606491505b04937f00000000000000000000000000000000000000000000000000000000000000001692833b15610830578251633a8439ab60e21b81526001600160a01b039092169082019081526020810185905290925f9184919082908490829060400103925af1908115613fc35750613fb7575090565b613fc0906138aa565b90565b513d5f823e3d90fd5b601288634e487b7160e01b5f525260245ffd5b6002548b5194855288166001600160a01b03168785019081526020810191909152909996989597939594849250839182905f90829060400103925af1801561405157906064939291614033575b5050613f43565b8161404992903d106105965761058881836138da565b505f8061402c565b85513d5f823e3d90fd5b8a5162461bcd60e51b81528088018a9052601b60248201527f457363726f77436f72653a206d7963656c69616c206661696c656400000000006044820152606490fd5b6140b591508a3d8c116105965761058881836138da565b5f613e7e565b8c513d5f823e3d90fd5b6064888b808f519262461bcd60e51b845283015260248201527f457363726f77436f72653a20736f6c766572207061796f7574206661696c65646044820152fd5b61411d91508b3d8d116105965761058881836138da565b5f613e38565b631dcd65008110614147576402540be40011614140576203f48090565b6201518090565b506138409056fea26469706673582212201e514f759d39ee8131daf0e4da5ca7b8a7357e15ac455463f6fcb42ed9afdc0664736f6c63430008180033","linkReferences":{}},"methodIdentifiers":{"ALPHA_MAX_BOUNTY()":"75d73d5e","ALPHA_MIN_BOUNTY()":"24b03fc2","CHALLENGE_BOND_BPS()":"0b612ecc","CORE_CONTRIBUTOR_BPS()":"ba4e652f","ESCROW_LARGE()":"3d3f310d","ESCROW_MEDIUM()":"ca63f730","ESCROW_SMALL()":"97253709","JUROR_BOND_BPS()":"bcd38a2f","JUROR_FEE_BPS()":"4253311e","JURY_MAJORITY()":"a390b499","JURY_SIZE()":"afaec527","LARGE_BOUNTY_THRESHOLD()":"8fd109bf","MAX_CIPHER_BYTES()":"a03f1bbe","MAX_EXECUTION_WINDOW()":"c2ca64ef","METABOLIC_TAX_BPS()":"14acad70","MIN_EXECUTION_WINDOW()":"c4b13ca7","SMALL_BOUNTY_THRESHOLD()":"4fa70c6c","WHISTLEBLOWER_BPS()":"c826a3d1","broadcastPhaseShift(uint256,bytes)":"80be11b3","castJuryVote(uint256,bool)":"5c412905","challengeSubmission(uint256)":"b2c221f2","challenges(uint256)":"8f1d3776","commitClaim(uint256,bytes32)":"dfbe94a2","coreContributor()":"36f7b957","coreContributorTaxSunset()":"293d48c9","createPayload(uint256,uint8,uint8,bytes32,uint256)":"99cf96f0","finalizeTier2(uint256)":"b90df28d","getChallenge(uint256)":"1bdd4b74","getPayload(uint256)":"1d2db6c8","globalAlphaActive()":"ce985dd9","isAlphaCreator(address)":"e7a8258e","isAlphaOperator(address)":"0a9842f7","jurorHasVoted(uint256,address)":"63c44571","nextPayloadId()":"d4659834","owner()":"8da5cb5b","pause()":"8456cb59","paused()":"5c975abb","payloads(uint256)":"590e1577","payoutRatios()":"2b676fe0","reclaimBounty(uint256)":"598bf048","registerAsJuror(uint256)":"3bc70ec0","releaseExpiredClaim(uint256)":"3c64b5e3","revealTier1(uint256,bytes,bytes32)":"479cddde","revealTier2(uint256,bytes,bytes32)":"d9a5bf07","routingPath(uint256,uint256)":"46006c68","setAlphaCreator(address,bool)":"6d736a49","setAlphaOperator(address,bool)":"0445320e","setRoutingPath(uint256,address[])":"c94baa58","soulboundMass()":"8fa662bb","sunsetCoreContributorTax()":"d651d4d7","toggleGlobalAlpha(bool)":"d015b33e","transferOwnership(address)":"f2fde38b","treasury()":"61d027b3","unpause()":"3f4ba83a","updatePayoutRatios(uint16,uint16,uint16)":"2d94d20b","usdc()":"3e413bee"},"id":20}