{"abi":[{"type":"constructor","inputs":[{"name":"_usdc","type":"address","internalType":"address"},{"name":"_soulboundMass","type":"address","internalType":"address"},{"name":"_treasury","type":"address","internalType":"address"},{"name":"_coreContributor","type":"address","internalType":"address"}],"stateMutability":"nonpayable"},{"type":"function","name":"CHALLENGE_BOND_BPS","inputs":[],"outputs":[{"name":"","type":"uint16","internalType":"uint16"}],"stateMutability":"view"},{"type":"function","name":"CORE_CONTRIBUTOR_BPS","inputs":[],"outputs":[{"name":"","type":"uint16","internalType":"uint16"}],"stateMutability":"view"},{"type":"function","name":"ESCROW_LARGE","inputs":[],"outputs":[{"name":"","type":"uint256","internalType":"uint256"}],"stateMutability":"view"},{"type":"function","name":"ESCROW_MEDIUM","inputs":[],"outputs":[{"name":"","type":"uint256","internalType":"uint256"}],"stateMutability":"view"},{"type":"function","name":"ESCROW_SMALL","inputs":[],"outputs":[{"name":"","type":"uint256","internalType":"uint256"}],"stateMutability":"view"},{"type":"function","name":"JUROR_BOND_BPS","inputs":[],"outputs":[{"name":"","type":"uint16","internalType":"uint16"}],"stateMutability":"view"},{"type":"function","name":"JUROR_FEE_BPS","inputs":[],"outputs":[{"name":"","type":"uint16","internalType":"uint16"}],"stateMutability":"view"},{"type":"function","name":"JURY_MAJORITY","inputs":[],"outputs":[{"name":"","type":"uint8","internalType":"uint8"}],"stateMutability":"view"},{"type":"function","name":"JURY_SIZE","inputs":[],"outputs":[{"name":"","type":"uint8","internalType":"uint8"}],"stateMutability":"view"},{"type":"function","name":"LARGE_BOUNTY_THRESHOLD","inputs":[],"outputs":[{"name":"","type":"uint256","internalType":"uint256"}],"stateMutability":"view"},{"type":"function","name":"MAX_EXECUTION_WINDOW","inputs":[],"outputs":[{"name":"","type":"uint256","internalType":"uint256"}],"stateMutability":"view"},{"type":"function","name":"METABOLIC_TAX_BPS","inputs":[],"outputs":[{"name":"","type":"uint16","internalType":"uint16"}],"stateMutability":"view"},{"type":"function","name":"MIN_EXECUTION_WINDOW","inputs":[],"outputs":[{"name":"","type":"uint256","internalType":"uint256"}],"stateMutability":"view"},{"type":"function","name":"SMALL_BOUNTY_THRESHOLD","inputs":[],"outputs":[{"name":"","type":"uint256","internalType":"uint256"}],"stateMutability":"view"},{"type":"function","name":"WHISTLEBLOWER_BPS","inputs":[],"outputs":[{"name":"","type":"uint16","internalType":"uint16"}],"stateMutability":"view"},{"type":"function","name":"castJuryVote","inputs":[{"name":"payloadId","type":"uint256","internalType":"uint256"},{"name":"accept","type":"bool","internalType":"bool"}],"outputs":[],"stateMutability":"nonpayable"},{"type":"function","name":"challengeSubmission","inputs":[{"name":"payloadId","type":"uint256","internalType":"uint256"}],"outputs":[],"stateMutability":"nonpayable"},{"type":"function","name":"challenges","inputs":[{"name":"","type":"uint256","internalType":"uint256"}],"outputs":[{"name":"payloadId","type":"uint256","internalType":"uint256"},{"name":"challenger","type":"address","internalType":"address"},{"name":"challengeBond","type":"uint256","internalType":"uint256"},{"name":"challengedAt","type":"uint256","internalType":"uint256"},{"name":"acceptVotes","type":"uint8","internalType":"uint8"},{"name":"rejectVotes","type":"uint8","internalType":"uint8"},{"name":"votesSubmitted","type":"uint8","internalType":"uint8"},{"name":"isResolved","type":"bool","internalType":"bool"}],"stateMutability":"view"},{"type":"function","name":"commitClaim","inputs":[{"name":"payloadId","type":"uint256","internalType":"uint256"},{"name":"commitHash","type":"bytes32","internalType":"bytes32"}],"outputs":[],"stateMutability":"nonpayable"},{"type":"function","name":"coreContributor","inputs":[],"outputs":[{"name":"","type":"address","internalType":"address"}],"stateMutability":"view"},{"type":"function","name":"coreContributorTaxSunset","inputs":[],"outputs":[{"name":"","type":"bool","internalType":"bool"}],"stateMutability":"view"},{"type":"function","name":"createPayload","inputs":[{"name":"bountyAmount","type":"uint256","internalType":"uint256"},{"name":"frictionType","type":"uint8","internalType":"enum IAutopoieticTypes.FrictionType"},{"name":"tier","type":"uint8","internalType":"enum IAutopoieticTypes.VerificationTier"},{"name":"membraneRulesHash","type":"bytes32","internalType":"bytes32"},{"name":"executionWindowSeconds","type":"uint256","internalType":"uint256"}],"outputs":[{"name":"","type":"uint256","internalType":"uint256"}],"stateMutability":"nonpayable"},{"type":"function","name":"finalizeTier2","inputs":[{"name":"payloadId","type":"uint256","internalType":"uint256"}],"outputs":[],"stateMutability":"nonpayable"},{"type":"function","name":"getChallenge","inputs":[{"name":"payloadId","type":"uint256","internalType":"uint256"}],"outputs":[{"name":"","type":"tuple","internalType":"struct IAutopoieticTypes.Challenge","components":[{"name":"payloadId","type":"uint256","internalType":"uint256"},{"name":"challenger","type":"address","internalType":"address"},{"name":"challengeBond","type":"uint256","internalType":"uint256"},{"name":"challengedAt","type":"uint256","internalType":"uint256"},{"name":"jurors","type":"address[5]","internalType":"address[5]"},{"name":"acceptVotes","type":"uint8","internalType":"uint8"},{"name":"rejectVotes","type":"uint8","internalType":"uint8"},{"name":"votesSubmitted","type":"uint8","internalType":"uint8"},{"name":"isResolved","type":"bool","internalType":"bool"}]}],"stateMutability":"view"},{"type":"function","name":"getPayload","inputs":[{"name":"payloadId","type":"uint256","internalType":"uint256"}],"outputs":[{"name":"","type":"tuple","internalType":"struct IAutopoieticTypes.Payload","components":[{"name":"payloadId","type":"uint256","internalType":"uint256"},{"name":"creator","type":"address","internalType":"address"},{"name":"bountyAmount","type":"uint256","internalType":"uint256"},{"name":"frictionType","type":"uint8","internalType":"enum IAutopoieticTypes.FrictionType"},{"name":"tier","type":"uint8","internalType":"enum IAutopoieticTypes.VerificationTier"},{"name":"membraneRulesHash","type":"bytes32","internalType":"bytes32"},{"name":"executionWindowSeconds","type":"uint256","internalType":"uint256"},{"name":"createdAt","type":"uint256","internalType":"uint256"},{"name":"isClaimed","type":"bool","internalType":"bool"},{"name":"isSolved","type":"bool","internalType":"bool"},{"name":"isChallenged","type":"bool","internalType":"bool"},{"name":"claimedBy","type":"address","internalType":"address"},{"name":"claimExpiry","type":"uint256","internalType":"uint256"},{"name":"solutionHash","type":"bytes32","internalType":"bytes32"}]}],"stateMutability":"view"},{"type":"function","name":"jurorHasVoted","inputs":[{"name":"","type":"uint256","internalType":"uint256"},{"name":"","type":"address","internalType":"address"}],"outputs":[{"name":"","type":"bool","internalType":"bool"}],"stateMutability":"view"},{"type":"function","name":"nextPayloadId","inputs":[],"outputs":[{"name":"","type":"uint256","internalType":"uint256"}],"stateMutability":"view"},{"type":"function","name":"owner","inputs":[],"outputs":[{"name":"","type":"address","internalType":"address"}],"stateMutability":"view"},{"type":"function","name":"pause","inputs":[],"outputs":[],"stateMutability":"nonpayable"},{"type":"function","name":"paused","inputs":[],"outputs":[{"name":"","type":"bool","internalType":"bool"}],"stateMutability":"view"},{"type":"function","name":"payloads","inputs":[{"name":"","type":"uint256","internalType":"uint256"}],"outputs":[{"name":"payloadId","type":"uint256","internalType":"uint256"},{"name":"creator","type":"address","internalType":"address"},{"name":"bountyAmount","type":"uint256","internalType":"uint256"},{"name":"frictionType","type":"uint8","internalType":"enum IAutopoieticTypes.FrictionType"},{"name":"tier","type":"uint8","internalType":"enum IAutopoieticTypes.VerificationTier"},{"name":"membraneRulesHash","type":"bytes32","internalType":"bytes32"},{"name":"executionWindowSeconds","type":"uint256","internalType":"uint256"},{"name":"createdAt","type":"uint256","internalType":"uint256"},{"name":"isClaimed","type":"bool","internalType":"bool"},{"name":"isSolved","type":"bool","internalType":"bool"},{"name":"isChallenged","type":"bool","internalType":"bool"},{"name":"claimedBy","type":"address","internalType":"address"},{"name":"claimExpiry","type":"uint256","internalType":"uint256"},{"name":"solutionHash","type":"bytes32","internalType":"bytes32"}],"stateMutability":"view"},{"type":"function","name":"payoutRatios","inputs":[],"outputs":[{"name":"capillaryBps","type":"uint16","internalType":"uint16"},{"name":"mycelialBps","type":"uint16","internalType":"uint16"},{"name":"conduitBps","type":"uint16","internalType":"uint16"}],"stateMutability":"view"},{"type":"function","name":"registerAsJuror","inputs":[{"name":"payloadId","type":"uint256","internalType":"uint256"}],"outputs":[],"stateMutability":"nonpayable"},{"type":"function","name":"releaseExpiredClaim","inputs":[{"name":"payloadId","type":"uint256","internalType":"uint256"}],"outputs":[],"stateMutability":"nonpayable"},{"type":"function","name":"revealTier1","inputs":[{"name":"payloadId","type":"uint256","internalType":"uint256"},{"name":"solution","type":"bytes","internalType":"bytes"},{"name":"secret","type":"bytes32","internalType":"bytes32"}],"outputs":[],"stateMutability":"nonpayable"},{"type":"function","name":"revealTier2","inputs":[{"name":"payloadId","type":"uint256","internalType":"uint256"},{"name":"solution","type":"bytes","internalType":"bytes"},{"name":"secret","type":"bytes32","internalType":"bytes32"}],"outputs":[],"stateMutability":"nonpayable"},{"type":"function","name":"routingPath","inputs":[{"name":"","type":"uint256","internalType":"uint256"},{"name":"","type":"uint256","internalType":"uint256"}],"outputs":[{"name":"","type":"address","internalType":"address"}],"stateMutability":"view"},{"type":"function","name":"setRoutingPath","inputs":[{"name":"payloadId","type":"uint256","internalType":"uint256"},{"name":"nodes","type":"address[]","internalType":"address[]"}],"outputs":[],"stateMutability":"nonpayable"},{"type":"function","name":"soulboundMass","inputs":[],"outputs":[{"name":"","type":"address","internalType":"contract ISoulboundMass"}],"stateMutability":"view"},{"type":"function","name":"sunsetCoreContributorTax","inputs":[],"outputs":[],"stateMutability":"nonpayable"},{"type":"function","name":"transferOwnership","inputs":[{"name":"newOwner","type":"address","internalType":"address"}],"outputs":[],"stateMutability":"nonpayable"},{"type":"function","name":"treasury","inputs":[],"outputs":[{"name":"","type":"address","internalType":"address"}],"stateMutability":"view"},{"type":"function","name":"unpause","inputs":[],"outputs":[],"stateMutability":"nonpayable"},{"type":"function","name":"updatePayoutRatios","inputs":[{"name":"capillary","type":"uint16","internalType":"uint16"},{"name":"mycelial","type":"uint16","internalType":"uint16"},{"name":"conduit","type":"uint16","internalType":"uint16"}],"outputs":[],"stateMutability":"nonpayable"},{"type":"function","name":"usdc","inputs":[],"outputs":[{"name":"","type":"address","internalType":"contract IERC20"}],"stateMutability":"view"},{"type":"event","name":"AgentQuarantined","inputs":[{"name":"agent","type":"address","indexed":true,"internalType":"address"},{"name":"consecutiveFailures","type":"uint256","indexed":false,"internalType":"uint256"}],"anonymous":false},{"type":"event","name":"ChallengeResolved","inputs":[{"name":"payloadId","type":"uint256","indexed":true,"internalType":"uint256"},{"name":"upheld","type":"bool","indexed":false,"internalType":"bool"},{"name":"solver","type":"address","indexed":true,"internalType":"address"}],"anonymous":false},{"type":"event","name":"CommitExpired","inputs":[{"name":"payloadId","type":"uint256","indexed":true,"internalType":"uint256"},{"name":"failedAgent","type":"address","indexed":true,"internalType":"address"}],"anonymous":false},{"type":"event","name":"MassBurned","inputs":[{"name":"agent","type":"address","indexed":true,"internalType":"address"},{"name":"amount","type":"uint256","indexed":false,"internalType":"uint256"}],"anonymous":false},{"type":"event","name":"MassMinted","inputs":[{"name":"agent","type":"address","indexed":true,"internalType":"address"},{"name":"amount","type":"uint256","indexed":false,"internalType":"uint256"}],"anonymous":false},{"type":"event","name":"PayloadChallenged","inputs":[{"name":"payloadId","type":"uint256","indexed":true,"internalType":"uint256"},{"name":"challenger","type":"address","indexed":true,"internalType":"address"},{"name":"bond","type":"uint256","indexed":false,"internalType":"uint256"}],"anonymous":false},{"type":"event","name":"PayloadCommitted","inputs":[{"name":"payloadId","type":"uint256","indexed":true,"internalType":"uint256"},{"name":"agent","type":"address","indexed":true,"internalType":"address"},{"name":"claimExpiry","type":"uint256","indexed":false,"internalType":"uint256"}],"anonymous":false},{"type":"event","name":"PayloadCreated","inputs":[{"name":"payloadId","type":"uint256","indexed":true,"internalType":"uint256"},{"name":"creator","type":"address","indexed":true,"internalType":"address"},{"name":"bountyAmount","type":"uint256","indexed":false,"internalType":"uint256"},{"name":"frictionType","type":"uint8","indexed":false,"internalType":"enum IAutopoieticTypes.FrictionType"},{"name":"tier","type":"uint8","indexed":false,"internalType":"enum IAutopoieticTypes.VerificationTier"}],"anonymous":false},{"type":"event","name":"PayloadSolved","inputs":[{"name":"payloadId","type":"uint256","indexed":true,"internalType":"uint256"},{"name":"solver","type":"address","indexed":true,"internalType":"address"},{"name":"solverPayout","type":"uint256","indexed":false,"internalType":"uint256"},{"name":"massAccrued","type":"uint256","indexed":false,"internalType":"uint256"}],"anonymous":false}],"bytecode":{"object":"0x60c0346200019a57601f6200364038819003918201601f19168301926001600160401b0392909183851183861017620001865781608092849260409788528339810103126200019a5762000053816200019e565b62000061602083016200019e565b906200007d6060620000758786016200019e565b94016200019e565b9060018060a01b0392838092166080521660a0528160018060a01b031993168360015416176001551681600254161760025533905f5416175f5581519060608201908282109082111762000186578252611f408152816103e89182602082015201526503e803e81f4065ffffffffffff1960075416176007555161348c9081620001b48239608051818181610a5201528181610f0701528181610f880152818161128a015281816112ee0152818161190b015281816119e601528181611b37015281816120210152818161230501526130ed015260a05181818161030f015281816109ce015281816114d301528181611a73015281816120ec0152818161226a01526131b40152f35b634e487b7160e01b5f52604160045260245ffd5b5f80fd5b51906001600160a01b03821682036200019a5756fe60806040526004361015610011575f80fd5b5f803560e01c80630b612ecc14612b2457806314acad7014612b245780631bdd4b741461296a5780631d2db6c81461275f578063293d48c91461273a5780632b676fe0146127035780632d94d20b146125fd57806336f7b957146125d55780633bc70ec0146121c75780633c64b5e31461206e5780633d3f310d146120505780633e413bee1461200b5780633f4ba83a14611fd95780634253311e1461077c57806346006c6814611f86578063479cddde14611dba5780634fa70c6c14611d9b578063590e157714611cb55780635c412905146116805780635c975abb1461165d57806361d027b31461163457806363c44571146115e45780638456cb59146115af5780638da5cb5b146115885780638f1d3776146115025780638fa662bb146114bd5780638fd109bf1461149d578063972537091461148057806399cf96f014610e63578063a390b49914610e47578063afaec52714610e2b578063b2c221f214610920578063b90df28d1461079d578063ba4e652f14610781578063bcd38a2f1461077c578063c2ca64ef14610634578063c4b13ca71461075f578063c826a3d114610743578063c94baa5814610639578063ca63f73014610634578063d465983414610616578063d651d4d7146105db578063d9a5bf07146104c3578063dfbe94a2146102a15763f2fde38b14610209575f80fd5b3461029e57602036600319011261029e576004356001600160a01b038181169182900361029a5761023f83549182163314612cc4565b8115610255576001600160a01b03191617815580f35b60405162461bcd60e51b815260206004820152601860248201527f457363726f77436f72653a207a65726f206164647265737300000000000000006044820152606490fd5b5f80fd5b80fd5b503461029e57604036600319011261029e57600435602435906102c960ff6008541615612d15565b808352602060048152604084209260078401805460ff811661047e576102f560ff8260081c1615612e55565b60405163090baddf60e31b815233600482015284816024817f00000000000000000000000000000000000000000000000000000000000000006001600160a01b03165afa908115610473578891610446575b506104015782156103bc5762ffff01600160b81b0319163360181b6301000000600160b81b03161760011790557fd2e3baa0ba04fd3d4bffac72602ef5edff3995f03905d02f615e2348aa9ab9e0919060096103a7600587015442612d08565b9586600882015501556040519384523393a380f35b60405162461bcd60e51b815260048101859052601860248201527f457363726f77436f72653a20656d70747920636f6d6d697400000000000000006044820152606490fd5b60405162461bcd60e51b815260048101859052601d60248201527f457363726f77436f72653a206167656e742071756172616e74696e65640000006044820152606490fd5b6104669150853d871161046c575b61045e8183612c8a565b810190612da2565b5f610347565b503d610454565b6040513d8a823e3d90fd5b60405162461bcd60e51b815260048101859052601b60248201527f457363726f77436f72653a20616c726561647920636c61696d656400000000006044820152606490fd5b503461029e576104d236612bb2565b93926104e660ff6008949394541615612d15565b83526004602052604083209161052960ff6007850154610507828216612e09565b61051f601882901c6001600160a01b03163314612ea1565b60081c1615612e55565b6008830161053a8154421115612eed565b60ff600385015460081c1660028110156105c7576105ac60026105bb96979861056860016105b29514612fd3565b60405161059160408260208101948a8c87378a8201906020820152036020810184520182612c8a565b519020976105a560098201998a5414612f2f565b015461342b565b42612d08565b90553691612f7b565b60208151910120905580f35b634e487b7160e01b86526021600452602486fd5b503461029e578060031936011261029e5761060060018060a01b038254163314612cc4565b6002805460ff60a01b1916600160a01b17905580f35b503461029e578060031936011261029e576020600354604051908152f35b612c03565b503461029e57604036600319011261029e5760243567ffffffffffffffff80821161073f573660238301121561073f57816004013590811161073f573660248260051b8401011161073f5782546001600160a01b039061069c9082163314612cc4565b600435845260206009602052604085209368010000000000000000841161072b578454848655808510610705575b50602401938552602085209385905b8482106106e4578680f35b8035918483168303610701578360019201928188015501906106d9565b8780fd5b858752846020882091820191015b81811061072057506106ca565b5f8155600101610713565b634e487b7160e01b86526041600452602486fd5b8280fd5b503461029e578060031936011261029e57602060405160c88152f35b503461029e578060031936011261029e57602060405161012c8152f35b612b6e565b503461029e578060031936011261029e57602060405160648152f35b503461029e57602036600319011261029e576004358082526004602052604082209060ff600383015460081c16600281101561090c5760016107df9114612fd3565b60078201805460ff8116806108fd575b6107f890613018565b60ff8160101c166108b85760088401544211156108735761ff001916610100178082557f01aa8e2992f26d5b7ea891f52c283d396d0ac64f6c1dd9d7236d47d29e6f49f9916040916002906001600160a01b039061085b9060181c821687613071565b925460181c169501549082519182526020820152a380f35b60405162461bcd60e51b815260206004820152601960248201527f457363726f77436f72653a20657363726f7720616374697665000000000000006044820152606490fd5b60405162461bcd60e51b815260206004820152601960248201527f457363726f77436f72653a206973206368616c6c656e676564000000000000006044820152606490fd5b50600881901c60ff16156107ef565b634e487b7160e01b84526021600452602484fd5b503461029e57602036600319011261029e5760ff90610943826008541615612d15565b600435815260046020526040812082600382015460081c166002811015610e175760016109709114612fd3565b6007810190815484811680610e09575b61098990613018565b848160101c16610dc45760088201544211610d7f573360189190911c6001600160a01b031614610d3057604051631d55a0ad60e31b81523360048201526020816024817f00000000000000000000000000000000000000000000000000000000000000006001600160a01b03165afa908115610cad578491610d11575b5015610cb857610a1c6002612710920154612ddf565b6040516323b872dd60e01b8152336004820152306024820152919004604482018190529190602081606481876001600160a01b037f0000000000000000000000000000000000000000000000000000000000000000165af1908115610cad578491610c8e575b5015610c4a57805462ff000019166201000017905560405160a0810167ffffffffffffffff811182821017610c365760405282815282602082015282604082015282606082015282608082015260405190610adc82612c20565b600435825233602083015282604083015242606083015260808201528260a082015260c081019383855260e0820190848252610100830191858352600435865260059660056020526040872097855189556001890160018060a01b036020880151166bffffffffffffffffffffffff60a01b825416179055604086015160028a0155606086015160038a0155608086015188905b828210610c165750505090610bb1838093610bc99560a060098d019901511660ff198954161788555116869061ff0082549160081b169061ff001916179055565b51845462ff00001916911660101b62ff000016178355565b51151563ff00000082549160181b169063ff000000191617905560405190815233907f3efe8a34f1bcc4bd55639d2bca39e3730c73768f6241b086a4fa9d1ccb135dac602060043592a380f35b80516001600160a01b03168b830160040155600190910190602001610b70565b634e487b7160e01b5f52604160045260245ffd5b606460405162461bcd60e51b815260206004820152602060248201527f457363726f77436f72653a20626f6e64207472616e73666572206661696c65646044820152fd5b610ca7915060203d60201161046c5761045e8183612c8a565b5f610a82565b6040513d86823e3d90fd5b60405162461bcd60e51b815260206004820152602b60248201527f457363726f77436f72653a20696e73756666696369656e74204d61737320666f60448201526a72206368616c6c656e676560a81b6064820152608490fd5b610d2a915060203d60201161046c5761045e8183612c8a565b5f610a06565b60405162461bcd60e51b815260206004820152602160248201527f457363726f77436f72653a2063616e6e6f742073656c662d6368616c6c656e676044820152606560f81b6064820152608490fd5b60405162461bcd60e51b815260206004820152601a60248201527f457363726f77436f72653a20657363726f7720657870697265640000000000006044820152606490fd5b60405162461bcd60e51b815260206004820152601e60248201527f457363726f77436f72653a20616c7265616479206368616c6c656e67656400006044820152606490fd5b50600881901c851615610980565b634e487b7160e01b83526021600452602483fd5b503461029e578060031936011261029e57602060405160058152f35b503461029e578060031936011261029e57602060405160038152f35b503461029e5760a036600319011261029e576004602435101561029e576002604435101561029e57610e9a60ff6008541615612d15565b6004351561143b5761012c60843510158061142c575b156113e757612710610ec3600435612ddf565b04610f026020610ed583600435612d08565b6040516323b872dd60e01b8152336004820152306024820152604481019190915291829081906064820190565b0381867f00000000000000000000000000000000000000000000000000000000000000006001600160a01b03165af19081156113dc5783916113bd575b50156113795760025460a01c60ff16156112285760015460405163a9059cbb60e01b81526001600160a01b039091166004820152602481019190915260208180604481010381857f00000000000000000000000000000000000000000000000000000000000000006001600160a01b03165af1801561121d576111fe575b505b6003545f1981146111ea576001810160035560405191610fde83612c3d565b8183523360208401526004356040840152610ffe60243560608501612cac565b61100d60443560808501612cb8565b60643560a084015260843560c08401524260e08401528061010084015280610120840152806101408401528061016084015280610180840152806101a084015281815260046020526040812090835182556001820160018060a01b036020860151166bffffffffffffffffffffffff60a01b82541617905560408401516002830155606084015160048110156111d657600383015460808601519260028410156111c2575061ffff191660ff91821617600892831b61ff0090811691909117600385015560a0860151600485015560c0860151600585015560e086015160068501556101008601516007850180546101208901516101408a01516101608b01516001600160b81b03199093169415159096169390931792151590951b9092161791151560101b62ff0000169190911760189290921b6301000000600160b81b03169190911790556020926009906101a090610180810151600885015501519101556040516004358152611184838201602435612b40565b61119360408201604435612b61565b817f108e45a0f55df5518e7746eab096a19dfcd3b6310f173b0f67ccafd002e0dc6860603393a3604051908152f35b634e487b7160e01b81526021600452602490fd5b634e487b7160e01b82526021600452602482fd5b634e487b7160e01b82526011600452602482fd5b6112169060203d60201161046c5761045e8183612c8a565b505f610fbd565b6040513d84823e3d90fd5b60648102818104606414821517156113655761124c6101f461128592048093613064565b60015460405163a9059cbb60e01b8082526001600160a01b03909216600482015260248101929092529091602090839081906044820190565b0381877f00000000000000000000000000000000000000000000000000000000000000006001600160a01b03165af1918215610cad57602092611348575b506002546040519182526001600160a01b0316600482015260248101929092528180604481010381857f00000000000000000000000000000000000000000000000000000000000000006001600160a01b03165af1801561121d57611329575b50610fbf565b6113419060203d60201161046c5761045e8183612c8a565b505f611323565b61135e90833d851161046c5761045e8183612c8a565b505f6112c3565b634e487b7160e01b5f52601160045260245ffd5b606460405162461bcd60e51b815260206004820152602060248201527f457363726f77436f72653a2055534443207472616e73666572206661696c65646044820152fd5b6113d6915060203d60201161046c5761045e8183612c8a565b5f610f3f565b6040513d85823e3d90fd5b60405162461bcd60e51b815260206004820152601a60248201527f457363726f77436f72653a20696e76616c69642077696e646f770000000000006044820152606490fd5b50620151806084351115610eb0565b60405162461bcd60e51b815260206004820152601760248201527f457363726f77436f72653a207a65726f20626f756e74790000000000000000006044820152606490fd5b503461029e578060031936011261029e5760206040516138408152f35b503461029e578060031936011261029e5760206040516402540be4008152f35b503461029e578060031936011261029e576040517f00000000000000000000000000000000000000000000000000000000000000006001600160a01b03168152602090f35b503461029e57602036600319011261029e57604061010091600435815260056020522060ff81549160018060a01b0360018201541690600281015460096003830154920154926040519586526020860152604085015260608401528181166080840152818160081c1660a0840152818160101c1660c084015260181c16151560e0820152f35b503461029e578060031936011261029e57546040516001600160a01b039091168152602090f35b503461029e578060031936011261029e576115d460018060a01b038254163314612cc4565b600160ff19600854161760085580f35b503461029e57604036600319011261029e576024356001600160a01b038116919082900361029a576040906004358152600660205220905f52602052602060ff60405f2054166040519015158152f35b503461029e578060031936011261029e576001546040516001600160a01b039091168152602090f35b503461029e578060031936011261029e57602060ff600854166040519015158152f35b503461029e57604036600319011261029e576024358015158103611bac5760043582526005602052604082209060098201916116c360ff845460181c1615612d56565b6004358452600660205260408420335f5260205260ff60405f205416611c70578390600401815b600560ff821610611c37575b505015611bf2576004358352600660205260408320335f5260205260405f209060ff199160018382541617905561174e61173660ff855460101c16612fc1565b845462ff0000191660109190911b62ff000016178455565b15611bc35781549060ff611763818416612fc1565b1691161781555b54600360ff82161090811591611bb0575b506117835780f35b60043581526005602052604081206004602052604082206009820191825492630100000063ff000000198516179055600360ff841610155f14611a555760078201805461ff00191661010017908190556117eb9060181c6001600160a01b0316600435613071565b506005600282015404845b600560ff8216106119665750505b60028201546127106118208161181984612dc9565b0492612dc9565b0491855b600560ff82161061187c5750505050600760018060a01b0391015460181c1690600360ff6040519216101581527f874fd3e0ba6d81d58b06aa295084dbe040084ea483a51e07e5c551498e515a3c602060043592a380f35b6118898160048401612dba565b90546001600160a01b039160031b1c81166118ab575b5060010160ff16611824565b90602082611907936118c08460048801612dba565b90549060031b1c16906118d38888612d08565b60405163a9059cbb60e01b81526001600160a01b0390931660048401526024830152909384919082908c9082906044820190565b03927f0000000000000000000000000000000000000000000000000000000000000000165af19081156104735760ff92600192611947575b50915061189f565b61195f9060203d60201161046c5761045e8183612c8a565b505f61193f565b6119738160048501612dba565b905460039190911b1c6001600160a01b0316611995575b60010160ff166117f6565b806020836119a96119e19460048801612dba565b905460405163a9059cbb60e01b815260039290921b1c6001600160a01b03166004820152602481019190915292839081906044820190565b03818a7f00000000000000000000000000000000000000000000000000000000000000006001600160a01b03165af1908115611a4a5760ff92600192611a2b575b5091505061198a565b611a439060203d60201161046c5761045e8183612c8a565b505f611a22565b6040513d89823e3d90fd5b60078201805461ff01600160b81b03191690556001600160a01b03847f00000000000000000000000000000000000000000000000000000000000000008216803b15611bac578180916024604051809481936316557e9f60e11b83525f60048401525af1801561121d57611b94575b505060028301549060c882029180830460c8149015171561136557611b339181611aff61271060209460018801541693046002870154612d08565b60405163a9059cbb60e01b81526001600160a01b039093166004840152602483015290928391908290899082906044820190565b03927f0000000000000000000000000000000000000000000000000000000000000000165af18015611b8957611b6a575b50611804565b611b829060203d60201161046c5761045e8183612c8a565b505f611b64565b6040513d87823e3d90fd5b611b9d90612c5a565b611ba857845f611ac4565b8480fd5b5080fd5b6003915060ff9060081c1610155f61177b565b50611bed611bd760ff835460081c16612fc1565b825461ff00191660089190911b61ff0016178255565b61176a565b60405162461bcd60e51b815260206004820152601760248201527f457363726f77436f72653a206e6f742061206a75726f720000000000000000006044820152606490fd5b611c418183612dba565b905460039190911b1c6001600160a01b03163314611c645760010160ff166116ea565b50505060015f806116f6565b60405162461bcd60e51b815260206004820152601960248201527f457363726f77436f72653a20616c726561647920766f746564000000000000006044820152606490fd5b503461029e57602036600319011261029e5760406101c091600435815260046020522080549060018060a01b03908160018201541691600282015460038301546004840154600585015490611d4a600687015493600788015495600960088a0154990154996040519b8c5260208c015260408b0152611d3a60608b0160ff8316612b40565b60ff60808b019160081c16612b61565b60a088015260c087015260e086015260ff8116151561010086015260ff8160081c16151561012086015260ff8160101c16151561014086015260181c166101608401526101808301526101a0820152f35b503461029e578060031936011261029e576020604051631dcd65008152f35b503461029e57611dc936612bb2565b929190611ddb60ff6008541615612d15565b8285526020936004855260408620926007840192835492611dfe60ff8516612e09565b611e16601885901c6001600160a01b03163314612ea1565b611e2660ff8560081c1615612e55565b611e366008870154421115612eed565b60ff600387015460081c166002811015611f7257611f345790611e8b611e929392604051611e7d6040828d80820195888a883788830191820152038d810184520182612c8a565b519020600988015414612f2f565b3691612f7b565b858151910120600484015403611eef5761ff0019166101001790556002611eb93384613071565b910154926040519384528301527f01aa8e2992f26d5b7ea891f52c283d396d0ac64f6c1dd9d7236d47d29e6f49f960403393a380f35b60405162461bcd60e51b815260048101869052601e60248201527f457363726f77436f72653a206d656d6272616e652072656a656374696f6e00006044820152606490fd5b60405162461bcd60e51b8152600481018990526016602482015275457363726f77436f72653a206e6f742054696572203160501b6044820152606490fd5b634e487b7160e01b8a52602160045260248afd5b503461029e57604036600319011261029e5760243590600435815260096020526040812090815483101561029e576020611fc08484612b89565b905460405160039290921b1c6001600160a01b03168152f35b503461029e578060031936011261029e57611ffe60018060a01b038254163314612cc4565b60ff196008541660085580f35b503461029e578060031936011261029e576040517f00000000000000000000000000000000000000000000000000000000000000006001600160a01b03168152602090f35b503461029e578060031936011261029e5760206040516203f4808152f35b503461029a57602036600319011261029a57600435805f52600460205260405f2090600782018054926120a360ff8516612e09565b6120b360ff8560081c1615612e55565b6008810180544211156121825762ffff01600160b81b031985169092555f91829055600901556001600160a01b0360189290921c8216917f000000000000000000000000000000000000000000000000000000000000000016803b1561029a575f80916024604051809481936316557e9f60e11b83528860048401525af1801561217757612164575b507fd0a03fcd76035ea4099a4b92ed2d181a6e9af9a6f582f9445f09061c892a75e18380a380f35b61216f919350612c5a565b5f915f61213c565b6040513d5f823e3d90fd5b60405162461bcd60e51b815260206004820152601760248201527f457363726f77436f72653a206e6f7420657870697265640000000000000000006044820152606490fd5b3461029a5760208060031936011261029a5760ff6121ea60ff6008541615612d15565b6004355f526005906005835260405f20916004845260405f209160078301549360ff8560101c16156125905761222a60ff600983015460181c1615612d56565b6001600160a01b039460181c85163314612540576001908560018201541633146124ec57604051631d55a0ad60e31b8152336004820152602490888183817f00000000000000000000000000000000000000000000000000000000000000008c165afa908115612177575f916124cf575b501561248a575f9491600401855b83868216106123db575b5050505050501561239e576122ce6002612710920154612dc9565b0490816122d757005b6040516323b872dd60e01b815233600482015230602482015260448101929092528290829060649082905f907f0000000000000000000000000000000000000000000000000000000000000000165af1908115612177575f91612381575b501561233d57005b6064906040519062461bcd60e51b82526004820152601d60248201527f457363726f77436f72653a206a75726f7220626f6e64206661696c65640000006044820152fd5b6123989150823d841161046c5761045e8183612c8a565b82612335565b60405162461bcd60e51b8152600481018490526015602482015274115cd8dc9bddd0dbdc994e881a9d5c9e48199d5b1b605a1b6044820152606490fd5b886123e68284612dba565b919054600392831b1c161561245c57896124008385612dba565b929092339354911b1c161461241857840185166122a9565b60405162461bcd60e51b8152600481018b9052601e818501527f457363726f77436f72653a20616c7265616479207265676973746572656400006044820152606490fd5b95509250905061246d929450612dba565b81929154911b908533831b921b19161790558480808080806122b3565b60405162461bcd60e51b815260048101899052601d60248201527f457363726f77436f72653a20696e73756666696369656e74204d6173730000006044820152606490fd5b6124e69150893d8b1161046c5761045e8183612c8a565b8961229b565b60405162461bcd60e51b815260048101889052602660248201527f457363726f77436f72653a206368616c6c656e6765722063616e6e6f7420626560448201526510353ab937b960d11b6064820152608490fd5b60405162461bcd60e51b815260048101879052602260248201527f457363726f77436f72653a20736f6c7665722063616e6e6f74206265206a757260448201526137b960f11b6064820152608490fd5b60405162461bcd60e51b815260048101879052601a60248201527f457363726f77436f72653a206e6f74206368616c6c656e6765640000000000006044820152606490fd5b3461029a575f36600319011261029a576002546040516001600160a01b039091168152602090f35b3461029a57606036600319011261029a5760043561ffff9081811680910361029a576024359082821680830361029a576044359384169081850361029a57612710916126606126659261265a60018060a01b035f54163314612cc4565b85612d08565b612d08565b036126b25760405167ffffffffffffffff60608201918210911117610c365763ffff00009065ffff000000006007549460201b169365ffffffffffff1916179160101b1617176007555f80f35b60405162461bcd60e51b8152602060048201526024808201527f457363726f77436f72653a20726174696f73206d7573742073756d20746f20316044820152630303030360e41b6064820152608490fd5b3461029a575f36600319011261029a57606060075461ffff604051918181168352818160101c16602084015260201c166040820152f35b3461029a575f36600319011261029a57602060ff60025460a01c166040519015158152f35b3461029a57602036600319011261029a575f6101a060405161278081612c3d565b8281528260208201528260408201528260608201528260808201528260a08201528260c08201528260e0820152826101008201528261012082015282610140820152826101608201528261018082015201526004355f5260046020526101c060405f206009604051916127f283612c3d565b8054835260018101546001600160a01b0316602084015260028101546040840152600381015461283b9060ff9061282e81831660608801612cac565b60081c1660808501612cb8565b600481015460a0840152600581015460c0840152600681015460e0840152600781015460ff8116151561010085015260ff8160081c16151561012085015260ff8160101c16151561014085015260018060a01b039060181c16610160840152600881015461018084015201546101a08201526101a0604051918051835260018060a01b036020820151166020840152604081015160408401526128e660608201516060850190612b40565b6128f860808201516080850190612b61565b60a081015160a084015260c081015160c084015260e081015160e084015261010081015115156101008401526101208101511515610120840152610140810151151561014084015260018060a01b036101608201511661016084015261018081015161018084015201516101a0820152f35b3461029a57602036600319011261029a575f61010060405161298b81612c20565b8281528260208201528260408201528260608201526040516129ac81612c6e565b60a036823760808201528260a08201528260c08201528260e082015201526004355f52600560205260405f20604051906129e582612c20565b8054825260018101546001600160a01b0316602083015260028101546040808401919091526003820154606084015251600482015f825b60058210612b04578560098686612a3281612c6e565b6080840152015460ff811660a083015260ff60c0830191818160081c168352818160101c1660e085015260181c161515610100830152604051908251825260018060a01b03602084015116602083015260408301516040830152606083015160608301526080830151608083015f905b60058210612ae4576101a0856101008860ff888160a084015116610120860152511661014084015260ff60e08201511661016084015201511515610180820152f35b82516001600160a01b031681526020928301926001929092019101612aa2565b82546001600160a01b031681526001928301929190910190602001612a1c565b3461029a575f36600319011261029a5760206040516101f48152f35b906004821015612b4d5752565b634e487b7160e01b5f52602160045260245ffd5b906002821015612b4d5752565b3461029a575f36600319011261029a57602060405160328152f35b8054821015612b9e575f5260205f2001905f90565b634e487b7160e01b5f52603260045260245ffd5b606060031982011261029a576004359160243567ffffffffffffffff9283821161029a578060238301121561029a57816004013593841161029a576024848301011161029a57602401919060443590565b3461029a575f36600319011261029a576020604051620151808152f35b610120810190811067ffffffffffffffff821117610c3657604052565b6101c0810190811067ffffffffffffffff821117610c3657604052565b67ffffffffffffffff8111610c3657604052565b60a0810190811067ffffffffffffffff821117610c3657604052565b90601f8019910116810190811067ffffffffffffffff821117610c3657604052565b6004821015612b4d5752565b6002821015612b4d5752565b15612ccb57565b60405162461bcd60e51b815260206004820152601560248201527422b9b1b937bba1b7b9329d103737ba1037bbb732b960591b6044820152606490fd5b9190820180921161136557565b15612d1c57565b60405162461bcd60e51b8152602060048201526012602482015271115cd8dc9bddd0dbdc994e881c185d5cd95960721b6044820152606490fd5b15612d5d57565b60405162461bcd60e51b815260206004820152601c60248201527f457363726f77436f72653a20616c7265616479207265736f6c766564000000006044820152606490fd5b9081602091031261029a5751801515810361029a5790565b6005821015612b9e5701905f90565b9060328202918083046032149015171561136557565b906101f49182810292818404149015171561136557565b8181029291811591840414171561136557565b15612e1057565b60405162461bcd60e51b815260206004820152601760248201527f457363726f77436f72653a206e6f7420636c61696d65640000000000000000006044820152606490fd5b15612e5c57565b60405162461bcd60e51b815260206004820152601a60248201527f457363726f77436f72653a20616c726561647920736f6c7665640000000000006044820152606490fd5b15612ea857565b60405162461bcd60e51b815260206004820152601a60248201527f457363726f77436f72653a206e6f7420796f757220636c61696d0000000000006044820152606490fd5b15612ef457565b60405162461bcd60e51b8152602060048201526013602482015272115cd8dc9bddd0dbdc994e88195e1c1a5c9959606a1b6044820152606490fd5b15612f3657565b60405162461bcd60e51b815260206004820152601b60248201527f457363726f77436f72653a20636f6d6d6974206d69736d6174636800000000006044820152606490fd5b92919267ffffffffffffffff8211610c365760405191612fa5601f8201601f191660200184612c8a565b82948184528183011161029a578281602093845f960137010152565b60ff60019116019060ff821161136557565b15612fda57565b60405162461bcd60e51b815260206004820152601660248201527522b9b1b937bba1b7b9329d103737ba102a34b2b9101960511b6044820152606490fd5b1561301f57565b60405162461bcd60e51b815260206004820152601960248201527f457363726f77436f72653a20696e76616c6964207374617465000000000000006044820152606490fd5b9190820391821161136557565b90815f526004906020908282526040916002835f20015490600754906127106130af61ffff826130a382871688612df6565b049460101c1685612df6565b04916130c4836130bf8387613064565b613064565b865163a9059cbb60e01b8082526001600160a01b03888116838c0190815260208101959095529a7f00000000000000000000000000000000000000000000000000000000000000008c16949192909186908290819060400103815f895af19081156133c3575f9161340e575b50156133cd57600180548a51848152908d166001600160a01b03168c82019081526020810198909852909686908290819060400103815f895af19081156133c3575f916133a6575b5015613363575f5260098452875f2091825415155f146132eb5782549081156132d85704915f865b613239575b505050505050506064905b04937f00000000000000000000000000000000000000000000000000000000000000001692833b1561029a578251633a8439ab60e21b81526001600160a01b039092169082019081526020810185905290925f9184919082908490829060400103925af19081156132305750613224575090565b61322d90612c5a565b90565b513d5f823e3d90fd5b81548110156132d3578b868b8d613283886132548789612b89565b939054945196879586958c875260031b1c1690840160209093929193604081019460018060a01b031681520152565b03815f8a5af180156132c95791889796959493929188926132ac575b50019091929394956131a0565b6132c290883d8a1161046c5761045e8183612c8a565b505f61329f565b8b513d5f823e3d90fd5b6131a5565b60128b634e487b7160e01b5f525260245ffd5b60015489519283528b166001600160a01b03168a830190815260208101919091529394509284928492509082905f90829060400103925af180156133595790606493929161333b575b50506131b0565b8161335192903d1061046c5761045e8183612c8a565b505f80613334565b85513d5f823e3d90fd5b885162461bcd60e51b8152808b01869052601b60248201527f457363726f77436f72653a206d7963656c69616c206661696c656400000000006044820152606490fd5b6133bd9150863d881161046c5761045e8183612c8a565b5f613178565b8a513d5f823e3d90fd5b60648a86808c519262461bcd60e51b845283015260248201527f457363726f77436f72653a20736f6c766572207061796f7574206661696c65646044820152fd5b6134259150863d881161046c5761045e8183612c8a565b5f613130565b631dcd6500811061344f576402540be40011613448576203f48090565b6201518090565b506138409056fea2646970667358221220e2d42e652a5047c09bd8cfddebcb4156193b81d397a99fada959ac4a75456c6e64736f6c63430008180033","linkReferences":{}},"methodIdentifiers":{"CHALLENGE_BOND_BPS()":"0b612ecc","CORE_CONTRIBUTOR_BPS()":"ba4e652f","ESCROW_LARGE()":"3d3f310d","ESCROW_MEDIUM()":"ca63f730","ESCROW_SMALL()":"97253709","JUROR_BOND_BPS()":"bcd38a2f","JUROR_FEE_BPS()":"4253311e","JURY_MAJORITY()":"a390b499","JURY_SIZE()":"afaec527","LARGE_BOUNTY_THRESHOLD()":"8fd109bf","MAX_EXECUTION_WINDOW()":"c2ca64ef","METABOLIC_TAX_BPS()":"14acad70","MIN_EXECUTION_WINDOW()":"c4b13ca7","SMALL_BOUNTY_THRESHOLD()":"4fa70c6c","WHISTLEBLOWER_BPS()":"c826a3d1","castJuryVote(uint256,bool)":"5c412905","challengeSubmission(uint256)":"b2c221f2","challenges(uint256)":"8f1d3776","commitClaim(uint256,bytes32)":"dfbe94a2","coreContributor()":"36f7b957","coreContributorTaxSunset()":"293d48c9","createPayload(uint256,uint8,uint8,bytes32,uint256)":"99cf96f0","finalizeTier2(uint256)":"b90df28d","getChallenge(uint256)":"1bdd4b74","getPayload(uint256)":"1d2db6c8","jurorHasVoted(uint256,address)":"63c44571","nextPayloadId()":"d4659834","owner()":"8da5cb5b","pause()":"8456cb59","paused()":"5c975abb","payloads(uint256)":"590e1577","payoutRatios()":"2b676fe0","registerAsJuror(uint256)":"3bc70ec0","releaseExpiredClaim(uint256)":"3c64b5e3","revealTier1(uint256,bytes,bytes32)":"479cddde","revealTier2(uint256,bytes,bytes32)":"d9a5bf07","routingPath(uint256,uint256)":"46006c68","setRoutingPath(uint256,address[])":"c94baa58","soulboundMass()":"8fa662bb","sunsetCoreContributorTax()":"d651d4d7","transferOwnership(address)":"f2fde38b","treasury()":"61d027b3","unpause()":"3f4ba83a","updatePayoutRatios(uint16,uint16,uint16)":"2d94d20b","usdc()":"3e413bee"},"id":20}