{"abi":[{"type":"constructor","inputs":[],"stateMutability":"nonpayable"},{"type":"function","name":"BOOTSTRAP_MASS_THRESHOLD","inputs":[],"outputs":[{"name":"","type":"uint256","internalType":"uint256"}],"stateMutability":"view"},{"type":"function","name":"JURY_MASS_THRESHOLD","inputs":[],"outputs":[{"name":"","type":"uint256","internalType":"uint256"}],"stateMutability":"view"},{"type":"function","name":"QUARANTINE_THRESHOLD","inputs":[],"outputs":[{"name":"","type":"uint8","internalType":"uint8"}],"stateMutability":"view"},{"type":"function","name":"accrueMass","inputs":[{"name":"agent","type":"address","internalType":"address"},{"name":"amount","type":"uint256","internalType":"uint256"}],"outputs":[],"stateMutability":"nonpayable"},{"type":"function","name":"approve","inputs":[{"name":"","type":"address","internalType":"address"},{"name":"","type":"uint256","internalType":"uint256"}],"outputs":[],"stateMutability":"pure"},{"type":"function","name":"authorizeMinter","inputs":[{"name":"minter","type":"address","internalType":"address"}],"outputs":[],"stateMutability":"nonpayable"},{"type":"function","name":"authorizedMinters","inputs":[{"name":"","type":"address","internalType":"address"}],"outputs":[{"name":"","type":"bool","internalType":"bool"}],"stateMutability":"view"},{"type":"function","name":"canRegisterAsBootstrap","inputs":[{"name":"agent","type":"address","internalType":"address"}],"outputs":[{"name":"","type":"bool","internalType":"bool"}],"stateMutability":"view"},{"type":"function","name":"canServeAsJuror","inputs":[{"name":"agent","type":"address","internalType":"address"}],"outputs":[{"name":"","type":"bool","internalType":"bool"}],"stateMutability":"view"},{"type":"function","name":"consecutiveFailures","inputs":[{"name":"","type":"address","internalType":"address"}],"outputs":[{"name":"","type":"uint8","internalType":"uint8"}],"stateMutability":"view"},{"type":"function","name":"getMass","inputs":[{"name":"agent","type":"address","internalType":"address"}],"outputs":[{"name":"","type":"uint256","internalType":"uint256"}],"stateMutability":"view"},{"type":"function","name":"isQuarantined","inputs":[{"name":"","type":"address","internalType":"address"}],"outputs":[{"name":"","type":"bool","internalType":"bool"}],"stateMutability":"view"},{"type":"function","name":"mass","inputs":[{"name":"","type":"address","internalType":"address"}],"outputs":[{"name":"","type":"uint256","internalType":"uint256"}],"stateMutability":"view"},{"type":"function","name":"owner","inputs":[],"outputs":[{"name":"","type":"address","internalType":"address"}],"stateMutability":"view"},{"type":"function","name":"payloadsSolved","inputs":[{"name":"","type":"address","internalType":"address"}],"outputs":[{"name":"","type":"uint256","internalType":"uint256"}],"stateMutability":"view"},{"type":"function","name":"recordFailure","inputs":[{"name":"agent","type":"address","internalType":"address"}],"outputs":[],"stateMutability":"nonpayable"},{"type":"function","name":"reinstate","inputs":[{"name":"agent","type":"address","internalType":"address"}],"outputs":[],"stateMutability":"nonpayable"},{"type":"function","name":"revokeMinter","inputs":[{"name":"minter","type":"address","internalType":"address"}],"outputs":[],"stateMutability":"nonpayable"},{"type":"function","name":"slashMass","inputs":[{"name":"agent","type":"address","internalType":"address"},{"name":"severity","type":"uint256","internalType":"uint256"}],"outputs":[],"stateMutability":"nonpayable"},{"type":"function","name":"totalMass","inputs":[],"outputs":[{"name":"","type":"uint256","internalType":"uint256"}],"stateMutability":"view"},{"type":"function","name":"transfer","inputs":[{"name":"","type":"address","internalType":"address"},{"name":"","type":"uint256","internalType":"uint256"}],"outputs":[],"stateMutability":"pure"},{"type":"function","name":"transferOwnership","inputs":[{"name":"newOwner","type":"address","internalType":"address"}],"outputs":[],"stateMutability":"nonpayable"},{"type":"event","name":"AgentQuarantined","inputs":[{"name":"agent","type":"address","indexed":true,"internalType":"address"}],"anonymous":false},{"type":"event","name":"AgentReinstated","inputs":[{"name":"agent","type":"address","indexed":true,"internalType":"address"}],"anonymous":false},{"type":"event","name":"FailureRecorded","inputs":[{"name":"agent","type":"address","indexed":true,"internalType":"address"},{"name":"consecutive","type":"uint8","indexed":false,"internalType":"uint8"}],"anonymous":false},{"type":"event","name":"MassAccrued","inputs":[{"name":"agent","type":"address","indexed":true,"internalType":"address"},{"name":"amount","type":"uint256","indexed":false,"internalType":"uint256"},{"name":"newTotal","type":"uint256","indexed":false,"internalType":"uint256"}],"anonymous":false},{"type":"event","name":"MassSlashed","inputs":[{"name":"agent","type":"address","indexed":true,"internalType":"address"},{"name":"amount","type":"uint256","indexed":false,"internalType":"uint256"},{"name":"newTotal","type":"uint256","indexed":false,"internalType":"uint256"}],"anonymous":false},{"type":"event","name":"MinterAuthorized","inputs":[{"name":"minter","type":"address","indexed":true,"internalType":"address"}],"anonymous":false},{"type":"event","name":"MinterRevoked","inputs":[{"name":"minter","type":"address","indexed":true,"internalType":"address"}],"anonymous":false}],"bytecode":{"object":"0x6080806040523461002857600680546001600160a01b03191633179055610ad3908161002d8239f35b5f80fdfe604060808152600480361015610013575f80fd5b5f3560e01c8063095ea7b3146104bf5780630c984832146108f157806314e3a6231461065b5780632caafd3e146107f45780633aba2b63146106cc578063485d6ef8146106915780635c3a340d1461065b578063612b4ae3146106115780637465231f146105f6578063830aebd9146105235780638da5cb5b146104fb578063913b0cfb146104c4578063a9059cbb146104bf578063aa2fe91b14610483578063cfbd488514610415578063d1f7d639146103f7578063d91d6dc2146103d4578063da3fa149146103b1578063ea10e6ac14610239578063eaad0568146101dc578063efdac37c146101a25763f2fde38b1461010d575f80fd5b3461019e57602036600319011261019e57610126610962565b60065491906001600160a01b039061014133838616146109d7565b1692831561015b5750506001600160a01b03191617600655005b906020606492519162461bcd60e51b8352820152601b60248201527f536f756c626f756e644d6173733a207a65726f206164647265737300000000006044820152fd5b5f80fd5b823461019e57602036600319011261019e576020906001600160a01b036101c7610962565b165f526003825260ff815f2054169051908152f35b503461019e57602036600319011261019e576020916001600160a01b03610201610962565b165f525f83526802b5e3af16b1880000815f205410159182610227575b50519015158152f35b83525f8181205460ff1615925061021e565b50903461019e578060031936011261019e57610253610962565b90602435335f526020926005845261027060ff845f205416610a23565b6001600160a01b03165f8181528585528390205490939060ff1661037057811561032e57835f525f8152825f206102a8838254610a90565b90556102b682600154610a90565b600155835f5260028152825f208054906001820180921161031b577fa2b04ba3691f1c8ce2e39d97473b2e3851fb17f4b81aaa1e03b4a65529e14c5195965055845f5260038152825f2060ff1981541690555f8152825f2054908351928352820152a2005b601187634e487b7160e01b5f525260245ffd5b8460649184519162461bcd60e51b8352820152601a60248201527f536f756c626f756e644d6173733a207a65726f20616d6f756e740000000000006044820152fd5b848160649285519262461bcd60e51b845283015260248201527f536f756c626f756e644d6173733a206167656e742071756172616e74696e65646044820152fd5b823461019e575f36600319011261019e576020905168056bc75e2d631000008152f35b823461019e575f36600319011261019e57602090516802b5e3af16b18800008152f35b823461019e575f36600319011261019e576020906001549051908152f35b823461019e57602036600319011261019e5761042f610962565b6006546001600160a01b03919061044990831633146109d7565b1690815f5260056020525f2060ff1981541690557f44f4322f8daa225d5f4877ad0f7d3dfba248a774396f3ca99405ed40a044fe815f80a2005b823461019e57602036600319011261019e576020906001600160a01b036104a8610962565b165f526005825260ff815f20541690519015158152f35b610978565b823461019e57602036600319011261019e576020906001600160a01b036104e9610962565b165f5260028252805f20549051908152f35b823461019e575f36600319011261019e5760065490516001600160a01b039091168152602090f35b50903461019e57602036600319011261019e5761053e610962565b6006546001600160a01b03919061055890831633146109d7565b1691825f528060205260ff825f205416156105b457825f52602052805f209060ff199182815416905560036020525f209081541690557f819bd53db20c9f1d3c3df66c9f79f6d1c3d1a66e3f5a4758fdd67584a9d90f115f80a2005b6020606492519162461bcd60e51b8352820152601e60248201527f536f756c626f756e644d6173733a206e6f742071756172616e74696e656400006044820152fd5b823461019e575f36600319011261019e576020905160058152f35b503461019e57602036600319011261019e576020916001600160a01b03610636610962565b165f525f835268056bc75e2d63100000815f2054101591826102275750519015158152f35b823461019e57602036600319011261019e576020906001600160a01b03610680610962565b165f525f8252805f20549051908152f35b50903461019e57602036600319011261019e576020916001600160a01b036106b7610962565b165f52825260ff815f20541690519015158152f35b50903461019e578060031936011261019e576106e6610962565b9060243591335f526020906005825261070460ff845f205416610a23565b612710908185116107b15760018060a01b031693845f525f8352835f205481810291818304149015171561079e577f6c8373fb9d3a0ad7762160af531e5fb04e7cdc93e6287576f18c87aa195180c3949550049081610774575b845f525f8152825f2054908351928352820152a2005b845f525f8152825f20610788838254610a6f565b905561079682600154610a6f565b60015561075e565b601186634e487b7160e01b5f525260245ffd5b835162461bcd60e51b8152808701849052601e60248201527f536f756c626f756e644d6173733a207365766572697479203e203130302500006044820152606490fd5b50903461019e5760208060031936011261019e57610810610962565b91335f526005825260ff9261082984835f205416610a23565b6001600160a01b03165f8181526003845282902080549195918581166001018681116108de5791869160059360ff19988991169116179055865f5260038552867f14d65eecbeedcb47567bba47932b0c1f4344edd336e65f28595f44914fd22d468683875f2054168751908152a2865f5260038552835f20541610156108ab57005b600192525f20918254161790557f36f624febf7bb5aebe7cefa37b80fe9355dfc337c3945e3b8a117ab143d6e8905f80a2005b601184634e487b7160e01b5f525260245ffd5b823461019e57602036600319011261019e5761090b610962565b6006546001600160a01b03919061092590831633146109d7565b1690815f5260056020525f20600160ff198254161790557f83b05b6735acd4b85e3bded8e72c851d1a87718f81e3c8e6f0c9d9a2baa88e465f80a2005b600435906001600160a01b038216820361019e57565b3461019e57604036600319011261019e57610991610962565b5060405162461bcd60e51b815260206004820152601f60248201527f536f756c626f756e644d6173733a206e6f6e2d7472616e7366657261626c65006044820152606490fd5b156109de57565b60405162461bcd60e51b815260206004820152601860248201527f536f756c626f756e644d6173733a206e6f74206f776e657200000000000000006044820152606490fd5b15610a2a57565b60405162461bcd60e51b815260206004820152601d60248201527f536f756c626f756e644d6173733a206e6f7420617574686f72697a65640000006044820152606490fd5b91908203918211610a7c57565b634e487b7160e01b5f52601160045260245ffd5b91908201809211610a7c5756fea2646970667358221220b95c284466922aa27dc75b156eb9af123c80669dc3be810bc51a91780a4b8e9264736f6c63430008180033","linkReferences":{}},"methodIdentifiers":{"BOOTSTRAP_MASS_THRESHOLD()":"da3fa149","JURY_MASS_THRESHOLD()":"d91d6dc2","QUARANTINE_THRESHOLD()":"7465231f","accrueMass(address,uint256)":"ea10e6ac","approve(address,uint256)":"095ea7b3","authorizeMinter(address)":"0c984832","authorizedMinters(address)":"aa2fe91b","canRegisterAsBootstrap(address)":"612b4ae3","canServeAsJuror(address)":"eaad0568","consecutiveFailures(address)":"efdac37c","getMass(address)":"14e3a623","isQuarantined(address)":"485d6ef8","mass(address)":"5c3a340d","owner()":"8da5cb5b","payloadsSolved(address)":"913b0cfb","recordFailure(address)":"2caafd3e","reinstate(address)":"830aebd9","revokeMinter(address)":"cfbd4885","slashMass(address,uint256)":"3aba2b63","totalMass()":"d1f7d639","transfer(address,uint256)":"a9059cbb","transferOwnership(address)":"f2fde38b"},"id":21}