{"abi":[{"type":"constructor","inputs":[{"name":"_usdc","type":"address","internalType":"address"},{"name":"_minimumReserve","type":"uint256","internalType":"uint256"}],"stateMutability":"nonpayable"},{"type":"function","name":"CORE_TAX_SUNSET_THRESHOLD","inputs":[],"outputs":[{"name":"","type":"uint256","internalType":"uint256"}],"stateMutability":"view"},{"type":"function","name":"SURPLUS_DURATION","inputs":[],"outputs":[{"name":"","type":"uint256","internalType":"uint256"}],"stateMutability":"view"},{"type":"function","name":"approveCategory","inputs":[{"name":"category","type":"bytes32","internalType":"bytes32"}],"outputs":[],"stateMutability":"nonpayable"},{"type":"function","name":"approvedCategories","inputs":[{"name":"","type":"bytes32","internalType":"bytes32"}],"outputs":[{"name":"","type":"bool","internalType":"bool"}],"stateMutability":"view"},{"type":"function","name":"deploy","inputs":[{"name":"to","type":"address","internalType":"address"},{"name":"amount","type":"uint256","internalType":"uint256"},{"name":"category","type":"bytes32","internalType":"bytes32"}],"outputs":[],"stateMutability":"nonpayable"},{"type":"function","name":"deposit","inputs":[{"name":"amount","type":"uint256","internalType":"uint256"}],"outputs":[],"stateMutability":"nonpayable"},{"type":"function","name":"emergencyWithdraw","inputs":[{"name":"to","type":"address","internalType":"address"},{"name":"amount","type":"uint256","internalType":"uint256"}],"outputs":[],"stateMutability":"nonpayable"},{"type":"function","name":"escrowCore","inputs":[],"outputs":[{"name":"","type":"address","internalType":"address"}],"stateMutability":"view"},{"type":"function","name":"expansionBudget","inputs":[],"outputs":[{"name":"","type":"uint256","internalType":"uint256"}],"stateMutability":"view"},{"type":"function","name":"getHealth","inputs":[],"outputs":[{"name":"balance","type":"uint256","internalType":"uint256"},{"name":"minimum","type":"uint256","internalType":"uint256"},{"name":"healthy","type":"bool","internalType":"bool"},{"name":"expansionReady","type":"bool","internalType":"bool"},{"name":"sunsetReady","type":"bool","internalType":"bool"}],"stateMutability":"view"},{"type":"function","name":"isCircuitBreakerActive","inputs":[],"outputs":[{"name":"","type":"bool","internalType":"bool"}],"stateMutability":"view"},{"type":"function","name":"isExpansionReady","inputs":[],"outputs":[{"name":"","type":"bool","internalType":"bool"}],"stateMutability":"view"},{"type":"function","name":"minimumReserve","inputs":[],"outputs":[{"name":"","type":"uint256","internalType":"uint256"}],"stateMutability":"view"},{"type":"function","name":"owner","inputs":[],"outputs":[{"name":"","type":"address","internalType":"address"}],"stateMutability":"view"},{"type":"function","name":"setEscrowCore","inputs":[{"name":"_escrowCore","type":"address","internalType":"address"}],"outputs":[],"stateMutability":"nonpayable"},{"type":"function","name":"setMinimumReserve","inputs":[{"name":"newMinimum","type":"uint256","internalType":"uint256"}],"outputs":[],"stateMutability":"nonpayable"},{"type":"function","name":"shouldSunsetCoreTax","inputs":[],"outputs":[{"name":"","type":"bool","internalType":"bool"}],"stateMutability":"view"},{"type":"function","name":"surplusStartTimestamp","inputs":[],"outputs":[{"name":"","type":"uint256","internalType":"uint256"}],"stateMutability":"view"},{"type":"function","name":"totalDeployed","inputs":[],"outputs":[{"name":"","type":"uint256","internalType":"uint256"}],"stateMutability":"view"},{"type":"function","name":"totalReceived","inputs":[],"outputs":[{"name":"","type":"uint256","internalType":"uint256"}],"stateMutability":"view"},{"type":"function","name":"transferOwnership","inputs":[{"name":"newOwner","type":"address","internalType":"address"}],"outputs":[],"stateMutability":"nonpayable"},{"type":"function","name":"usdc","inputs":[],"outputs":[{"name":"","type":"address","internalType":"contract IERC20"}],"stateMutability":"view"},{"type":"event","name":"CategoryApproved","inputs":[{"name":"category","type":"bytes32","indexed":true,"internalType":"bytes32"}],"anonymous":false},{"type":"event","name":"CircuitBreakerCleared","inputs":[{"name":"balance","type":"uint256","indexed":false,"internalType":"uint256"},{"name":"minimum","type":"uint256","indexed":false,"internalType":"uint256"}],"anonymous":false},{"type":"event","name":"CircuitBreakerTriggered","inputs":[{"name":"balance","type":"uint256","indexed":false,"internalType":"uint256"},{"name":"minimum","type":"uint256","indexed":false,"internalType":"uint256"}],"anonymous":false},{"type":"event","name":"CoreTaxSunsetReached","inputs":[{"name":"balance","type":"uint256","indexed":false,"internalType":"uint256"}],"anonymous":false},{"type":"event","name":"EcosystemExpansionTriggered","inputs":[{"name":"surplusAmount","type":"uint256","indexed":false,"internalType":"uint256"}],"anonymous":false},{"type":"event","name":"FundsDeployed","inputs":[{"name":"to","type":"address","indexed":true,"internalType":"address"},{"name":"amount","type":"uint256","indexed":false,"internalType":"uint256"},{"name":"category","type":"bytes32","indexed":false,"internalType":"bytes32"}],"anonymous":false},{"type":"event","name":"FundsReceived","inputs":[{"name":"from","type":"address","indexed":true,"internalType":"address"},{"name":"amount","type":"uint256","indexed":false,"internalType":"uint256"}],"anonymous":false},{"type":"event","name":"MinimumReserveUpdated","inputs":[{"name":"newMinimum","type":"uint256","indexed":false,"internalType":"uint256"}],"anonymous":false}],"bytecode":{"object":"0x60a03461018057610f6f90601f38839003908101601f19168201906001600160401b0382118383101761018457808391604095869485528339810103126101805780516001600160a01b03811691908290036101805760200151906080523360018060a01b03195f5416175f556002557f79682e0ceaef5f1f317ff7313c320b839bfc4b302a4dc0b3e656187b994c0442805f526004602052815f209060ff19916001838254161790557f6c02d2e8cbbc24000a60800724f003d932d16bc28f2c069e993d0394f0960df592835f52805f206001848254161790557fe27835321c56a24690855a4e19584b6e4f4c8a50a46a1bcabdebdb168ce49ce092835f526001825f209182541617905551927f79c913e775b58d64f39f4b26503bc925d7e236c66edbe2d0f0d193fa16dbe9d991825f80a2815f80a25f80a2610dd6908161019982396080518181816102020152818161053301528181610799015281816108910152818161096a015281816109f301528181610c2f0152610d230152f35b5f80fd5b634e487b7160e01b5f52604160045260245ffdfe608060409080825260049081361015610016575f80fd5b5f3560e01c9081630cfb14b014610b4b5750806310907ab214610afc57806327f12fab14610a995780632b1da11f14610a7657806332941ecb146109c557806336567933146109995780633e413bee146109565780635a78aeb81461093a578063640e7fd5146108635780638da5cb5b1461083c57806395ccea67146107285780639610d94e14610703578063a3c2c462146106e5578063aceeeb02146106c8578063b6b55f25146104fd578063b6c5039f146104df578063d05d5a10146104c1578063d6c91a5b146104a1578063d831993c1461044a578063e4fab72014610422578063e7008afa1461019e5763f2fde38b14610112575f80fd5b3461019a57602036600319011261019a5761012b610b65565b5f5491906001600160a01b03906101453383861614610b7b565b1692831561015e5750506001600160a01b031916175f55005b906020606492519162461bcd60e51b8352820152601660248201527554726561737572793a207a65726f206164647265737360501b6044820152fd5b5f80fd5b50903461019a57606036600319011261019a576101b9610b65565b5f5460243592916001600160a01b0391604435906101da9084163314610b7b565b805f5260209580875260ff855f205416156103df5784516370a0823160e01b815230828201527f00000000000000000000000000000000000000000000000000000000000000008516908881602481855afa80156103d55788905f906103a4575b6102459250610bf3565b6002541161035257855163a9059cbb60e01b81526001600160a01b038516838201908152602081018990529091899183919082905f90829060400103925af1908115610348575f9161031b575b50156102d8575084956102c87fc93231f7a5f12141840f7db64f0d4004cd93d429068152981bbbc825cbe177ef96600654610cc2565b60065584519687528601521692a2005b845162461bcd60e51b8152908101879052601960248201527f54726561737572793a207472616e73666572206661696c6564000000000000006044820152606490fd5b61033b9150883d8a11610341575b6103338183610bbd565b810190610cf0565b5f610292565b503d610329565b86513d5f823e3d90fd5b855162461bcd60e51b8152808301899052602660248201527f54726561737572793a20776f756c6420627265616368206d696e696d756d207260448201526565736572766560d01b6064820152608490fd5b50508881813d83116103ce575b6103bb8183610bbd565b8101031261019a5787610245915161023b565b503d6103b1565b87513d5f823e3d90fd5b845162461bcd60e51b8152908101879052601d60248201527f54726561737572793a20756e617070726f7665642063617465676f72790000006044820152606490fd5b823461019a575f36600319011261019a5760015490516001600160a01b039091168152602090f35b503461019a57602036600319011261019a577e690586f8235eab11c629c15b63044021a83a8d830bdc055355038b9dbe416791602091359061049660018060a01b035f54163314610b7b565b8160025551908152a1005b823461019a575f36600319011261019a576020905165048c273950008152f35b823461019a575f36600319011261019a576020906003549051908152f35b823461019a575f36600319011261019a576020906002549051908152f35b50903461019a5760208060031936011261019a5781516323b872dd60e01b815233818501523060248201528335604482018190527f00000000000000000000000000000000000000000000000000000000000000006001600160a01b03169183816064815f875af19081156106be575f916106a1575b501561065e579180918361058b602495600554610cc2565b60055585519081527f8e47b87b0ef542cdfa1659c551d88bad38aa7f452d2bbb349ab7530dfec8be8f833392a284516370a0823160e01b8152308782015293849182905afa92831561065557505f92610627575b5050600254918260011b928084046002149015171561061457501061060e576003541561060857005b42600355005b5f600355005b601190634e487b7160e01b5f525260245ffd5b90809250813d831161064e575b61063e8183610bbd565b8101031261019a57515f806105df565b503d610634565b513d5f823e3d90fd5b835162461bcd60e51b8152808601849052601860248201527f54726561737572793a206465706f736974206661696c656400000000000000006044820152606490fd5b6106b89150843d8611610341576103338183610bbd565b5f610573565b85513d5f823e3d90fd5b823461019a575f36600319011261019a576020905162278d008152f35b823461019a575f36600319011261019a576020906005549051908152f35b823461019a575f36600319011261019a5760209061071f610d08565b90519015158152f35b503461019a578160031936011261019a575f6020610795610747610b65565b83546001600160a01b0391906107609083163314610b7b565b865163a9059cbb60e01b81526001600160a01b0390911686820190815260243560208201529094859384928391604090910190565b03927f0000000000000000000000000000000000000000000000000000000000000000165af1908115610832575f91610813575b50156107d157005b6020606492519162461bcd60e51b8352820152601a60248201527f54726561737572793a20656d657267656e6379206661696c65640000000000006044820152fd5b61082c915060203d602011610341576103338183610bbd565b5f6107c9565b83513d5f823e3d90fd5b823461019a575f36600319011261019a575f5490516001600160a01b039091168152602090f35b50903461019a575f36600319011261019a5780516370a0823160e01b815230928101929092526020826024817f00000000000000000000000000000000000000000000000000000000000000006001600160a01b03165afa908115610655575f91610905575b60a09250600254906108d9610ccf565b906108e2610d08565b928151948086528160208701521015908401521515606083015215156080820152f35b90506020823d602011610932575b8161092060209383610bbd565b8101031261019a5760a09151906108c9565b3d9150610913565b823461019a575f36600319011261019a5760209061071f610ccf565b823461019a575f36600319011261019a57517f00000000000000000000000000000000000000000000000000000000000000006001600160a01b03168152602090f35b50903461019a57602036600319011261019a5781602092355f52825260ff815f20541690519015158152f35b50903461019a575f36600319011261019a5780516370a0823160e01b815230928101929092526020826024817f00000000000000000000000000000000000000000000000000000000000000006001600160a01b03165afa8015610a6c575f90610a39575b60209250600254119051908152f35b506020823d602011610a64575b81610a5360209383610bbd565b8101031261019a5760209151610a2a565b3d9150610a46565b50513d5f823e3d90fd5b823461019a575f36600319011261019a57602090610a92610c14565b9051908152f35b50903461019a57602036600319011261019a57813591610ac360018060a01b035f54163314610b7b565b825f526020525f20600160ff198254161790557f79c913e775b58d64f39f4b26503bc925d7e236c66edbe2d0f0d193fa16dbe9d95f80a2005b3461019a57602036600319011261019a57610b15610b65565b5f546001600160a01b039190610b2e9083163314610b7b565b166bffffffffffffffffffffffff60a01b60015416176001555f80f35b3461019a575f36600319011261019a576020906006548152f35b600435906001600160a01b038216820361019a57565b15610b8257565b60405162461bcd60e51b81526020600482015260136024820152722a3932b0b9bab93c9d103737ba1037bbb732b960691b6044820152606490fd5b90601f8019910116810190811067ffffffffffffffff821117610bdf57604052565b634e487b7160e01b5f52604160045260245ffd5b91908203918211610c0057565b634e487b7160e01b5f52601160045260245ffd5b6040516370a0823160e01b81523060048201526020816024817f00000000000000000000000000000000000000000000000000000000000000006001600160a01b03165afa908115610cb7575f91610c85575b5060025480821115610c7f57610c7c91610bf3565b90565b50505f90565b90506020813d602011610caf575b81610ca060209383610bbd565b8101031261019a57515f610c67565b3d9150610c93565b6040513d5f823e3d90fd5b91908201809211610c0057565b6003548015610ceb5762278d008101809111610c005742101590565b505f90565b9081602091031261019a5751801515810361019a5790565b6040516370a0823160e01b81523060048201526020816024817f00000000000000000000000000000000000000000000000000000000000000006001600160a01b03165afa8015610cb7575f90610d68575b65048c273950009150101590565b506020813d602011610d98575b81610d8260209383610bbd565b8101031261019a5765048c273950009051610d5a565b3d9150610d7556fea2646970667358221220da9e683a94bc2a89855d37ebd8308d0944d69bceea5b7dec0eeef9eafd33a1dd64736f6c63430008180033","linkReferences":{}},"methodIdentifiers":{"CORE_TAX_SUNSET_THRESHOLD()":"d6c91a5b","SURPLUS_DURATION()":"aceeeb02","approveCategory(bytes32)":"27f12fab","approvedCategories(bytes32)":"36567933","deploy(address,uint256,bytes32)":"e7008afa","deposit(uint256)":"b6b55f25","emergencyWithdraw(address,uint256)":"95ccea67","escrowCore()":"e4fab720","expansionBudget()":"2b1da11f","getHealth()":"640e7fd5","isCircuitBreakerActive()":"32941ecb","isExpansionReady()":"5a78aeb8","minimumReserve()":"b6c5039f","owner()":"8da5cb5b","setEscrowCore(address)":"10907ab2","setMinimumReserve(uint256)":"d831993c","shouldSunsetCoreTax()":"9610d94e","surplusStartTimestamp()":"d05d5a10","totalDeployed()":"0cfb14b0","totalReceived()":"a3c2c462","transferOwnership(address)":"f2fde38b","usdc()":"3e413bee"},"id":24}