{"abi":[{"type":"constructor","inputs":[{"name":"_usdc","type":"address","internalType":"address"},{"name":"_minimumReserve","type":"uint256","internalType":"uint256"},{"name":"_cpiOracle","type":"address","internalType":"address"}],"stateMutability":"nonpayable"},{"type":"function","name":"BASE_SUNSET_THRESHOLD","inputs":[],"outputs":[{"name":"","type":"uint256","internalType":"uint256"}],"stateMutability":"view"},{"type":"function","name":"HARDCODED_ANNUAL_INFLATION_BPS","inputs":[],"outputs":[{"name":"","type":"uint256","internalType":"uint256"}],"stateMutability":"view"},{"type":"function","name":"ORACLE_DEAD_30D","inputs":[],"outputs":[{"name":"","type":"uint256","internalType":"uint256"}],"stateMutability":"view"},{"type":"function","name":"ORACLE_STALE_72H","inputs":[],"outputs":[{"name":"","type":"uint256","internalType":"uint256"}],"stateMutability":"view"},{"type":"function","name":"SURPLUS_DURATION","inputs":[],"outputs":[{"name":"","type":"uint256","internalType":"uint256"}],"stateMutability":"view"},{"type":"function","name":"approveCategory","inputs":[{"name":"category","type":"bytes32","internalType":"bytes32"}],"outputs":[],"stateMutability":"nonpayable"},{"type":"function","name":"approvedCategories","inputs":[{"name":"","type":"bytes32","internalType":"bytes32"}],"outputs":[{"name":"","type":"bool","internalType":"bool"}],"stateMutability":"view"},{"type":"function","name":"autoToken","inputs":[],"outputs":[{"name":"","type":"address","internalType":"address"}],"stateMutability":"view"},{"type":"function","name":"cpiOracle","inputs":[],"outputs":[{"name":"","type":"address","internalType":"contract AggregatorV3Interface"}],"stateMutability":"view"},{"type":"function","name":"deploy","inputs":[{"name":"to","type":"address","internalType":"address"},{"name":"amount","type":"uint256","internalType":"uint256"},{"name":"category","type":"bytes32","internalType":"bytes32"}],"outputs":[],"stateMutability":"nonpayable"},{"type":"function","name":"deposit","inputs":[{"name":"amount","type":"uint256","internalType":"uint256"}],"outputs":[],"stateMutability":"nonpayable"},{"type":"function","name":"emergencyAdmin","inputs":[],"outputs":[{"name":"","type":"address","internalType":"address"}],"stateMutability":"view"},{"type":"function","name":"emergencyWithdraw","inputs":[{"name":"to","type":"address","internalType":"address"},{"name":"amount","type":"uint256","internalType":"uint256"}],"outputs":[],"stateMutability":"nonpayable"},{"type":"function","name":"escrowCore","inputs":[],"outputs":[{"name":"","type":"address","internalType":"address"}],"stateMutability":"view"},{"type":"function","name":"executeMilestoneTriggers","inputs":[],"outputs":[],"stateMutability":"nonpayable"},{"type":"function","name":"expansionBudget","inputs":[],"outputs":[{"name":"","type":"uint256","internalType":"uint256"}],"stateMutability":"view"},{"type":"function","name":"genesisTimestamp","inputs":[],"outputs":[{"name":"","type":"uint256","internalType":"uint256"}],"stateMutability":"view"},{"type":"function","name":"getAdjustedMilestoneThreshold","inputs":[],"outputs":[{"name":"","type":"uint256","internalType":"uint256"}],"stateMutability":"view"},{"type":"function","name":"getHealth","inputs":[],"outputs":[{"name":"balance","type":"uint256","internalType":"uint256"},{"name":"minimum","type":"uint256","internalType":"uint256"},{"name":"healthy","type":"bool","internalType":"bool"},{"name":"expansionReady","type":"bool","internalType":"bool"},{"name":"sunsetReady","type":"bool","internalType":"bool"}],"stateMutability":"view"},{"type":"function","name":"isCircuitBreakerActive","inputs":[],"outputs":[{"name":"","type":"bool","internalType":"bool"}],"stateMutability":"view"},{"type":"function","name":"isExpansionReady","inputs":[],"outputs":[{"name":"","type":"bool","internalType":"bool"}],"stateMutability":"view"},{"type":"function","name":"milestoneTriggersExecuted","inputs":[],"outputs":[{"name":"","type":"bool","internalType":"bool"}],"stateMutability":"view"},{"type":"function","name":"minimumReserve","inputs":[],"outputs":[{"name":"","type":"uint256","internalType":"uint256"}],"stateMutability":"view"},{"type":"function","name":"owner","inputs":[],"outputs":[{"name":"","type":"address","internalType":"address"}],"stateMutability":"view"},{"type":"function","name":"setEmergencyAdmin","inputs":[{"name":"_emergencyAdmin","type":"address","internalType":"address"}],"outputs":[],"stateMutability":"nonpayable"},{"type":"function","name":"setMinimumReserve","inputs":[{"name":"newMinimum","type":"uint256","internalType":"uint256"}],"outputs":[],"stateMutability":"nonpayable"},{"type":"function","name":"setOracle","inputs":[{"name":"_cpiOracle","type":"address","internalType":"address"}],"outputs":[],"stateMutability":"nonpayable"},{"type":"function","name":"setProtocolContracts","inputs":[{"name":"_escrowCore","type":"address","internalType":"address"},{"name":"_autoToken","type":"address","internalType":"address"}],"outputs":[],"stateMutability":"nonpayable"},{"type":"function","name":"shouldSunsetCoreTax","inputs":[],"outputs":[{"name":"","type":"bool","internalType":"bool"}],"stateMutability":"view"},{"type":"function","name":"surplusStartTimestamp","inputs":[],"outputs":[{"name":"","type":"uint256","internalType":"uint256"}],"stateMutability":"view"},{"type":"function","name":"totalDeployed","inputs":[],"outputs":[{"name":"","type":"uint256","internalType":"uint256"}],"stateMutability":"view"},{"type":"function","name":"totalReceived","inputs":[],"outputs":[{"name":"","type":"uint256","internalType":"uint256"}],"stateMutability":"view"},{"type":"function","name":"transferOwnership","inputs":[{"name":"newOwner","type":"address","internalType":"address"}],"outputs":[],"stateMutability":"nonpayable"},{"type":"function","name":"usdc","inputs":[],"outputs":[{"name":"","type":"address","internalType":"contract IERC20"}],"stateMutability":"view"},{"type":"event","name":"CategoryApproved","inputs":[{"name":"category","type":"bytes32","indexed":true,"internalType":"bytes32"}],"anonymous":false},{"type":"event","name":"EcosystemExpansionTriggered","inputs":[{"name":"surplusAmount","type":"uint256","indexed":false,"internalType":"uint256"}],"anonymous":false},{"type":"event","name":"FundsDeployed","inputs":[{"name":"to","type":"address","indexed":true,"internalType":"address"},{"name":"amount","type":"uint256","indexed":false,"internalType":"uint256"},{"name":"category","type":"bytes32","indexed":false,"internalType":"bytes32"}],"anonymous":false},{"type":"event","name":"FundsReceived","inputs":[{"name":"from","type":"address","indexed":true,"internalType":"address"},{"name":"amount","type":"uint256","indexed":false,"internalType":"uint256"}],"anonymous":false},{"type":"event","name":"MilestoneTriggersExecuted","inputs":[{"name":"thresholdHit","type":"uint256","indexed":false,"internalType":"uint256"}],"anonymous":false},{"type":"event","name":"MinimumReserveUpdated","inputs":[{"name":"newMinimum","type":"uint256","indexed":false,"internalType":"uint256"}],"anonymous":false},{"type":"event","name":"OracleFallbackActivated","inputs":[{"name":"reason","type":"string","indexed":false,"internalType":"string"},{"name":"adjustedThreshold","type":"uint256","indexed":false,"internalType":"uint256"}],"anonymous":false}],"bytecode":{"object":"0x60c03461018257601f61170238819003918201601f191683019291906001600160401b038411838510176101865781606092849260409687528339810103126101825761004b8161019a565b9061005c836020830151920161019a565b600192835f5560018060a01b0380911660805260018060a01b0319911681600554161760055533908354161782556006554260a0527f79682e0ceaef5f1f317ff7313c320b839bfc4b302a4dc0b3e656187b994c04425f526008602052815f209060ff199181838254161790557f6c02d2e8cbbc24000a60800724f003d932d16bc28f2c069e993d0394f0960df55f52825f2081838254161790557fe27835321c56a24690855a4e19584b6e4f4c8a50a46a1bcabdebdb168ce49ce05f52825f20918254161790555161155390816101af823960805181818161029d015281816106340152818161099101528181610b5a01528181610cb701528181610f1501528181610fea015281816112020152611342015260a05181818161058401526114b40152f35b5f80fd5b634e487b7160e01b5f52604160045260245ffd5b51906001600160a01b03821682036101825756fe60806040818152600480361015610014575f80fd5b5f925f3560e01c9081630cfb14b0146110ed5750806313ed08fd1461087857806327f12fab146110895780632b1da11f1461106d57806332941ecb14610fbc57806335da339414610f715780633656793314610f445780633e413bee14610f0157806341c1f2c814610ee257806347b90d2e14610c4857806350b7c19614610c2a5780635a78aeb814610c0d578063640e7fd514610b2b57806370905dce14610b025780637adbf97314610ab45780638da5cb5b14610a8b57806395ccea671461090f5780639610d94e146108e95780639a8d4d31146108c5578063a3c2c462146108a6578063ab33c5ca1461087d578063aceeeb0214610878578063b3f678af14610854578063b6429d7614610838578063b68e3c33146107da578063b6b55f25146105ed578063b6c5039f146105ce578063b98d3411146105a7578063cacf66ab1461056c578063d05d5a101461054d578063d831993c146104f4578063e4fab720146104cb578063e7008afa146102255763f2fde38b14610196575f80fd5b34610221576020366003190112610221576101af611124565b60015491906001600160a01b03906101ca338386161461113a565b169283156101e55750506001600160a01b0319161760015580f35b906020606492519162461bcd60e51b8352820152601660248201527554726561737572793a207a65726f206164647265737360501b6044820152fd5b8280fd5b509190346104c75760603660031901126104c757610241611124565b60015460243592916001600160a01b039160443590610263908416331461113a565b6102706001875414611295565b600286558086526020966008885260ff8588205416156104845784516370a0823160e01b815230828201527f00000000000000000000000000000000000000000000000000000000000000008516908981602481855afa801561047a5788908a90610445575b6102e092506111c6565b600654116103f357855163a9059cbb60e01b81526001600160a01b0385168382019081526020810189905290918a9183919082908c90829060400103925af19081156103e95788916103bc575b501561037957508495966103647fc93231f7a5f12141840f7db64f0d4004cd93d429068152981bbbc825cbe177ef96600a546112e1565b600a5584519687528601521692a26001815580f35b845162461bcd60e51b8152908101889052601960248201527f54726561737572793a207472616e73666572206661696c6564000000000000006044820152606490fd5b6103dc9150893d8b116103e2575b6103d481836111a4565b81019061130f565b5f61032d565b503d6103ca565b86513d8a823e3d90fd5b855162461bcd60e51b81528083018a9052602660248201527f54726561737572793a20776f756c6420627265616368206d696e696d756d207260448201526565736572766560d01b6064820152608490fd5b50508981813d8311610473575b61045c81836111a4565b8101031261046f57876102e091516102d6565b5f80fd5b503d610452565b87513d8b823e3d90fd5b845162461bcd60e51b8152908101889052601d60248201527f54726561737572793a20756e617070726f7665642063617465676f72790000006044820152606490fd5b5080fd5b5050346104c757816003193601126104c75760035490516001600160a01b039091168152602090f35b5034610221576020366003190112610221577e690586f8235eab11c629c15b63044021a83a8d830bdc055355038b9dbe416791602091359061054160018060a01b0360015416331461113a565b8160065551908152a180f35b5050346104c757816003193601126104c7576020906007549051908152f35b5050346104c757816003193601126104c757602090517f00000000000000000000000000000000000000000000000000000000000000008152f35b50346102215782600319360112610221575490516001600160a01b03909116815260209150f35b5050346104c757816003193601126104c7576020906006549051908152f35b509034610221576020806003193601126107d65782356106106001865414611295565b6002855582516323b872dd60e01b81523385820152306024820152604481018290527f00000000000000000000000000000000000000000000000000000000000000006001600160a01b0316919083816064818a875af19081156107cc5787916107af575b501561076c579180918361068d6024956009546112e1565b60095585519081527f8e47b87b0ef542cdfa1659c551d88bad38aa7f452d2bbb349ab7530dfec8be8f833392a284516370a0823160e01b8152308782015293849182905afa92831561076357508492610735575b5050600654918260011b92808404600214901517156107225750106107195760075415610710575b6001815580f35b42600755610709565b80600755610709565b634e487b7160e01b845260119052602483fd5b90809250813d831161075c575b61074c81836111a4565b8101031261046f57515f806106e1565b503d610742565b513d86823e3d90fd5b835162461bcd60e51b8152808601849052601860248201527f54726561737572793a206465706f736974206661696c656400000000000000006044820152606490fd5b6107c69150843d86116103e2576103d481836111a4565b5f610675565b85513d89823e3d90fd5b8380fd5b509034610221573660031901126104c7576107f3611124565b6024356001600160a01b03818116929183900361046f576108198160015416331461113a565b6001600160601b0360a01b911681600354161760035582541617905580f35b5050346104c757816003193601126104c7576020905160fa8152f35b5050346104c757816003193601126104c75760209060ff600b541690519015158152f35b611107565b5050346104c757816003193601126104c75760055490516001600160a01b039091168152602090f35b5050346104c757816003193601126104c7576020906009549051908152f35b5050346104c757816003193601126104c7576020906108e26113d1565b9051908152f35b5050346104c757816003193601126104c757602090610906611327565b90519015158152f35b509034610221578060031936011261022157610929611124565b6109366001855414611295565b600284556001546001600160a01b039190821633148015610a7e575b15610a3b57825163a9059cbb60e01b81526001600160a01b039091168482019081526024356020828101919091529192839182908890829060400103927f0000000000000000000000000000000000000000000000000000000000000000165af1908115610a31578491610a12575b50156109cf57826001815580f35b906020606492519162461bcd60e51b8352820152601a60248201527f54726561737572793a20656d657267656e6379206661696c65640000000000006044820152fd5b610a2b915060203d6020116103e2576103d481836111a4565b5f6109c1565b82513d86823e3d90fd5b825162461bcd60e51b8152602081860152601860248201527f54726561737572793a206e6f7420617574686f72697a656400000000000000006044820152606490fd5b5081600254163314610952565b5050346104c757816003193601126104c75760015490516001600160a01b039091168152602090f35b8334610aff576020366003190112610aff57610ace611124565b6001546001600160a01b039190610ae8908316331461113a565b166001600160601b0360a01b600554161760055580f35b80fd5b5050346104c757816003193601126104c75760025490516001600160a01b039091168152602090f35b509190346104c757816003193601126104c75780516370a0823160e01b815230938101939093526020836024817f00000000000000000000000000000000000000000000000000000000000000006001600160a01b03165afa918215610c025791610bcd575b60a0925060065490610ba16112ee565b90610baa611327565b928151948086528160208701521015908401521515606083015215156080820152f35b90506020823d602011610bfa575b81610be8602093836111a4565b8101031261046f5760a0915190610b91565b3d9150610bdb565b9051903d90823e3d90fd5b5050346104c757816003193601126104c7576020906109066112ee565b5050346104c757816003193601126104c757602090516203f4808152f35b503461046f575f36600319011261046f57610c6660015f5414611295565b60025f55600b549060ff8216610e935780546001600160a01b0391908216151580610e86575b15610e4357610c996113d1565b918451936370a0823160e01b855230838601526020948581602481867f0000000000000000000000000000000000000000000000000000000000000000165afa908115610e39579085915f91610e08575b5010610dc55760ff1916600117600b556003548116803b1561046f575f80918488518094819363d651d4d760e01b83525af18015610dbb57610da6575b5090859181541690813b156102215785516303bcd94960e11b81529183918391829084905af18015610d9c57610d88575b50507fb0311525e213e1571519e17a176b360ae488329c7a4f3fd78c3bfbb6bdb7e5559251908152a16001815580f35b610d919061117c565b6107d657835f610d58565b85513d84823e3d90fd5b610db29192965061117c565b5f94905f610d27565b86513d5f823e3d90fd5b855162461bcd60e51b8152808401869052601f60248201527f54726561737572793a207468726573686f6c64206e6f742072656163686564006044820152606490fd5b809250878092503d8311610e32575b610e2181836111a4565b8101031261046f578490515f610cea565b503d610e17565b87513d5f823e3d90fd5b606490602085519162461bcd60e51b8352820152601b60248201527f54726561737572793a20616464726573736573206e6f742073657400000000006044820152fd5b5081600354161515610c8c565b608490602084519162461bcd60e51b8352820152602360248201527f54726561737572793a20747269676765727320616c72656164792065786563756044820152621d195960ea1b6064820152fd5b823461046f575f36600319011261046f576020905164746a5288008152f35b823461046f575f36600319011261046f57517f00000000000000000000000000000000000000000000000000000000000000006001600160a01b03168152602090f35b50903461046f57602036600319011261046f57602091355f526008825260ff815f20541690519015158152f35b3461046f57602036600319011261046f57610f8a611124565b6001546001600160a01b039190610fa4908316331461113a565b166001600160601b0360a01b60025416176002555f80f35b50903461046f575f36600319011261046f5780516370a0823160e01b815230928101929092526020826024817f00000000000000000000000000000000000000000000000000000000000000006001600160a01b03165afa8015611063575f90611030575b60209250600654119051908152f35b506020823d60201161105b575b8161104a602093836111a4565b8101031261046f5760209151611021565b3d915061103d565b50513d5f823e3d90fd5b823461046f575f36600319011261046f576020906108e26111e7565b503461046f57602036600319011261046f5735906110b260018060a01b0360015416331461113a565b815f5260086020525f20600160ff198254161790557f79c913e775b58d64f39f4b26503bc925d7e236c66edbe2d0f0d193fa16dbe9d95f80a2005b3461046f575f36600319011261046f57602090600a548152f35b3461046f575f36600319011261046f57602060405162278d008152f35b600435906001600160a01b038216820361046f57565b1561114157565b60405162461bcd60e51b81526020600482015260136024820152722a3932b0b9bab93c9d103737ba1037bbb732b960691b6044820152606490fd5b67ffffffffffffffff811161119057604052565b634e487b7160e01b5f52604160045260245ffd5b90601f8019910116810190811067ffffffffffffffff82111761119057604052565b919082039182116111d357565b634e487b7160e01b5f52601160045260245ffd5b6040516370a0823160e01b81523060048201526020816024817f00000000000000000000000000000000000000000000000000000000000000006001600160a01b03165afa90811561128a575f91611258575b50600654808211156112525761124f916111c6565b90565b50505f90565b90506020813d602011611282575b81611273602093836111a4565b8101031261046f57515f61123a565b3d9150611266565b6040513d5f823e3d90fd5b1561129c57565b60405162461bcd60e51b815260206004820152601860248201527f54726561737572793a207265656e7472616e742063616c6c00000000000000006044820152606490fd5b919082018092116111d357565b600754801561130a5762278d0081018091116111d35742101590565b505f90565b9081602091031261046f5751801515810361046f5790565b6040516370a0823160e01b81523060048201526020816024817f00000000000000000000000000000000000000000000000000000000000000006001600160a01b03165afa90811561128a575f91611388575b506113836113d1565b111590565b90506020813d6020116113b2575b816113a3602093836111a4565b8101031261046f57515f61137a565b3d9150611396565b519069ffffffffffffffffffff8216820361046f57565b6005546001600160a01b0316801561144b5760a060049160405192838092633fabe5a360e21b82525afa805f925f92611454575b5061141457505061124f6114aa565b61142262278d0091426111c6565b1161144b575f81131561144b5764746a52880090808202918204036111d3576305f5e100900490565b5061124f6114aa565b9250905060a0823d60a0116114a2575b8161147160a093836111a4565b8101031261046f57611482826113ba565b5060208201516114996080606085015194016113ba565b5091905f611405565b3d9150611464565b6301e133806114d97f0000000000000000000000000000000000000000000000000000000000000000426111c6565b0464746a528800905f905b8082106114f057505090565b909160fa8082029082820414821517156111d3576001916127106115159204906112e1565b9201906114e456fea26469706673582212205459c343c16907c413a8b616c46eeff87b4e25d94fb2169ea3732d4da79ee64664736f6c63430008180033","linkReferences":{}},"methodIdentifiers":{"BASE_SUNSET_THRESHOLD()":"41c1f2c8","HARDCODED_ANNUAL_INFLATION_BPS()":"b6429d76","ORACLE_DEAD_30D()":"13ed08fd","ORACLE_STALE_72H()":"50b7c196","SURPLUS_DURATION()":"aceeeb02","approveCategory(bytes32)":"27f12fab","approvedCategories(bytes32)":"36567933","autoToken()":"b98d3411","cpiOracle()":"ab33c5ca","deploy(address,uint256,bytes32)":"e7008afa","deposit(uint256)":"b6b55f25","emergencyAdmin()":"70905dce","emergencyWithdraw(address,uint256)":"95ccea67","escrowCore()":"e4fab720","executeMilestoneTriggers()":"47b90d2e","expansionBudget()":"2b1da11f","genesisTimestamp()":"cacf66ab","getAdjustedMilestoneThreshold()":"9a8d4d31","getHealth()":"640e7fd5","isCircuitBreakerActive()":"32941ecb","isExpansionReady()":"5a78aeb8","milestoneTriggersExecuted()":"b3f678af","minimumReserve()":"b6c5039f","owner()":"8da5cb5b","setEmergencyAdmin(address)":"35da3394","setMinimumReserve(uint256)":"d831993c","setOracle(address)":"7adbf973","setProtocolContracts(address,address)":"b68e3c33","shouldSunsetCoreTax()":"9610d94e","surplusStartTimestamp()":"d05d5a10","totalDeployed()":"0cfb14b0","totalReceived()":"a3c2c462","transferOwnership(address)":"f2fde38b","usdc()":"3e413bee"},"id":23}