{"abi":[{"type":"constructor","inputs":[{"name":"_usdc","type":"address","internalType":"address"},{"name":"_minimumReserve","type":"uint256","internalType":"uint256"},{"name":"_cpiOracle","type":"address","internalType":"address"}],"stateMutability":"nonpayable"},{"type":"function","name":"BASE_SUNSET_THRESHOLD","inputs":[],"outputs":[{"name":"","type":"uint256","internalType":"uint256"}],"stateMutability":"view"},{"type":"function","name":"HARDCODED_ANNUAL_INFLATION_BPS","inputs":[],"outputs":[{"name":"","type":"uint256","internalType":"uint256"}],"stateMutability":"view"},{"type":"function","name":"ORACLE_DEAD_30D","inputs":[],"outputs":[{"name":"","type":"uint256","internalType":"uint256"}],"stateMutability":"view"},{"type":"function","name":"ORACLE_STALE_72H","inputs":[],"outputs":[{"name":"","type":"uint256","internalType":"uint256"}],"stateMutability":"view"},{"type":"function","name":"SURPLUS_DURATION","inputs":[],"outputs":[{"name":"","type":"uint256","internalType":"uint256"}],"stateMutability":"view"},{"type":"function","name":"approveCategory","inputs":[{"name":"category","type":"bytes32","internalType":"bytes32"}],"outputs":[],"stateMutability":"nonpayable"},{"type":"function","name":"approvedCategories","inputs":[{"name":"","type":"bytes32","internalType":"bytes32"}],"outputs":[{"name":"","type":"bool","internalType":"bool"}],"stateMutability":"view"},{"type":"function","name":"autoToken","inputs":[],"outputs":[{"name":"","type":"address","internalType":"address"}],"stateMutability":"view"},{"type":"function","name":"cpiOracle","inputs":[],"outputs":[{"name":"","type":"address","internalType":"contract AggregatorV3Interface"}],"stateMutability":"view"},{"type":"function","name":"deploy","inputs":[{"name":"to","type":"address","internalType":"address"},{"name":"amount","type":"uint256","internalType":"uint256"},{"name":"category","type":"bytes32","internalType":"bytes32"}],"outputs":[],"stateMutability":"nonpayable"},{"type":"function","name":"deposit","inputs":[{"name":"amount","type":"uint256","internalType":"uint256"}],"outputs":[],"stateMutability":"nonpayable"},{"type":"function","name":"emergencyWithdraw","inputs":[{"name":"to","type":"address","internalType":"address"},{"name":"amount","type":"uint256","internalType":"uint256"}],"outputs":[],"stateMutability":"nonpayable"},{"type":"function","name":"escrowCore","inputs":[],"outputs":[{"name":"","type":"address","internalType":"address"}],"stateMutability":"view"},{"type":"function","name":"executeMilestoneTriggers","inputs":[],"outputs":[],"stateMutability":"nonpayable"},{"type":"function","name":"expansionBudget","inputs":[],"outputs":[{"name":"","type":"uint256","internalType":"uint256"}],"stateMutability":"view"},{"type":"function","name":"genesisTimestamp","inputs":[],"outputs":[{"name":"","type":"uint256","internalType":"uint256"}],"stateMutability":"view"},{"type":"function","name":"getAdjustedMilestoneThreshold","inputs":[],"outputs":[{"name":"","type":"uint256","internalType":"uint256"}],"stateMutability":"view"},{"type":"function","name":"getHealth","inputs":[],"outputs":[{"name":"balance","type":"uint256","internalType":"uint256"},{"name":"minimum","type":"uint256","internalType":"uint256"},{"name":"healthy","type":"bool","internalType":"bool"},{"name":"expansionReady","type":"bool","internalType":"bool"},{"name":"sunsetReady","type":"bool","internalType":"bool"}],"stateMutability":"view"},{"type":"function","name":"isCircuitBreakerActive","inputs":[],"outputs":[{"name":"","type":"bool","internalType":"bool"}],"stateMutability":"view"},{"type":"function","name":"isExpansionReady","inputs":[],"outputs":[{"name":"","type":"bool","internalType":"bool"}],"stateMutability":"view"},{"type":"function","name":"milestoneTriggersExecuted","inputs":[],"outputs":[{"name":"","type":"bool","internalType":"bool"}],"stateMutability":"view"},{"type":"function","name":"minimumReserve","inputs":[],"outputs":[{"name":"","type":"uint256","internalType":"uint256"}],"stateMutability":"view"},{"type":"function","name":"owner","inputs":[],"outputs":[{"name":"","type":"address","internalType":"address"}],"stateMutability":"view"},{"type":"function","name":"setMinimumReserve","inputs":[{"name":"newMinimum","type":"uint256","internalType":"uint256"}],"outputs":[],"stateMutability":"nonpayable"},{"type":"function","name":"setOracle","inputs":[{"name":"_cpiOracle","type":"address","internalType":"address"}],"outputs":[],"stateMutability":"nonpayable"},{"type":"function","name":"setProtocolContracts","inputs":[{"name":"_escrowCore","type":"address","internalType":"address"},{"name":"_autoToken","type":"address","internalType":"address"}],"outputs":[],"stateMutability":"nonpayable"},{"type":"function","name":"shouldSunsetCoreTax","inputs":[],"outputs":[{"name":"","type":"bool","internalType":"bool"}],"stateMutability":"view"},{"type":"function","name":"surplusStartTimestamp","inputs":[],"outputs":[{"name":"","type":"uint256","internalType":"uint256"}],"stateMutability":"view"},{"type":"function","name":"totalDeployed","inputs":[],"outputs":[{"name":"","type":"uint256","internalType":"uint256"}],"stateMutability":"view"},{"type":"function","name":"totalReceived","inputs":[],"outputs":[{"name":"","type":"uint256","internalType":"uint256"}],"stateMutability":"view"},{"type":"function","name":"transferOwnership","inputs":[{"name":"newOwner","type":"address","internalType":"address"}],"outputs":[],"stateMutability":"nonpayable"},{"type":"function","name":"usdc","inputs":[],"outputs":[{"name":"","type":"address","internalType":"contract IERC20"}],"stateMutability":"view"},{"type":"event","name":"CategoryApproved","inputs":[{"name":"category","type":"bytes32","indexed":true,"internalType":"bytes32"}],"anonymous":false},{"type":"event","name":"EcosystemExpansionTriggered","inputs":[{"name":"surplusAmount","type":"uint256","indexed":false,"internalType":"uint256"}],"anonymous":false},{"type":"event","name":"FundsDeployed","inputs":[{"name":"to","type":"address","indexed":true,"internalType":"address"},{"name":"amount","type":"uint256","indexed":false,"internalType":"uint256"},{"name":"category","type":"bytes32","indexed":false,"internalType":"bytes32"}],"anonymous":false},{"type":"event","name":"FundsReceived","inputs":[{"name":"from","type":"address","indexed":true,"internalType":"address"},{"name":"amount","type":"uint256","indexed":false,"internalType":"uint256"}],"anonymous":false},{"type":"event","name":"MilestoneTriggersExecuted","inputs":[{"name":"thresholdHit","type":"uint256","indexed":false,"internalType":"uint256"}],"anonymous":false},{"type":"event","name":"MinimumReserveUpdated","inputs":[{"name":"newMinimum","type":"uint256","indexed":false,"internalType":"uint256"}],"anonymous":false},{"type":"event","name":"OracleFallbackActivated","inputs":[{"name":"reason","type":"string","indexed":false,"internalType":"string"},{"name":"adjustedThreshold","type":"uint256","indexed":false,"internalType":"uint256"}],"anonymous":false}],"bytecode":{"object":"0x60c03461018257601f61163138819003918201601f191683019291906001600160401b038411838510176101865781606092849260409687528339810103126101825761004b8161019a565b9061005c836020830151920161019a565b600192835f5560018060a01b0380911660805260018060a01b0319911681600454161760045533908354161782556005554260a0527f79682e0ceaef5f1f317ff7313c320b839bfc4b302a4dc0b3e656187b994c04425f526007602052815f209060ff199181838254161790557f6c02d2e8cbbc24000a60800724f003d932d16bc28f2c069e993d0394f0960df55f52825f2081838254161790557fe27835321c56a24690855a4e19584b6e4f4c8a50a46a1bcabdebdb168ce49ce05f52825f20918254161790555161148290816101af8239608051818181610287015281816106200152818161098701528181610ad201528181610c3001528181610e8f01528181610f19015281816111310152611271015260a05181818161056e01526113e30152f35b5f80fd5b634e487b7160e01b5f52604160045260245ffd5b51906001600160a01b03821682036101825756fe60806040818152600480361015610014575f80fd5b5f925f3560e01c9081630cfb14b01461101c5750806313ed08fd1461086e57806327f12fab14610fb85780632b1da11f14610f9c57806332941ecb14610eeb5780633656793314610ebe5780633e413bee14610e7b57806341c1f2c814610e5c57806347b90d2e14610bc057806350b7c19614610ba25780635a78aeb814610b85578063640e7fd514610aa35780637adbf97314610a5a5780638da5cb5b14610a3157806395ccea67146109035780639610d94e146108dd5780639a8d4d31146108b9578063a3c2c4621461089a578063ab33c5ca14610873578063aceeeb021461086e578063b3f678af1461084a578063b6429d761461082e578063b68e3c33146107c6578063b6b55f25146105d9578063b6c5039f146105ba578063b98d341114610591578063cacf66ab14610556578063d05d5a1014610537578063d831993c146104de578063e4fab720146104b5578063e7008afa1461020f5763f2fde38b14610180575f80fd5b3461020b57602036600319011261020b57610199611053565b60015491906001600160a01b03906101b43383861614611069565b169283156101cf5750506001600160a01b0319161760015580f35b906020606492519162461bcd60e51b8352820152601660248201527554726561737572793a207a65726f206164647265737360501b6044820152fd5b8280fd5b509190346104b15760603660031901126104b15761022b611053565b60015460243592916001600160a01b03916044359061024d9084163314611069565b61025a60018754146111c4565b600286558086526020966007885260ff85882054161561046e5784516370a0823160e01b815230828201527f00000000000000000000000000000000000000000000000000000000000000008516908981602481855afa80156104645788908a9061042f575b6102ca92506110f5565b600554116103dd57855163a9059cbb60e01b81526001600160a01b0385168382019081526020810189905290918a9183919082908c90829060400103925af19081156103d35788916103a6575b5015610363575084959661034e7fc93231f7a5f12141840f7db64f0d4004cd93d429068152981bbbc825cbe177ef96600954611210565b60095584519687528601521692a26001815580f35b845162461bcd60e51b8152908101889052601960248201527f54726561737572793a207472616e73666572206661696c6564000000000000006044820152606490fd5b6103c69150893d8b116103cc575b6103be81836110d3565b81019061123e565b5f610317565b503d6103b4565b86513d8a823e3d90fd5b855162461bcd60e51b81528083018a9052602660248201527f54726561737572793a20776f756c6420627265616368206d696e696d756d207260448201526565736572766560d01b6064820152608490fd5b50508981813d831161045d575b61044681836110d3565b8101031261045957876102ca91516102c0565b5f80fd5b503d61043c565b87513d8b823e3d90fd5b845162461bcd60e51b8152908101889052601d60248201527f54726561737572793a20756e617070726f7665642063617465676f72790000006044820152606490fd5b5080fd5b5050346104b157816003193601126104b15760025490516001600160a01b039091168152602090f35b503461020b57602036600319011261020b577e690586f8235eab11c629c15b63044021a83a8d830bdc055355038b9dbe416791602091359061052b60018060a01b03600154163314611069565b8160055551908152a180f35b5050346104b157816003193601126104b1576020906006549051908152f35b5050346104b157816003193601126104b157602090517f00000000000000000000000000000000000000000000000000000000000000008152f35b5050346104b157816003193601126104b15760035490516001600160a01b039091168152602090f35b5050346104b157816003193601126104b1576020906005549051908152f35b50903461020b576020806003193601126107c25782356105fc60018654146111c4565b6002855582516323b872dd60e01b81523385820152306024820152604481018290527f00000000000000000000000000000000000000000000000000000000000000006001600160a01b0316919083816064818a875af19081156107b857879161079b575b50156107585791809183610679602495600854611210565b60085585519081527f8e47b87b0ef542cdfa1659c551d88bad38aa7f452d2bbb349ab7530dfec8be8f833392a284516370a0823160e01b8152308782015293849182905afa92831561074f57508492610721575b5050600554918260011b928084046002149015171561070e57501061070557600654156106fc575b6001815580f35b426006556106f5565b806006556106f5565b634e487b7160e01b845260119052602483fd5b90809250813d8311610748575b61073881836110d3565b8101031261045957515f806106cd565b503d61072e565b513d86823e3d90fd5b835162461bcd60e51b8152808601849052601860248201527f54726561737572793a206465706f736974206661696c656400000000000000006044820152606490fd5b6107b29150843d86116103cc576103be81836110d3565b5f610661565b85513d89823e3d90fd5b8380fd5b5050346104b15736600319011261082b576107df611053565b6024356001600160a01b0381811692918390036104595761080581600154163314611069565b6bffffffffffffffffffffffff60a01b9116816002541617600255600354161760035580f35b80fd5b5050346104b157816003193601126104b1576020905160fa8152f35b5050346104b157816003193601126104b15760209060ff600a541690519015158152f35b611036565b503461020b578260031936011261020b575490516001600160a01b03909116815260209150f35b5050346104b157816003193601126104b1576020906008549051908152f35b5050346104b157816003193601126104b1576020906108d6611300565b9051908152f35b5050346104b157816003193601126104b1576020906108fa611256565b90519015158152f35b50903461020b578060031936011261020b57826020610983610923611053565b6001546001600160a01b03919061093d9083163314611069565b61094a60018654146111c4565b60028555855163a9059cbb60e01b81526001600160a01b0390911687820190815260243560208201529094859384928391604090910190565b03927f0000000000000000000000000000000000000000000000000000000000000000165af1908115610a27578491610a08575b50156109c557826001815580f35b906020606492519162461bcd60e51b8352820152601a60248201527f54726561737572793a20656d657267656e6379206661696c65640000000000006044820152fd5b610a21915060203d6020116103cc576103be81836110d3565b5f6109b7565b82513d86823e3d90fd5b5050346104b157816003193601126104b15760015490516001600160a01b039091168152602090f35b8382346104b15760203660031901126104b157610a75611053565b6001546001600160a01b039190610a8f9083163314611069565b82546001600160a01b031916911617905580f35b509190346104b157816003193601126104b15780516370a0823160e01b815230938101939093526020836024817f00000000000000000000000000000000000000000000000000000000000000006001600160a01b03165afa918215610b7a5791610b45575b60a0925060055490610b1961121d565b90610b22611256565b928151948086528160208701521015908401521515606083015215156080820152f35b90506020823d602011610b72575b81610b60602093836110d3565b810103126104595760a0915190610b09565b3d9150610b53565b9051903d90823e3d90fd5b5050346104b157816003193601126104b1576020906108fa61121d565b5050346104b157816003193601126104b157602090516203f4808152f35b5034610459575f36600319011261045957610bde60015f54146111c4565b60025f55600a549060ff8216610e0d576003546001600160a01b0391908216151580610e00575b15610dbd57610c12611300565b918451936370a0823160e01b855230838601526020948581602481867f0000000000000000000000000000000000000000000000000000000000000000165afa908115610db3579085915f91610d82575b5010610d3f5760ff1916600117600a556002548116803b15610459575f80918488518094819363d651d4d760e01b83525af18015610d3557610d20575b509085916003541690813b1561020b5785516303bcd94960e11b81529183918391829084905af18015610d1657610d02575b50507fb0311525e213e1571519e17a176b360ae488329c7a4f3fd78c3bfbb6bdb7e5559251908152a16001815580f35b610d0b906110ab565b6107c257835f610cd2565b85513d84823e3d90fd5b610d2c919296506110ab565b5f94905f610ca0565b86513d5f823e3d90fd5b855162461bcd60e51b8152808401869052601f60248201527f54726561737572793a207468726573686f6c64206e6f742072656163686564006044820152606490fd5b809250878092503d8311610dac575b610d9b81836110d3565b81010312610459578490515f610c63565b503d610d91565b87513d5f823e3d90fd5b606490602085519162461bcd60e51b8352820152601b60248201527f54726561737572793a20616464726573736573206e6f742073657400000000006044820152fd5b5081600254161515610c05565b608490602084519162461bcd60e51b8352820152602360248201527f54726561737572793a20747269676765727320616c72656164792065786563756044820152621d195960ea1b6064820152fd5b8234610459575f366003190112610459576020905164746a5288008152f35b8234610459575f36600319011261045957517f00000000000000000000000000000000000000000000000000000000000000006001600160a01b03168152602090f35b50903461045957602036600319011261045957602091355f526007825260ff815f20541690519015158152f35b509034610459575f3660031901126104595780516370a0823160e01b815230928101929092526020826024817f00000000000000000000000000000000000000000000000000000000000000006001600160a01b03165afa8015610f92575f90610f5f575b60209250600554119051908152f35b506020823d602011610f8a575b81610f79602093836110d3565b810103126104595760209151610f50565b3d9150610f6c565b50513d5f823e3d90fd5b8234610459575f366003190112610459576020906108d6611116565b5034610459576020366003190112610459573590610fe160018060a01b03600154163314611069565b815f5260076020525f20600160ff198254161790557f79c913e775b58d64f39f4b26503bc925d7e236c66edbe2d0f0d193fa16dbe9d95f80a2005b34610459575f366003190112610459576020906009548152f35b34610459575f36600319011261045957602060405162278d008152f35b600435906001600160a01b038216820361045957565b1561107057565b60405162461bcd60e51b81526020600482015260136024820152722a3932b0b9bab93c9d103737ba1037bbb732b960691b6044820152606490fd5b67ffffffffffffffff81116110bf57604052565b634e487b7160e01b5f52604160045260245ffd5b90601f8019910116810190811067ffffffffffffffff8211176110bf57604052565b9190820391821161110257565b634e487b7160e01b5f52601160045260245ffd5b6040516370a0823160e01b81523060048201526020816024817f00000000000000000000000000000000000000000000000000000000000000006001600160a01b03165afa9081156111b9575f91611187575b50600554808211156111815761117e916110f5565b90565b50505f90565b90506020813d6020116111b1575b816111a2602093836110d3565b8101031261045957515f611169565b3d9150611195565b6040513d5f823e3d90fd5b156111cb57565b60405162461bcd60e51b815260206004820152601860248201527f54726561737572793a207265656e7472616e742063616c6c00000000000000006044820152606490fd5b9190820180921161110257565b60065480156112395762278d0081018091116111025742101590565b505f90565b90816020910312610459575180151581036104595790565b6040516370a0823160e01b81523060048201526020816024817f00000000000000000000000000000000000000000000000000000000000000006001600160a01b03165afa9081156111b9575f916112b7575b506112b2611300565b111590565b90506020813d6020116112e1575b816112d2602093836110d3565b8101031261045957515f6112a9565b3d91506112c5565b519069ffffffffffffffffffff8216820361045957565b6004546001600160a01b0316801561137a5760a060049160405192838092633fabe5a360e21b82525afa805f925f92611383575b5061134357505061117e6113d9565b61135162278d0091426110f5565b1161137a575f81131561137a5764746a5288009080820291820403611102576305f5e100900490565b5061117e6113d9565b9250905060a0823d60a0116113d1575b816113a060a093836110d3565b81010312610459576113b1826112e9565b5060208201516113c86080606085015194016112e9565b5091905f611334565b3d9150611393565b6301e133806114087f0000000000000000000000000000000000000000000000000000000000000000426110f5565b0464746a528800905f905b80821061141f57505090565b909160fa80820290828204148215171561110257600191612710611444920490611210565b92019061141356fea264697066735822122063704394a5cd02f26d3649d2d58cca9b1ed493d1b4a909a052886187ae9317e064736f6c63430008180033","linkReferences":{}},"methodIdentifiers":{"BASE_SUNSET_THRESHOLD()":"41c1f2c8","HARDCODED_ANNUAL_INFLATION_BPS()":"b6429d76","ORACLE_DEAD_30D()":"13ed08fd","ORACLE_STALE_72H()":"50b7c196","SURPLUS_DURATION()":"aceeeb02","approveCategory(bytes32)":"27f12fab","approvedCategories(bytes32)":"36567933","autoToken()":"b98d3411","cpiOracle()":"ab33c5ca","deploy(address,uint256,bytes32)":"e7008afa","deposit(uint256)":"b6b55f25","emergencyWithdraw(address,uint256)":"95ccea67","escrowCore()":"e4fab720","executeMilestoneTriggers()":"47b90d2e","expansionBudget()":"2b1da11f","genesisTimestamp()":"cacf66ab","getAdjustedMilestoneThreshold()":"9a8d4d31","getHealth()":"640e7fd5","isCircuitBreakerActive()":"32941ecb","isExpansionReady()":"5a78aeb8","milestoneTriggersExecuted()":"b3f678af","minimumReserve()":"b6c5039f","owner()":"8da5cb5b","setMinimumReserve(uint256)":"d831993c","setOracle(address)":"7adbf973","setProtocolContracts(address,address)":"b68e3c33","shouldSunsetCoreTax()":"9610d94e","surplusStartTimestamp()":"d05d5a10","totalDeployed()":"0cfb14b0","totalReceived()":"a3c2c462","transferOwnership(address)":"f2fde38b","usdc()":"3e413bee"},"id":22}