{"abi":[{"type":"constructor","inputs":[{"name":"_usdc","type":"address","internalType":"address"},{"name":"_minimumReserve","type":"uint256","internalType":"uint256"},{"name":"_cpiOracle","type":"address","internalType":"address"}],"stateMutability":"nonpayable"},{"type":"function","name":"BASE_SUNSET_THRESHOLD","inputs":[],"outputs":[{"name":"","type":"uint256","internalType":"uint256"}],"stateMutability":"view"},{"type":"function","name":"HARDCODED_ANNUAL_INFLATION_BPS","inputs":[],"outputs":[{"name":"","type":"uint256","internalType":"uint256"}],"stateMutability":"view"},{"type":"function","name":"ORACLE_DEAD_30D","inputs":[],"outputs":[{"name":"","type":"uint256","internalType":"uint256"}],"stateMutability":"view"},{"type":"function","name":"ORACLE_STALE_72H","inputs":[],"outputs":[{"name":"","type":"uint256","internalType":"uint256"}],"stateMutability":"view"},{"type":"function","name":"SURPLUS_DURATION","inputs":[],"outputs":[{"name":"","type":"uint256","internalType":"uint256"}],"stateMutability":"view"},{"type":"function","name":"approveCategory","inputs":[{"name":"category","type":"bytes32","internalType":"bytes32"}],"outputs":[],"stateMutability":"nonpayable"},{"type":"function","name":"approvedCategories","inputs":[{"name":"","type":"bytes32","internalType":"bytes32"}],"outputs":[{"name":"","type":"bool","internalType":"bool"}],"stateMutability":"view"},{"type":"function","name":"autoToken","inputs":[],"outputs":[{"name":"","type":"address","internalType":"address"}],"stateMutability":"view"},{"type":"function","name":"cpiOracle","inputs":[],"outputs":[{"name":"","type":"address","internalType":"contract AggregatorV3Interface"}],"stateMutability":"view"},{"type":"function","name":"deploy","inputs":[{"name":"to","type":"address","internalType":"address"},{"name":"amount","type":"uint256","internalType":"uint256"},{"name":"category","type":"bytes32","internalType":"bytes32"}],"outputs":[],"stateMutability":"nonpayable"},{"type":"function","name":"deposit","inputs":[{"name":"amount","type":"uint256","internalType":"uint256"}],"outputs":[],"stateMutability":"nonpayable"},{"type":"function","name":"emergencyAdmin","inputs":[],"outputs":[{"name":"","type":"address","internalType":"address"}],"stateMutability":"view"},{"type":"function","name":"emergencyWithdraw","inputs":[{"name":"to","type":"address","internalType":"address"},{"name":"amount","type":"uint256","internalType":"uint256"}],"outputs":[],"stateMutability":"nonpayable"},{"type":"function","name":"escrowCore","inputs":[],"outputs":[{"name":"","type":"address","internalType":"address"}],"stateMutability":"view"},{"type":"function","name":"executeMilestoneTriggers","inputs":[],"outputs":[],"stateMutability":"nonpayable"},{"type":"function","name":"expansionBudget","inputs":[],"outputs":[{"name":"","type":"uint256","internalType":"uint256"}],"stateMutability":"view"},{"type":"function","name":"genesisTimestamp","inputs":[],"outputs":[{"name":"","type":"uint256","internalType":"uint256"}],"stateMutability":"view"},{"type":"function","name":"getAdjustedMilestoneThreshold","inputs":[],"outputs":[{"name":"","type":"uint256","internalType":"uint256"}],"stateMutability":"view"},{"type":"function","name":"getHealth","inputs":[],"outputs":[{"name":"balance","type":"uint256","internalType":"uint256"},{"name":"minimum","type":"uint256","internalType":"uint256"},{"name":"healthy","type":"bool","internalType":"bool"},{"name":"expansionReady","type":"bool","internalType":"bool"},{"name":"sunsetReady","type":"bool","internalType":"bool"}],"stateMutability":"view"},{"type":"function","name":"isCircuitBreakerActive","inputs":[],"outputs":[{"name":"","type":"bool","internalType":"bool"}],"stateMutability":"view"},{"type":"function","name":"isExpansionReady","inputs":[],"outputs":[{"name":"","type":"bool","internalType":"bool"}],"stateMutability":"view"},{"type":"function","name":"migrateBaseCurrency","inputs":[{"name":"newToken","type":"address","internalType":"address"}],"outputs":[],"stateMutability":"nonpayable"},{"type":"function","name":"milestoneTriggersExecuted","inputs":[],"outputs":[{"name":"","type":"bool","internalType":"bool"}],"stateMutability":"view"},{"type":"function","name":"minimumReserve","inputs":[],"outputs":[{"name":"","type":"uint256","internalType":"uint256"}],"stateMutability":"view"},{"type":"function","name":"owner","inputs":[],"outputs":[{"name":"","type":"address","internalType":"address"}],"stateMutability":"view"},{"type":"function","name":"setEmergencyAdmin","inputs":[{"name":"_emergencyAdmin","type":"address","internalType":"address"}],"outputs":[],"stateMutability":"nonpayable"},{"type":"function","name":"setMinimumReserve","inputs":[{"name":"newMinimum","type":"uint256","internalType":"uint256"}],"outputs":[],"stateMutability":"nonpayable"},{"type":"function","name":"setOracle","inputs":[{"name":"_cpiOracle","type":"address","internalType":"address"}],"outputs":[],"stateMutability":"nonpayable"},{"type":"function","name":"setProtocolContracts","inputs":[{"name":"_escrowCore","type":"address","internalType":"address"},{"name":"_autoToken","type":"address","internalType":"address"}],"outputs":[],"stateMutability":"nonpayable"},{"type":"function","name":"shouldSunsetCoreTax","inputs":[],"outputs":[{"name":"","type":"bool","internalType":"bool"}],"stateMutability":"view"},{"type":"function","name":"surplusStartTimestamp","inputs":[],"outputs":[{"name":"","type":"uint256","internalType":"uint256"}],"stateMutability":"view"},{"type":"function","name":"totalDeployed","inputs":[],"outputs":[{"name":"","type":"uint256","internalType":"uint256"}],"stateMutability":"view"},{"type":"function","name":"totalReceived","inputs":[],"outputs":[{"name":"","type":"uint256","internalType":"uint256"}],"stateMutability":"view"},{"type":"function","name":"transferOwnership","inputs":[{"name":"newOwner","type":"address","internalType":"address"}],"outputs":[],"stateMutability":"nonpayable"},{"type":"function","name":"usdc","inputs":[],"outputs":[{"name":"","type":"address","internalType":"contract IERC20"}],"stateMutability":"view"},{"type":"event","name":"BaseCurrencyMigrated","inputs":[{"name":"oldToken","type":"address","indexed":true,"internalType":"address"},{"name":"newToken","type":"address","indexed":true,"internalType":"address"}],"anonymous":false},{"type":"event","name":"CategoryApproved","inputs":[{"name":"category","type":"bytes32","indexed":true,"internalType":"bytes32"}],"anonymous":false},{"type":"event","name":"EcosystemExpansionTriggered","inputs":[{"name":"surplusAmount","type":"uint256","indexed":false,"internalType":"uint256"}],"anonymous":false},{"type":"event","name":"FundsDeployed","inputs":[{"name":"to","type":"address","indexed":true,"internalType":"address"},{"name":"amount","type":"uint256","indexed":false,"internalType":"uint256"},{"name":"category","type":"bytes32","indexed":false,"internalType":"bytes32"}],"anonymous":false},{"type":"event","name":"FundsReceived","inputs":[{"name":"from","type":"address","indexed":true,"internalType":"address"},{"name":"amount","type":"uint256","indexed":false,"internalType":"uint256"}],"anonymous":false},{"type":"event","name":"MilestoneTriggersExecuted","inputs":[{"name":"thresholdHit","type":"uint256","indexed":false,"internalType":"uint256"}],"anonymous":false},{"type":"event","name":"MinimumReserveUpdated","inputs":[{"name":"newMinimum","type":"uint256","indexed":false,"internalType":"uint256"}],"anonymous":false},{"type":"event","name":"OracleFallbackActivated","inputs":[{"name":"reason","type":"string","indexed":false,"internalType":"string"},{"name":"adjustedThreshold","type":"uint256","indexed":false,"internalType":"uint256"}],"anonymous":false}],"bytecode":{"object":"0x60a03461014857601f6116b038819003918201601f191683019291906001600160401b0384118385101761014c5781606092849260409687528339810103126101485761004b81610160565b9061005c8360208301519201610160565b91600192835f5560018060a01b03908160018060a01b03199316838654161785551681600654161760065533906002541617600255600755426080527f79682e0ceaef5f1f317ff7313c320b839bfc4b302a4dc0b3e656187b994c04425f526009602052815f209060ff199181838254161790557f6c02d2e8cbbc24000a60800724f003d932d16bc28f2c069e993d0394f0960df55f52825f2081838254161790557fe27835321c56a24690855a4e19584b6e4f4c8a50a46a1bcabdebdb168ce49ce05f52825f20918254161790555161153b908161017582396080518181816105ff015261149c0152f35b5f80fd5b634e487b7160e01b5f52604160045260245ffd5b51906001600160a01b03821682036101485756fe6080604090808252600480361015610015575f80fd5b5f925f3560e01c9283630cfb14b0146110c25750826313ed08fd146108e157826327f12fab1461105e5782632b1da11f1461104357826332941ecb14610fae57826335da339414610f635782633656793314610f385782633e413bee14610f1157826341c1f2c814610ef357826347b90d2e14610c7457826350b7c19614610c565782635a78aeb814610c39578263640e7fd514610b7257826370905dce14610b495782637adbf97314610afe5782638da5cb5b14610ad557826395ccea67146109785782639610d94e146109525782639a8d4d311461092e578263a3c2c4621461090f578263ab33c5ca146108e6578263aceeeb02146108e1578263b3f678af146108bd578263b6429d76146108a1578263b68e3c3314610842578263b6b55f251461066a578263b6c5039f1461064b578263b98d341114610622578263cacf66ab146105e7578263d05d5a10146105c8578263d831993c1461056e578263df26eef2146104aa578263e4fab7201461047e578263e7008afa146101f857505063f2fde38b146101a4575f80fd5b346101f55760203660031901126101f5576101bd6110f9565b600254906001600160a01b03906101d7338385161461110f565b16906101e482151561144d565b6001600160a01b0319161760025580f35b80fd5b83903461047a57606036600319011261047a576102136110f9565b60025460243592916001600160a01b039160443590610235908416331461110f565b6102426001875414611251565b600286558086526020966009885260ff85882054161561043757836001541685516370a0823160e01b815230838201528981602481855afa801561042d5788908a906103f8575b610293925061119b565b600754116103a657855163a9059cbb60e01b81526001600160a01b0385168382019081526020810189905290918a9183919082908c90829060400103925af190811561039c57889161036f575b501561032c57508495966103177fc93231f7a5f12141840f7db64f0d4004cd93d429068152981bbbc825cbe177ef96600b5461129d565b600b5584519687528601521692a26001815580f35b845162461bcd60e51b8152908101889052601960248201527f54726561737572793a207472616e73666572206661696c6564000000000000006044820152606490fd5b61038f9150893d8b11610395575b6103878183611179565b8101906112cb565b896102e0565b503d61037d565b86513d8a823e3d90fd5b855162461bcd60e51b81528083018a9052602660248201527f54726561737572793a20776f756c6420627265616368206d696e696d756d207260448201526565736572766560d01b6064820152608490fd5b50508981813d8311610426575b61040f8183611179565b8101031261042257876102939151610289565b5f80fd5b503d610405565b87513d8b823e3d90fd5b845162461bcd60e51b8152908101889052601d60248201527f54726561737572793a20756e617070726f7665642063617465676f72790000006044820152606490fd5b5080fd5b9150346104a657826003193601126104a6575490516001600160a01b03909116815260209150f35b8280fd5b909150346104a65760203660031901126104a6576104c66110f9565b6002546001600160a01b039182916104e1908316331461110f565b16926104ee84151561144d565b600154918216928385146105345750506001600160a01b03191682176001557ff6891d4467432afc2253af94616c1716c67662c01bfdd7c15107e3ed45d287b18380a380f35b906020606492519162461bcd60e51b835282015260146024820152732a3932b0b9bab93c9d1039b0b6b2903a37b5b2b760611b6044820152fd5b9150346104a65760203660031901126104a6577e690586f8235eab11c629c15b63044021a83a8d830bdc055355038b9dbe41679160209135906105bc60018060a01b0360025416331461110f565b8160075551908152a180f35b83903461047a578160031936011261047a576020906008549051908152f35b83903461047a578160031936011261047a57602090517f00000000000000000000000000000000000000000000000000000000000000008152f35b83903461047a578160031936011261047a5760055490516001600160a01b039091168152602090f35b83903461047a578160031936011261047a576020906007549051908152f35b909150346104a65760208060031936011261083e57823561068e6001865414611251565b6002855560015483516323b872dd60e01b81523386820152306024820152604481018390526001600160a01b0392918490829060649082908b9088165af1908115610834578791610817575b50156107d457918091836106f2602495600a5461129d565b600a5585519081527f8e47b87b0ef542cdfa1659c551d88bad38aa7f452d2bbb349ab7530dfec8be8f833392a2600154168451938480926370a0823160e01b825230898301525afa9283156107cb5750849261079d575b5050600754918260011b928084046002149015171561078a5750106107815760085415610778575b6001815580f35b42600855610771565b80600855610771565b634e487b7160e01b845260119052602483fd5b90809250813d83116107c4575b6107b48183611179565b8101031261042257515f80610749565b503d6107aa565b513d86823e3d90fd5b835162461bcd60e51b8152808601849052601860248201527f54726561737572793a206465706f736974206661696c656400000000000000006044820152606490fd5b61082e9150843d8611610395576103878183611179565b5f6106da565b85513d89823e3d90fd5b8380fd5b909150346104a65736600319011261047a5761085c6110f9565b6024356001600160a01b038181169391849003610422576108828160025416331461110f565b6001600160601b0360a01b921682825416179055600554161760055580f35b83903461047a578160031936011261047a576020905160fa8152f35b83903461047a578160031936011261047a5760209060ff600c541690519015158152f35b6110dc565b83903461047a578160031936011261047a5760065490516001600160a01b039091168152602090f35b83903461047a578160031936011261047a57602090600a549051908152f35b83903461047a578160031936011261047a5760209061094b611374565b9051908152f35b83903461047a578160031936011261047a5760209061096f6112e3565b90519015158152f35b909150346104a657806003193601126104a6576109936110f9565b6109a06001855414611251565b6002808555546001600160a01b0390811633148015610ac8575b15610a8557600154835163a9059cbb60e01b81526001600160a01b03909316858401908152602435602082810191909152928492169082908890829060400103925af1908115610a7b578491610a5c575b5015610a1957826001815580f35b906020606492519162461bcd60e51b8352820152601a60248201527f54726561737572793a20656d657267656e6379206661696c65640000000000006044820152fd5b610a75915060203d602011610395576103878183611179565b5f610a0b565b82513d86823e3d90fd5b825162461bcd60e51b8152602081860152601860248201527f54726561737572793a206e6f7420617574686f72697a656400000000000000006044820152606490fd5b50806003541633146109ba565b83903461047a578160031936011261047a5760025490516001600160a01b039091168152602090f35b83346101f55760203660031901126101f557610b186110f9565b6002546001600160a01b039190610b32908316331461110f565b166001600160601b0360a01b600654161760065580f35b83903461047a578160031936011261047a5760035490516001600160a01b039091168152602090f35b83903461047a578160031936011261047a5760015481516370a0823160e01b81523094810194909452602090849060249082906001600160a01b03165afa918215610c2e5791610bf9575b60a0925060075490610bcd6112aa565b90610bd66112e3565b928151948086528160208701521015908401521515606083015215156080820152f35b90506020823d602011610c26575b81610c1460209383611179565b810103126104225760a0915190610bbd565b3d9150610c07565b9051903d90823e3d90fd5b83903461047a578160031936011261047a5760209061096f6112aa565b83903461047a578160031936011261047a57602090516203f4808152f35b915034610422575f36600319011261042257610c9360015f5414611251565b60025f55600c549060ff8216610ea4576005546001600160a01b0391908216151580610e98575b15610e5557610cc7611374565b91806001541693855180956370a0823160e01b8252308583015281602460209889935afa908115610e4b579085915f91610e1a575b5010610dd75760ff1916600117600c5581548116803b15610422575f80918488518094819363d651d4d760e01b83525af18015610dcd57610db8575b509085916005541690813b156104a65785516303bcd94960e11b81529183918391829084905af18015610dae57610d9a575b50507fb0311525e213e1571519e17a176b360ae488329c7a4f3fd78c3bfbb6bdb7e5559251908152a16001815580f35b610da390611151565b61083e57835f610d6a565b85513d84823e3d90fd5b610dc491929650611151565b5f94905f610d38565b86513d5f823e3d90fd5b855162461bcd60e51b8152808401869052601f60248201527f54726561737572793a207468726573686f6c64206e6f742072656163686564006044820152606490fd5b809250878092503d8311610e44575b610e338183611179565b81010312610422578490515f610cfc565b503d610e29565b87513d5f823e3d90fd5b606490602085519162461bcd60e51b8352820152601b60248201527f54726561737572793a20616464726573736573206e6f742073657400000000006044820152fd5b50818154161515610cba565b608490602084519162461bcd60e51b8352820152602360248201527f54726561737572793a20747269676765727320616c72656164792065786563756044820152621d195960ea1b6064820152fd5b34610422575f366003190112610422576020905164746a5288008152f35b34610422575f3660031901126104225760015490516001600160a01b039091168152602090f35b3461042257602036600319011261042257602091355f526009825260ff815f20541690519015158152f35b3461042257602036600319011261042257610f7c6110f9565b6002546001600160a01b039190610f96908316331461110f565b166001600160601b0360a01b60035416176003555f80f35b34610422575f3660031901126104225760015481516370a0823160e01b81523093810193909352602090839060249082906001600160a01b03165afa8015611039575f90611006575b60209250600754119051908152f35b506020823d602011611031575b8161102060209383611179565b810103126104225760209151610ff7565b3d9150611013565b50513d5f823e3d90fd5b34610422575f3660031901126104225760209061094b6111bc565b903461042257602036600319011261042257359061108760018060a01b0360025416331461110f565b815f5260096020525f20600160ff198254161790557f79c913e775b58d64f39f4b26503bc925d7e236c66edbe2d0f0d193fa16dbe9d95f80a2005b34610422575f36600319011261042257602090600b548152f35b34610422575f36600319011261042257602060405162278d008152f35b600435906001600160a01b038216820361042257565b1561111657565b60405162461bcd60e51b81526020600482015260136024820152722a3932b0b9bab93c9d103737ba1037bbb732b960691b6044820152606490fd5b67ffffffffffffffff811161116557604052565b634e487b7160e01b5f52604160045260245ffd5b90601f8019910116810190811067ffffffffffffffff82111761116557604052565b919082039182116111a857565b634e487b7160e01b5f52601160045260245ffd5b6001546040516370a0823160e01b815230600482015290602090829060249082906001600160a01b03165afa908115611246575f91611214575b506007548082111561120e5761120b9161119b565b90565b50505f90565b90506020813d60201161123e575b8161122f60209383611179565b8101031261042257515f6111f6565b3d9150611222565b6040513d5f823e3d90fd5b1561125857565b60405162461bcd60e51b815260206004820152601860248201527f54726561737572793a207265656e7472616e742063616c6c00000000000000006044820152606490fd5b919082018092116111a857565b60085480156112c65762278d0081018091116111a85742101590565b505f90565b90816020910312610422575180151581036104225790565b6001546040516370a0823160e01b815230600482015290602090829060249082906001600160a01b03165afa908115611246575f9161132b575b50611326611374565b111590565b90506020813d602011611355575b8161134660209383611179565b8101031261042257515f61131d565b3d9150611339565b519069ffffffffffffffffffff8216820361042257565b6006546001600160a01b031680156113ee5760a060049160405192838092633fabe5a360e21b82525afa805f925f926113f7575b506113b757505061120b611492565b6113c562278d00914261119b565b116113ee575f8113156113ee5764746a52880090808202918204036111a8576305f5e100900490565b5061120b611492565b9250905060a0823d60a011611445575b8161141460a09383611179565b81010312610422576114258261135d565b50602082015161143c60806060850151940161135d565b5091905f6113a8565b3d9150611407565b1561145457565b60405162461bcd60e51b815260206004820152601660248201527554726561737572793a207a65726f206164647265737360501b6044820152606490fd5b6301e133806114c17f00000000000000000000000000000000000000000000000000000000000000004261119b565b0464746a528800905f905b8082106114d857505090565b909160fa8082029082820414821517156111a8576001916127106114fd92049061129d565b9201906114cc56fea2646970667358221220d035d3d3b11225da090f63cb0f6b814548b3ee86ef7f1a1904229d3fa4a4145c64736f6c63430008180033","linkReferences":{}},"methodIdentifiers":{"BASE_SUNSET_THRESHOLD()":"41c1f2c8","HARDCODED_ANNUAL_INFLATION_BPS()":"b6429d76","ORACLE_DEAD_30D()":"13ed08fd","ORACLE_STALE_72H()":"50b7c196","SURPLUS_DURATION()":"aceeeb02","approveCategory(bytes32)":"27f12fab","approvedCategories(bytes32)":"36567933","autoToken()":"b98d3411","cpiOracle()":"ab33c5ca","deploy(address,uint256,bytes32)":"e7008afa","deposit(uint256)":"b6b55f25","emergencyAdmin()":"70905dce","emergencyWithdraw(address,uint256)":"95ccea67","escrowCore()":"e4fab720","executeMilestoneTriggers()":"47b90d2e","expansionBudget()":"2b1da11f","genesisTimestamp()":"cacf66ab","getAdjustedMilestoneThreshold()":"9a8d4d31","getHealth()":"640e7fd5","isCircuitBreakerActive()":"32941ecb","isExpansionReady()":"5a78aeb8","migrateBaseCurrency(address)":"df26eef2","milestoneTriggersExecuted()":"b3f678af","minimumReserve()":"b6c5039f","owner()":"8da5cb5b","setEmergencyAdmin(address)":"35da3394","setMinimumReserve(uint256)":"d831993c","setOracle(address)":"7adbf973","setProtocolContracts(address,address)":"b68e3c33","shouldSunsetCoreTax()":"9610d94e","surplusStartTimestamp()":"d05d5a10","totalDeployed()":"0cfb14b0","totalReceived()":"a3c2c462","transferOwnership(address)":"f2fde38b","usdc()":"3e413bee"},"id":23}