{"abi":[{"type":"constructor","inputs":[{"name":"_admin","type":"address","internalType":"address"}],"stateMutability":"nonpayable"},{"type":"receive","stateMutability":"payable"},{"type":"function","name":"GRACE_PERIOD","inputs":[],"outputs":[{"name":"","type":"uint256","internalType":"uint256"}],"stateMutability":"view"},{"type":"function","name":"MAXIMUM_DELAY","inputs":[],"outputs":[{"name":"","type":"uint256","internalType":"uint256"}],"stateMutability":"view"},{"type":"function","name":"MINIMUM_DELAY","inputs":[],"outputs":[{"name":"","type":"uint256","internalType":"uint256"}],"stateMutability":"view"},{"type":"function","name":"acceptAdmin","inputs":[],"outputs":[],"stateMutability":"nonpayable"},{"type":"function","name":"admin","inputs":[],"outputs":[{"name":"","type":"address","internalType":"address"}],"stateMutability":"view"},{"type":"function","name":"cancelTransaction","inputs":[{"name":"target","type":"address","internalType":"address"},{"name":"value","type":"uint256","internalType":"uint256"},{"name":"data","type":"bytes","internalType":"bytes"},{"name":"eta","type":"uint256","internalType":"uint256"}],"outputs":[],"stateMutability":"nonpayable"},{"type":"function","name":"executeTransaction","inputs":[{"name":"target","type":"address","internalType":"address"},{"name":"value","type":"uint256","internalType":"uint256"},{"name":"data","type":"bytes","internalType":"bytes"},{"name":"eta","type":"uint256","internalType":"uint256"}],"outputs":[{"name":"","type":"bytes","internalType":"bytes"}],"stateMutability":"nonpayable"},{"type":"function","name":"pendingAdmin","inputs":[],"outputs":[{"name":"","type":"address","internalType":"address"}],"stateMutability":"view"},{"type":"function","name":"queueTransaction","inputs":[{"name":"target","type":"address","internalType":"address"},{"name":"value","type":"uint256","internalType":"uint256"},{"name":"data","type":"bytes","internalType":"bytes"},{"name":"eta","type":"uint256","internalType":"uint256"}],"outputs":[{"name":"","type":"bytes32","internalType":"bytes32"}],"stateMutability":"nonpayable"},{"type":"function","name":"queuedTransactions","inputs":[{"name":"","type":"bytes32","internalType":"bytes32"}],"outputs":[{"name":"","type":"bool","internalType":"bool"}],"stateMutability":"view"},{"type":"function","name":"setPendingAdmin","inputs":[{"name":"_pendingAdmin","type":"address","internalType":"address"}],"outputs":[],"stateMutability":"nonpayable"},{"type":"event","name":"NewAdmin","inputs":[{"name":"newAdmin","type":"address","indexed":true,"internalType":"address"}],"anonymous":false},{"type":"event","name":"NewPendingAdmin","inputs":[{"name":"pendingAdmin","type":"address","indexed":true,"internalType":"address"}],"anonymous":false},{"type":"event","name":"TransactionCancelled","inputs":[{"name":"txHash","type":"bytes32","indexed":true,"internalType":"bytes32"}],"anonymous":false},{"type":"event","name":"TransactionExecuted","inputs":[{"name":"txHash","type":"bytes32","indexed":true,"internalType":"bytes32"},{"name":"target","type":"address","indexed":true,"internalType":"address"},{"name":"value","type":"uint256","indexed":false,"internalType":"uint256"},{"name":"data","type":"bytes","indexed":false,"internalType":"bytes"},{"name":"eta","type":"uint256","indexed":false,"internalType":"uint256"}],"anonymous":false},{"type":"event","name":"TransactionQueued","inputs":[{"name":"txHash","type":"bytes32","indexed":true,"internalType":"bytes32"},{"name":"target","type":"address","indexed":true,"internalType":"address"},{"name":"value","type":"uint256","indexed":false,"internalType":"uint256"},{"name":"data","type":"bytes","indexed":false,"internalType":"bytes"},{"name":"eta","type":"uint256","indexed":false,"internalType":"uint256"}],"anonymous":false}],"bytecode":{"object":"0x6080346100be57601f61098d38819003918201601f19168301916001600160401b038311848410176100c2578084926020946040528339810103126100be57516001600160a01b038116908190036100be578015610079575f80546001600160a01b0319169190911790556040516108b690816100d78239f35b60405162461bcd60e51b815260206004820152601460248201527f54696d656c6f636b3a207a65726f2061646d696e0000000000000000000000006044820152606490fd5b5f80fd5b634e487b7160e01b5f52604160045260245ffdfe60406080815260048036101561001e575b5050361561001c575f80fd5b005b5f3560e01c90816306a41d09146104985781630e18b681146103e557816326782247146103bd5781634dd18bf5146103525781635b26b108146102bf5781637d645fab146102a25781638e361cdf14610133578163b1b43ae514610116578163c1a287e2146100f9578163f2b06537146100cd575063f851a440146100a35780610010565b346100c9575f3660031901126100c9575f5490516001600160a01b039091168152602090f35b5f80fd5b82346100c95760203660031901126100c957602091355f526002825260ff815f20541690519015158152f35b82346100c9575f3660031901126100c95760209051621275008152f35b82346100c9575f3660031901126100c957602090516202a3008152f35b82346100c957610142366106f1565b5f546001600160a01b0397929695929061015f9089163314610757565b6202a300420180421161024c57821061025f5762278d00420180421161024c5782116102095750957f4efebf40a8244d219085e74f928a18e8c9d17adc6b39270b8706cca0a92b648d91610200888660209a6101d88b6101ca8c51938f928c86948501978b896107b9565b03601f1981018352826107e9565b519020988996875f5260028c52895f20600160ff198254161790558951958695169885610862565b0390a351908152f35b606490602087519162461bcd60e51b8352820152601860248201527f54696d656c6f636b3a2064656c617920746f6f206c6f6e6700000000000000006044820152fd5b601182634e487b7160e01b5f525260245ffd5b606490602087519162461bcd60e51b8352820152601960248201527f54696d656c6f636b3a2064656c617920746f6f2073686f7274000000000000006044820152fd5b82346100c9575f3660031901126100c9576020905162278d008152f35b82346100c9576102ff6101ca6102d4366106f1565b906102ef60018060a09997999895981b035f54163314610757565b87519586946020860198896107b9565b51902090815f52600260205261031a60ff825f20541661081f565b815f5260026020525f2060ff1981541690557f0891e6c675e964cf1e5982f60fda276ad06301a9221b2f1d7bf2b2a42fbd69a15f80a2005b346100c95760203660031901126100c957356001600160a01b03818116918290036100c957610385905f54163314610757565b600180546001600160a01b031916821790557f69d78e38a01985fbb1462961809b4b2d65531bc93b2b94037f3334b82ca4a7565f80a2005b82346100c9575f3660031901126100c95760015490516001600160a01b039091168152602090f35b9050346100c9575f3660031901126100c9576001546001600160a01b03811692909190338490036104555750506bffffffffffffffffffffffff60a01b9082825f5416175f55166001557f71614071b88dee5e0b2ae578a9dd7b2ebbe9ae832ba419dc0242cd065a290b6c5f80a2005b906020606492519162461bcd60e51b8352820152601b60248201527f54696d656c6f636b3a206e6f742070656e64696e672061646d696e00000000006044820152fd5b82346100c9576104a7366106f1565b929190949360018060a01b03906104c2825f54163314610757565b855194602097888701876104da8484898b89876107b9565b03976104ee601f19998a81018352826107e9565b51902094855f5260028a5261050860ff8a5f20541661081f565b8242106106b8576212750083018084116106a557421161066e57855f5260028a52885f2060ff1981541690555f808a51848482378085810183815203908a885af19a3d15610661573d9b67ffffffffffffffff8d1161064e57898c9d61057a8e8e9f9d9e5193601f84011601836107e9565b81525f819b3d92013e5b1561060b5750916105c4917f7269c83f90ccf699179b90b612d7c15a1e3845ad5c77f6ac41039db9c5063d1d9594938b9c9a999c51958695169885610862565b0390a3825193828593845281519182828601525f5b8381106105f55750505f84830186015250601f01168101030190f35b81810183015188820188015287955082016105d9565b8a5162461bcd60e51b81529081018c9052601c60248201527f54696d656c6f636b3a20657865637574696f6e207265766572746564000000006044820152606490fd5b604182634e487b7160e01b5f525260245ffd5b60609b98999a9b98610584565b885162461bcd60e51b8152808c018b90526011602482015270151a5b595b1bd8dace88195e1c1a5c9959607a1b6044820152606490fd5b60118c634e487b7160e01b5f525260245ffd5b885162461bcd60e51b8152808c018b9052601360248201527254696d656c6f636b3a20746f6f206561726c7960681b6044820152606490fd5b9060806003198301126100c9576004356001600160a01b03811681036100c957916024359160443567ffffffffffffffff928382116100c957806023830112156100c95781600401359384116100c957602484830101116100c957602401919060643590565b1561075e57565b60405162461bcd60e51b81526020600482015260136024820152722a34b6b2b637b1b59d103737ba1030b236b4b760691b6044820152606490fd5b908060209392818452848401375f828201840152601f01601f1916010190565b9594936107e4926060949260018060a01b031688526020880152608060408801526080870191610799565b930152565b90601f8019910116810190811067ffffffffffffffff82111761080b57604052565b634e487b7160e01b5f52604160045260245ffd5b1561082657565b60405162461bcd60e51b8152602060048201526014602482015273151a5b595b1bd8dace881b9bdd081c5d595d595960621b6044820152606490fd5b949392916040926107e492875260606020880152606087019161079956fea26469706673582212202c0f44a7b3c971137bc1fe0bc76125dfdfba6eaa1359df1674eded8255c030f964736f6c63430008180033","linkReferences":{}},"methodIdentifiers":{"GRACE_PERIOD()":"c1a287e2","MAXIMUM_DELAY()":"7d645fab","MINIMUM_DELAY()":"b1b43ae5","acceptAdmin()":"0e18b681","admin()":"f851a440","cancelTransaction(address,uint256,bytes,uint256)":"5b26b108","executeTransaction(address,uint256,bytes,uint256)":"06a41d09","pendingAdmin()":"26782247","queueTransaction(address,uint256,bytes,uint256)":"8e361cdf","queuedTransactions(bytes32)":"f2b06537","setPendingAdmin(address)":"4dd18bf5"},"id":22}